:100000000C9434000C943E000C943E000C943E0082
:100010000C943E000C943E000C943E000C943E0068
:100020000C943E000C943E000C943E000C943E0058
:100030000C943E000C943E000C943E000C943E0048
:100040000C943E000C943E000C943E000C943E0038
:100050000C943E000C943E000C943E000C943E0028
:100060000C943E000C943E0011241FBECFEFD8E04C
:10007000DEBFCDBF0E944C000C9498000C94000091
:10008000CF93DF93EC0180E090E00E946F009983B2
:100090008883DF91CF910895CF93DF93CDB7DEB7FB
:1000A0002C970FB6F894DEBF0FBECDBF0F2EFCE02D
:1000B000FF2EF02D8E010F5F1F4FF8018F2D119233
:1000C0008A95E9F7C8010E94400062E070E080E094
:1000D00090E00E947500C8010E944000EECFA8E1A8
:1000E000B0E042E050E00C947C000E948A00272F90
:1000F0000C948B00DC01CB01FC01F999FECF06C00A
:10010000F2BDE1BDF89A319600B40D9241505040D5
:10011000B8F70895262FF999FECF1FBA92BD81BD79
:1001200020BD0FB6F894FA9AF99A0FBE0196089579
:04013000F894FFCF71
:00000001FF
