:100000000C947E010C949B010C949B010C949B011D
:100010000C949B010C949B010C949B010C949B01F0
:100020000C949B010C949B010C949B010C949D01DE
:100030000C949B010C949B010C949B010C949B01D0
:100040000C949B010C949B010C94F4020C941F03E0
:100050000C949B010C949B010C949B010C949B01B0
:100060000C94D3010C949B01DF02E302E302E30250
:10007000E302E302E302E302F301E302E302E30249
:10008000E302E302E302E302F301E302E302E30239
:10009000E302E302E302E302FB01E302E302E30221
:1000A000E302E302E302E3022102E302E302E302EA
:1000B000E302E302E302E302FB01E302E302E30201
:1000C000E302E302E302E3022702E302E302E302C4
:1000D000E302E302E302E3022D02E302E302E302AE
:1000E000E302E302E302E3023F02E302E302E3028C
:1000F000E302E302E302E3026902E302E302E30252
:10010000E302E302E302E3023302E302E302E30277
:10011000E302E302E302E3024D02E302E302E3024D
:10012000E302E302E302E3026C02E302E302E3021E
:10013000E302E302E302E3026C02E302E302E3020E
:10014000E302E302E302E3026C02E302E302E302FE
:10015000E302E302E302E3026C02E302E302E302EE
:10016000E302E302E302E3027502E302E302E302D5
:10017000E302E302E302E302A602E302E302E30294
:10018000E302E302E302E3027502E302E302E302B5
:10019000E302E302E302E302A602E302E302E30274
:1001A000E302E302E302E3028D02E302E302E3027D
:1001B000E302E302E302E302AA02E302E302E30250
:1001C000E302E302E302E302AA02E302E302E30240
:1001D000E302E302E302E302BF02E302E302E3021B
:1001E000E302E302E302E302D902E302E302E302F1
:1001F000E302E302E302E302D9026E616E00696E7C
:10020000660000407A10F35A00A0724E18090010E0
:10021000A5D4E80000E87648170000E40B5402007B
:1002200000CA9A3B000000E1F505000080969800A6
:10023000000040420F000000A086010000001027CF
:1002400000000000E803000000006400000000005F
:100250000A00000000000100000000002C76D88891
:10026000DC674F0823DFC1DFAE59E1B1B796E5E3A4
:10027000E453C63AE651997696E8E6C28426EB89BD
:100280008C9B62ED407C6FFCEFBC9C9F40F2BAA55A
:100290006FA5F490055A2AF75C936B6CF9676DC1F2
:1002A0001BFCE0E40D47FEF520E6B500D0ED902EF6
:1002B0000300943577050080841E080000204E0A54
:1002C000000000C80C333333330F986E1283114192
:1002D000EF8D2114893BE65516CFFEE6DB18D1845D
:1002E0004B381BF77C1D901DA4BBE4242032847284
:1002F0005E228100C9F124ECA1E53D2711241FBE37
:10030000CFEFD8E0DEBFCDBF11E0A0E0B1E0E0E389
:10031000F1E102C005900D92A030B107D9F721E0BC
:10032000A0E0B1E001C01D92A73BB207E1F70E9437
:100330004B030C9496080C9400001F920F920FB67A
:100340000F9211248F939F93AF93BF938091B3012A
:100350009091B401A091B501B091B6010196A11D93
:10036000B11D8093B3019093B401A093B501B093F4
:10037000B601BF91AF919F918F910F900FBE0F90DB
:100380001F90189585ED8093BC00ECEBF0E0808128
:1003900084FDFDCF10926D01089585EC8093BC0023
:1003A00010926D0108951F920F920FB60F921124B3
:1003B0002F933F934F935F936F937F938F939F936D
:1003C000AF93BF93EF93FF938091B900E82FE87F3D
:1003D0008E2F90E0893C910508F0F5C0FC01EC5CA3
:1003E000FF4F0C94D10680916A018093BB0085EC8D
:1003F0008093BC00E8C0909144018091430198171C
:1004000080F4E091440181E08E0F80934401F0E09C
:10041000EB5BFE4F80818093BB0085EC8093BC003A
:10042000D2C080916C01882319F00E94C201CBC018
:1004300081E080936B0184EA8093BC0010926D018F
:10044000C2C080E2809369010E94C201BCC080E307
:10045000809369010E94C201B6C088E3809369015C
:100460000E94CD01B0C0E091440181E08E0F8093E5
:1004700044018091BB00F0E0EB5BFE4F80839091E4
:10048000440180914301981720F485EC8093BC00CF
:100490009AC085E88093BC0096C0E091440181E059
:1004A0008E0F809344018091BB00F0E0EB5BFE4F28
:1004B000808380916C01882319F00E94C20183C05F
:1004C00081E080936B0184EA8093BC0010926D01FF
:1004D0007AC00E94C20177C083E080936D011092C0
:1004E000000185EC8093BC006EC0809100018032D9
:1004F00080F4E091000181E08E0F809300018091F3
:10050000BB00F0E0EF5FFE4F808385EC8093BC0082
:100510005AC085E88093BC0056C00E94CD018091EE
:100520000001803230F4E0910001F0E0EF5FFE4F17
:1005300010826091000170E0E0916501F091660128
:1005400081E091E00995109200013DC085E880931B
:10055000BC0039C084E080936D011092220110929A
:100560002101E0916701F0916801099580912101D5
:10057000811105C081E08093210110922301E09157
:10058000220181E08E0F80932201F0E0ED5DFE4FAD
:1005900080818093BB009091220180912101981766
:1005A00020F485EC8093BC000EC085E88093BC00ED
:1005B0000AC085EC8093BC0010926D0104C01092BB
:1005C00069010E94C201FF91EF91BF91AF919F918C
:1005D0008F917F916F915F914F913F912F910F90EC
:1005E0000FBE0F901F9018951F920F920FB60F928B
:1005F00011242F938F939F93EF93FF938091C000CB
:100600002091C6008871E0917001EF5FEF719091C9
:100610006F01E91739F0E0937001F0E0ED58FE4FFB
:10062000208301C082E080936E01FF91EF919F9142
:100630008F912F910F900FBE0F901F9018951F92C2
:100640000F920FB60F9211248F939F93EF93FF9306
:100650009091720180917101981769F0E091710198
:10066000EF5FEF71E0937101F0E0ED56FE4F808196
:100670008093C60005C0E1ECF0E080818F7D80832F
:10068000FF91EF919F918F910F900FBE0F901F9050
:100690001895219A0895F8946AE070E084E690E055
:1006A0000E94490378940895A0E1B0E0EAE5F3E000
:1006B0000C94D7067C011B016A01FC01178216828B
:1006C000838181FF44C39E012F5F3F4F3901F701B2
:1006D0009381F10193FD859193FF81911F018823FF
:1006E00009F431C3853239F493FD859193FF8191EB
:1006F0001F01853239F4B70190E00E94FC075601D2
:100700006501E5CF10E0512C912CFFE1F915D8F0EF
:100710008B3279F038F4803279F08332A1F4F92DFC
:10072000F0612EC08D3261F0803369F4292D216093
:100730002DC0392D3260932E892D8460982E2AC0C9
:10074000E92DE86015C097FC2DC020ED280F2A3058
:1007500088F496FE06C03AE0139F200D1124122F54
:1007600019C08AE0589E200D1124522EE92DE06216
:100770009E2E10C08E3231F496FCE5C2F92DF06445
:100780009F2E08C08C3621F4292D2068922E02C09D
:10079000883641F4F10193FD859193FF81911F010A
:1007A0008111B3CF9BEB980F933020F4992D90617A
:1007B000805E07C09BE9980F933008F066C1992DC1
:1007C0009F7E96FF16E09F73992E853619F49064EC
:1007D000992E08C0863621F4392F3068932E02C036
:1007E0001111115097FE07C01C3350F44424439458
:1007F000410E27E00BC0183038F027E017E005C0A5
:1008000027E09CE3492E02C0212F412C560184E0B1
:10081000A80EB11CF6016081718182819381042D43
:10082000A3010E940E076C01F981FC87F0FF02C052
:10083000F3FF06C091FC06C092FE06C000E205C0B0
:100840000DE203C00BE201C000E08C858C7019F052
:1008500001115AC29BC297FE10C04C0CFC85F4FFDC
:1008600004C08A81813309F44A94141474F528E091
:10087000241578F588E0482E2CC096FC2AC0812FDC
:1008800090E08C159D059CF03CEFC3163FEFD3061E
:1008900074F0892D8068982E0AC0E2E0F0E0EC0F39
:1008A000FD1FE10FF11D8081803319F411501111EA
:1008B000F4CF97FE0EC044244394410E812F90E064
:1008C000C816D9062CF41C1904C04424439401C052
:1008D00010E097FE06C01C141D0434F4C6010196F6
:1008E00005C085E090E002C081E090E00111019632
:1008F000112331F0212F30E02F5F3F4F820F931FE4
:10090000252D30E08217930714F4581A01C0512C9A
:10091000892D897049F4552039F0B70180E290E0C3
:100920000E94FC075A94F7CF002329F0B701802FCB
:1009300090E00E94FC0793FC09C0552039F0B701F4
:1009400080E390E00E94FC075A94F7CF97FE4CC0DA
:100950004601D7FE02C0812C912CC6018819990945
:10096000F301E80FF91FFE87ED879601241931097D
:10097000388B2F87012F10E01195019511093FEF5A
:100980008316930629F4B7018EE290E00E94FC07DB
:10099000C814D9044CF08F8598898815990524F4DA
:1009A000ED85FE85818101C080E3F1E08F1A910819
:1009B0002D853E852F5F3F4F3E872D878016910600
:1009C0002CF0B70190E00E94FC07D9CFC814D904DD
:1009D00041F49A81963320F4953319F43C8534FF21
:1009E00081E3B70190E04EC08A81813319F09C8584
:1009F0009F7E9C87B70190E00E94FC07111105C003
:100A000094FC18C085E690E017C0B7018EE290E034
:100A10000E94FC071E5F82E001E0080FF301E80F6F
:100A2000F11D8081B70190E00E94FC07802F011327
:100A3000F3CFE6CF85E490E0B7010E94FC07D7FC36
:100A400006C0C114D10441F4EC85E4FF05C0D19483
:100A5000C194D1088DE201C08BE2B70190E00E9401
:100A6000FC0780E32AE0C216D1042CF08F5FFAE085
:100A7000CF1AD108F7CFB70190E00E94FC07B70169
:100A8000C601C0960E94FC0754C1833631F08337FB
:100A900079F0833509F056C020C0560132E0A30E2C
:100AA000B11CF6018081898301E010E0630112C06E
:100AB0005601F2E0AF0EB11CF601C080D18096FE67
:100AC00003C0612F70E002C06FEF7FEFC6010E948C
:100AD000F1078C01F92DFF7714C0560122E0A20E18
:100AE000B11CF601C080D18096FE03C0612F70E07A
:100AF00002C06FEF7FEFC6010E94E6078C01F92D5F
:100B0000F0689F2EF3FD1AC0852D90E00817190795
:100B1000A8F4B70180E290E00E94FC075A94F4CF59
:100B2000F60197FC859197FE81916F01B70190E0E6
:100B30000E94FC0751105A9401501109011511052A
:100B400079F7F7C0843611F0893661F5560197FEC2
:100B500009C024E0A20EB11CF6016081718182817E
:100B600093810AC0F2E0AF0EB11CF6016081718181
:100B7000072E000C880B990BF92DFF769F2E97FFFF
:100B800009C090958095709561957F4F8F4F9F4FCD
:100B9000F0689F2E2AE030E0A3010E943808C82E9A
:100BA000C6183FC0092D853721F40F7E2AE030E0BA
:100BB0001DC0097F8F3691F018F4883559F0C3C0F5
:100BC000803719F0883711F0BEC0006104FF09C0FA
:100BD000046007C094FE08C0066006C028E030E04C
:100BE00005C020E130E002C020E132E0560107FFFD
:100BF00009C084E0A80EB11CF60160817181828178
:100C0000938108C0F2E0AF0EB11CF60160817181E2
:100C100080E090E0A3010E943808C82EC6180F7724
:100C2000902E96FE0BC0092D0E7FC11650F494FE37
:100C30000AC092FC08C0092D0E7E05C0DC2C092DCF
:100C400003C0DC2C01C0D12E04FF0DC0FE01EC0D51
:100C5000F11D8081803311F4097E09C002FF06C0B6
:100C6000D394D39404C0802F867809F0D39403FDE5
:100C700011C000FF06C01C2DD51480F4150D1D19E0
:100C80000DC0D51458F4B70180E290E00E94FC0733
:100C9000D394F7CFD51410F45D1801C0512C04FF84
:100CA00010C0B70180E390E00E94FC0702FF17C06C
:100CB00001FD03C088E790E002C088E590E0B7013D
:100CC0000CC0802F867859F001FF02C08BE201C072
:100CD00080E207FD8DE2B70190E00E94FC07C1169B
:100CE00038F4B70180E390E00E94FC071150F7CF81
:100CF000CA94F301EC0DF11D8081B70190E00E94D0
:100D0000FC07C110F5CF15C0F4E0F51560F584E0DF
:100D1000581A93FE1FC0011127C02C8523FF2AC03B
:100D20000AEF11E0392D3071932EF8018491811171
:100D300024C0552009F4E4CCB70180E290E00E9481
:100D4000FC075A94F6CFF7018681978126C08FEF72
:100D50009FEF23C0B70180E290E00E94FC075A9405
:100D60005110F8CFD8CF512CB701802F90E00E94BE
:100D7000FC07D3CF0EEF11E0D5CF91108052B70111
:100D800090E00E94FC070F5F1F4FCFCF23E0251597
:100D900010F483E0BDCF512CC0CF6096E2E10C94FB
:100DA000F306EE0FFF1F0590F491E02D09942F92AA
:100DB0003F924F925F926F927F928F929F92AF92EB
:100DC000BF92CF92DF92EF92FF920F931F93CF9338
:100DD000DF93CDB7DEB7CA1BDB0B0FB6F894DEBFCF
:100DE0000FBECDBF09942A88398848885F846E84F5
:100DF0007D848C849B84AA84B984C884DF80EE803F
:100E0000FD800C811B81AA81B981CE0FD11D0FB647
:100E1000F894DEBF0FBECDBFED010895283008F075
:100E200027E03327DA01990F311D87FD9160009685
:100E30006105710539F432602E5F3D9330E32A95E8
:100E4000E1F708959F3F30F080387105610509F0A2
:100E50003C5F3C5F3D93913008F08068911DDF93CB
:100E6000CF931F930F93FF92EF92192F987F969530
:100E7000E92F96959695E90FFF27E45AFD4F99279C
:100E80003327EE24FF24A701E70105900894079477
:100E900028F4360FE71EF81E491F511D660F771FF5
:100EA000881F991F0694A1F70590079428F4E70E70
:100EB000F81E491F561FC11D770F881F991F661FF7
:100EC0000694A1F70590079428F4F80E491F561FC1
:100ED000C71FD11D880F991F661F771F0694A1F7A2
:100EE0000590079420F4490F561FC71FD81F990F6C
:100EF000661F771F881F0694A9F7849110951770B5
:100F000041F0D695C79557954795F794E7941A956C
:100F1000C1F7E2E0F2E06894159015913591659182
:100F2000959105907FE27395E118F10A430B560BFA
:100F3000C90BD009C0F7E10CF11E431F561FC91F92
:100F4000D01D7EF4703311F48A95E6CFE8940150F9
:100F500030F0080F0AF40027021708F4202F239519
:100F6000022F7A3328F079E37D932A95E9F710C0B0
:100F70007D932A9589F606949795679537951795E9
:100F80001794E118F10A430B560BC90BD00998F0DE
:100F900023957E9173957A3308F070E37C93201348
:100FA000B8F77E9170617D9330F0839571E37D9306
:100FB00070E32A95E1F71124EF90FF900F911F91B4
:100FC000CF91DF91992787FD90950895FC010590B9
:100FD000615070400110D8F7809590958E0F9F1F3B
:100FE0000895FC016150704001900110D8F7809580
:100FF00090958E0F9F1F08950F931F93CF93DF93AC
:10100000FB01238121FD03C08FEF9FEF2CC022FF46
:1010100016C046815781248135814217530744F415
:10102000A081B1819D012F5F3F4F318320838C933D
:10103000268137812F5F3F4F3783268314C08B0172
:10104000EC01FB010084F185E02D0995892BE1F687
:10105000D80116968D919C911797019617969C939F
:101060008E931697CE01DF91CF911F910F91089526
:10107000FA01AA27283051F1203181F1E8946F93C9
:101080006E7F6E5F7F4F8F4F9F4FAF4FB1E03ED06F
:10109000B4E03CD0670F781F891F9A1FA11D680F0D
:1010A000791F8A1F911DA11D6A0F711D811D911D40
:1010B000A11D20D009F468943F912AE0269F1124B5
:1010C0003019305D3193DEF6CF010895462F477019
:1010D000405D4193B3E00FD0C9F7F6CF462F4F7074
:1010E000405D4A3318F0495D31FD4052419302D0D2
:1010F000A9F7EACFB4E0A695979587957795679578
:10110000BA95C9F700976105710508959B01AC0177
:101110000A2E06945795479537952795BA95C9F79E
:10112000620F731F841F951FA01D0895F894FFCFB1
:00000001FF
