S00E00006D61737465722E737265638A
S11300000C947E010C9490010C9490010C9490013A
S11300100C9490010C9490010C9490010C94900118
S11300200C9490010C9490010C9490010C94F801A0
S11300300C9490010C9490010C9490010C949001F8
S11300400C9490010C9490010C9464060C948F060B
S11300500C9490010C9490010C9490010C949001D8
S11300600C9443050C9490014F0653065306530613
S113007053065306530653066305530653065306A5
S11300805306530653065306630553065306530695
S113009053065306530653066B055306530653067D
S11300A05306530653065306910553065306530647
S11300B053065306530653066B055306530653065D
S11300C05306530653065306970553065306530621
S11300D053065306530653069D055306530653060B
S11300E05306530653065306AF05530653065306E9
S11300F05306530653065306D905530653065306AF
S11301005306530653065306A305530653065306D4
S11301105306530653065306BD05530653065306AA
S11301205306530653065306DC055306530653067B
S11301305306530653065306DC055306530653066B
S11301405306530653065306DC055306530653065B
S11301505306530653065306DC055306530653064B
S11301605306530653065306E50553065306530632
S113017053065306530653061606530653065306F0
S11301805306530653065306E50553065306530612
S113019053065306530653061606530653065306D0
S11301A05306530653065306FD05530653065306DA
S11301B053065306530653061A06530653065306AC
S11301C053065306530653061A065306530653069C
S11301D053065306530653062F0653065306530677
S11301E0530653065306530649065306530653064D
S11301F0530653065306530649066E616E00696E34
S1130200660000407A10F35A00A0724E18090010DC
S1130210A5D4E80000E87648170000E40B54020077
S113022000CA9A3B000000E1F505000080969800A2
S1130230000040420F000000A086010000001027CB
S113024000000000E803000000006400000000005B
S11302500A00000000000100000000002C76D8888D
S1130260DC674F0823DFC1DFAE59E1B1B796E5E3A0
S1130270E453C63AE651997696E8E6C28426EB89B9
S11302808C9B62ED407C6FFCEFBC9C9F40F2BAA556
S11302906FA5F490055A2AF75C936B6CF9676DC1EE
S11302A01BFCE0E40D47FEF520E6B500D0ED902EF2
S11302B00300943577050080841E080000204E0A50
S11302C0000000C80C333333330F986E128311418E
S11302D0EF8D2114893BE65516CFFEE6DB18D18459
S11302E04B381BF77C1D901DA4BBE4242032847280
S11302F05E228100C9F124ECA1E53D2711241FBE33
S1130300CFEFD8E0DEBFCDBF22E0A0E0B1E001C076
S11303101D92A530B207E1F70E94D2010C94360C6D
S11303200C9400000F931F93CF93DF93CDB7DEB7E8
S11303302A970FB6F894DEBF0FBECDBF259A60E0B2
S113034074E284EF90E00E941D020E94790280E131
S113035090E00E94B90678948E010F5F1F4F8AE0E7
S1130360F80111928A95E9F728EE33E0A80160E0DC
S113037081E00E94F0034AE060E081E00E942604EC
S113038028EE33E0A80160E081E00E94F0032A96A1
S11303900FB6F894DEBF0FBECDBFDF91CF911F9192
S11303A00F9108950E949201C0E20E9436020091CA
S11303B00001109101012091020130910301DC013F
S11303C0CB01801B910BA20BB30B893E9340A1057B
S11303D0B1055CF385B18C2785B90E943602609320
S11303E00001709301018093020190930301DDCF1A
S11303F01F920F920FB60F9211248F939F93AF9376
S1130400BF938091C1019091C201A091C301B091A9
S1130410C4010196A11DB11D8093C1019093C20135
S1130420A093C301B093C401BF91AF919F918F91E9
S11304300F900FBE0F901F90189520E43FE140E00D
S113044050E00E944F0AE1E8F0E080818A608083F6
S1130450BB27A52F942F832F809389002093880096
S1130460EFE6F0E08081826080830895F8946091E3
S1130470C1017091C2018091C3019091C40178942B
S11304800895CF93DF93EC01E0910A01F0910B0101
S1130490309701F190910901809108019817D0F0EB
S11304A0161617068CF420E030E090E0DE01A90F68
S11304B0B11D4C91D901AB53BE4F4C939F5F292F73
S11304C030E02617370794F3CB01109209016093AB
S11304D008010995DF91CF910895E0910C01F09105
S11304E00D01309729F0109206011092050109952B
S11304F008951092090110920801109206011092B9
S113050005010E9436048DE692E00E94510481E4C4
S113051092E00E944C04089591E09093040180932A
S11305200701109206011092050108950F93082FF8
S113053021E04091050165EE71E0809107010E9480
S1130540A8041092060110920501109204010F9163
S11305500895CF93DF931F92CDB7DEB7898380913F
S113056004018823A1F0809105018032C0F48091B8
S11305700601E82FF0E0EB51FE4F998190838F5FE5
S1130580809306018093050181E090E00AC061E058
S1130590CE0101960E94080581E090E002C080E04F
S11305A090E00F90DF91CF9108958F929F92AF9238
S11305B0BF92EF920F931F93CF93DF93182FD62FF1
S11305C049015A01002309F10E948C02043008F009
S11305D003E0CFEFC00F0023A9F08C2F880F880F02
S11305E0880FA501940104C0569547953795279522
S11305F08A95D2F7DA01C9010E94A9028C2FC15051
S11306008111EBCF80E00E9496024D2FD13208F089
S113061040E22E2D65EC71E0812F0E945604109269
S1130620090180930801DF91CF911F910F91EF9001
S1130630BF90AF909F908F9008958091080190E0B3
S113064020910901821B91090895909109018091DB
S11306500801981750F4E92FF0E0EB53FE4F208186
S113066030E09F5F9093090102C02FEF3FEFC90173
S113067008952F923F924F925F926F927F928F9242
S11306809F92AF92BF92CF92DF92EF92FF920F931D
S11306901F93CF93DF93CDB7DEB728970FB6F894A7
S11306A0DEBF0FBECDBFF82E6D83842E59016801C5
S11306B00E9436022B013C01882009F45AC0912C77
S11306C010E0282C312C960140E050E029833A8335
S11306D04B835C838E828F2D0E948C028D810E94BD
S11306E0A90281E00E9496028F2D0E948C02C10112
S11306F08919910980971CF4682D691901C060E279
S1130700EE24E39400E020E030E0A9018F2D0E9464
S1130710D5020DC0A501410F511D17FD5A955887EB
S11307204F830E942503AF81B8858C931F5F0E947D
S11307301D03892BA1F0C114D10461F30E94360278
S1130740DC01CB0184199509A609B70929813A81ED
S11307504B815C8182179307A407B507D8F28E8179
S113076030E2381508F480E2980E981408F4B3CFF8
S113077001C010E0C114D104C9F00E943602AB01DB
S1130780BC014419550966097709C601A0E0B0E027
S1130790481759076A077B0748F0912C812F012ECF
S11307A0000C990B881599050CF41FEF812F2896DE
S11307B00FB6F894DEBF0FBECDBFDF91CF911F916E
S11307C00F91FF90EF90DF90CF90BF90AF909F90EC
S11307D08F907F906F905F904F903F902F900895EF
S11307E00F931F9389019A0141E00E9439031F91DD
S11307F00F910895EF92FF920F931F93CF93DF937E
S1130800C62F142F79010E948C028C2F0E94A902FA
S1130810112371F0E7011150012F10E00F5F1F4FFA
S11308200E0D1F1D89910E94A902C017D107D1F78F
S113083081E00E94960291E0811190E0892FDF917E
S1130840CF911F910F91FF90EF900895CF93DF9375
S11308501F92CDB7DEB749839E012F5F3F4F41E022
S11308600E94FA030F90DF91CF91089510927B01BB
S113087081E080937A0110927901E9EBF0E08081C4
S11308808E7F808380818D7F808388E48093B8000D
S113089085E48093BC000895909374018093730160
S11308A0089590937601809375010895413208F07C
S11308B04CC090917B019111FCCF31E030937B01CE
S11308C020937A012FEF2093770110925201240F85
S11308D0209351013093780120917801880F822B65
S11308E08093780180917901813081F410927901AB
S11308F0ABEBB0E0ECEBF0E0809178018C9380817D
S113090083FDFACF85EC8093BC0003C085EE809311
S1130910BC0080917B018130E1F380915201841706
S113092010F440915201442389F0E3E5F1E0A62F4D
S1130930B72F2FEF240F30E02C5A3E4F81918D9327
S1130940E217F307D9F7942F01C090E0892F089597
S11309500F93413208F054C030917B013111FCCF28
S113096092E090937B0100937A019FEF909377013B
S11309701092520140935101442371F0FB01A3E50D
S1130980B1E0415050E04F5F5F4F640F751F91918C
S11309909D93E617F707D9F71092780190917801A3
S11309A0880F892B8093780180917901882369F0DD
S11309B010927901ABEBB0E0ECEBF0E090917801B0
S11309C09C93908193FDFACF03C085EE8093BC0085
S11309D0222341F080917B01823021F480917B01BC
S11309E08230E1F3809177018F3F79F08091770134
S11309F0803241F080917701803331F034E005C0DA
S1130A0031E003C032E001C033E0832F0F91089539
S1130A1040912F01262F30E0240F311D2132310562
S1130A20ECF420917B012430D9F4662381F0A82FC3
S1130A30B92F80E090E030912F012D91FC01EF5C03
S1130A40FE4FE30FF11D208301968617A0F38091DA
S1130A502F01680F60932F0180E0089581E00895CD
S1130A6082E0089585ED8093BC00ECEBF0E080819A
S1130A7084FDFDCF10927B01089585EC8093BC002A
S1130A8010927B0108951F920F920FB60F921124BA
S1130A902F933F934F935F936F937F938F939F9382
S1130AA0AF93BF93EF93FF938091B900E82FE87F52
S1130AB08E2F90E0893C910508F0F5C0FC01EC5CB8
S1130AC0FF4F0C94710A809178018093BB0085ECF0
S1130AD08093BC00E8C09091520180915101981715
S1130AE080F4E091520181E08E0F80935201F0E096
S1130AF0ED5AFE4F80818093BB0085EC8093BC004F
S1130B00D2C080917A01882319F00E943205CBC0AB
S1130B1081E08093790184EA8093BC0010927B0188
S1130B20C2C080E2809377010E943205BCC080E39A
S1130B30809377010E943205B6C088E380937701E1
S1130B400E943D05B0C0E091520181E08E0F809378
S1130B5052018091BB00F0E0ED5AFE4F80839091EA
S1130B60520180915101981720F485EC8093BC00C8
S1130B709AC085E88093BC0096C0E091520181E060
S1130B808E0F809352018091BB00F0E0ED5AFE4F2E
S1130B90808380917A01882319F00E94320583C0F2
S1130BA081E08093790184EA8093BC0010927B01F8
S1130BB07AC00E94320577C083E080937B01109253
S1130BC00E0185EC8093BC006EC080910E018032D2
S1130BD080F4E0910E0181E08E0F80930E018091EC
S1130BE0BB00F0E0E15FFE4F808385EC8093BC00A6
S1130BF05AC085E88093BC0056C00E943D05809190
S1130C000E01803230F4E0910E01F0E0E15FFE4F1E
S1130C10108260910E0170E0E0917301F091740113
S1130C208FE091E0099510920E013DC085E8809314
S1130C30BC0039C084E080937B0110923001109293
S1130C402F01E0917501F0917601099580912F01B2
S1130C50811105C081E080932F0110923101E09150
S1130C60300181E08E0F80933001F0E0EF5CFE4FA5
S1130C7080818093BB009091300180912F0198175F
S1130C8020F485EC8093BC000EC085E88093BC0002
S1130C900AC085EC8093BC0010927B0104C01092C2
S1130CA077010E943205FF91EF91BF91AF919F911F
S1130CB08F917F916F915F914F913F912F910F9001
S1130CC00FBE0F901F9018951F920F920FB60F92A0
S1130CD011242F938F939F93EF93FF938091C000E0
S1130CE02091C6008871E0917E01EF5FEF719091D1
S1130CF07D01E91739F0E0937E01F0E0EF57FE4FF4
S1130D00208301C082E080937C01FF91EF919F9149
S1130D108F912F910F900FBE0F901F9018951F92D7
S1130D200F920FB60F9211248F939F93EF93FF931B
S1130D309091800180917F01981769F0E0917F0183
S1130D40EF5FEF71E0937F01F0E0EF55FE4F80819C
S1130D508093C60005C0E1ECF0E080818F7D808344
S1130D60FF91EF919F918F910F900FBE0F901F9065
S1130D7018951092800110927F0110927E011092BA
S1130D807D01992324F422E02093C0009F7790935F
S1130D90C5008093C40088E98093C10086E08093F5
S1130DA0C2000895A0E1B0E0E8EDF6E00C94770A03
S1130DB07C011B016A01FC0117821682838181FF79
S1130DC044C39E012F5F3F4F3901F7019381F10125
S1130DD093FD859193FF81911F01882309F431C309
S1130DE0853239F493FD859193FF81911F018532FA
S1130DF039F4B70190E00E949C0B56016501E5CFE0
S1130E0010E0512C912CFFE1F915D8F08B3279F0D8
S1130E1038F4803279F08332A1F4F92DF0612EC0D8
S1130E208D3261F0803369F4292D21602DC0392D74
S1130E303260932E892D8460982E2AC0E92DE860B3
S1130E4015C097FC2DC020ED280F2A3088F496FE9B
S1130E5006C03AE0139F200D1124122F19C08AE016
S1130E60589E200D1124522EE92DE0629E2E10C0B2
S1130E708E3231F496FCE5C2F92DF0649F2E08C041
S1130E808C3621F4292D2068922E02C0883641F434
S1130E90F10193FD859193FF81911F018111B3CFDE
S1130EA09BEB980F933020F4992D9061805E07C0DE
S1130EB09BE9980F933008F066C1992D9F7E96FFA9
S1130EC016E09F73992E853619F49064992E08C004
S1130ED0863621F4392F3068932E02C01111115037
S1130EE097FE07C01C3350F444244394410E27E07A
S1130EF00BC0183038F027E017E005C027E09CE36A
S1130F00492E02C0212F412C560184E0A80EB11CA9
S1130F10F6016081718182819381042DA3010E9475
S1130F20AE0A6C01F981FC87F0FF02C0F3FF06C032
S1130F3091FC06C092FE06C000E205C00DE203C0AB
S1130F400BE201C000E08C858C7019F001115AC2CB
S1130F509BC297FE10C04C0CFC85F4FF04C08A8130
S1130F60813309F44A94141474F528E0241578F5AF
S1130F7088E0482E2CC096FC2AC0812F90E08C1566
S1130F809D059CF03CEFC3163FEFD30674F0892D0A
S1130F908068982E0AC0E2E0F0E0EC0FFD1FE10F3C
S1130FA0F11D8081803319F411501111F4CF97FE93
S1130FB00EC044244394410E812F90E0C816D906F4
S1130FC02CF41C1904C04424439401C010E097FE7F
S1130FD006C01C141D0434F4C601019605C085E046
S1130FE090E002C081E090E001110196112331F0FC
S1130FF0212F30E02F5F3F4F820F931F252D30E0CC
S11310008217930714F4581A01C0512C892D897042
S113101049F4552039F0B70180E290E00E949C0B1E
S11310205A94F7CF002329F0B701802F90E00E9453
S11310309C0B93FC09C0552039F0B70180E390E084
S11310400E949C0B5A94F7CF97FE4CC04601D7FEE2
S113105002C0812C912CC60188199909F301E80F6B
S1131060F91FFE87ED87960124193109388B2F87E4
S1131070012F10E01195019511093FEF8316930696
S113108029F4B7018EE290E00E949C0BC814D904A5
S11310904CF08F8598898815990524F4ED85FE8593
S11310A0818101C080E3F1E08F1A91082D853E858E
S11310B02F5F3F4F3E872D87801691062CF0B70196
S11310C090E00E949C0BD9CFC814D90441F49A81B2
S11310D0963320F4953319F43C8534FF81E3B7014A
S11310E090E04EC08A81813319F09C859F7E9C8755
S11310F0B70190E00E949C0B111105C094FC18C02C
S113110085E690E017C0B7018EE290E00E949C0B48
S11311101E5F82E001E0080FF301E80FF11D8081FA
S1131120B70190E00E949C0B802F0113F3CFE6CF10
S113113085E490E0B7010E949C0BD7FC06C0C11463
S1131140D10441F4EC85E4FF05C0D194C194D108E5
S11311508DE201C08BE2B70190E00E949C0B80E31A
S11311602AE0C216D1042CF08F5FFAE0CF1AD1081E
S1131170F7CFB70190E00E949C0BB701C601C0965F
S11311800E949C0B54C1833631F0833779F0833548
S113119009F056C020C0560132E0A30EB11CF6017E
S11311A08081898301E010E0630112C05601F2E0FE
S11311B0AF0EB11CF601C080D18096FE03C0612F32
S11311C070E002C06FEF7FEFC6010E94910B8C01AB
S11311D0F92DFF7714C0560122E0A20EB11CF601CE
S11311E0C080D18096FE03C0612F70E002C06FEF13
S11311F07FEFC6010E94860B8C01F92DF0689F2EAB
S1131200F3FD1AC0852D90E008171907A8F4B7015B
S113121080E290E00E949C0B5A94F4CFF60197FC74
S1131220859197FE81916F01B70190E00E949C0B1C
S113123051105A94015011090115110579F7F7C09D
S1131240843611F0893661F5560197FE09C024E011
S1131250A20EB11CF60160817181828193810AC062
S1131260F2E0AF0EB11CF60160817181072E000C13
S1131270880B990BF92DFF769F2E97FF09C0909547
S11312808095709561957F4F8F4F9F4FF0689F2E8B
S11312902AE030E0A3010E94D80BC82EC6183FC034
S11312A0092D853721F40F7E2AE030E01DC0097F27
S11312B08F3691F018F4883559F0C3C0803719F08F
S11312C0883711F0BEC0006104FF09C0046007C084
S11312D094FE08C0066006C028E030E005C020E1A6
S11312E030E002C020E132E0560107FF09C084E08B
S11312F0A80EB11CF601608171818281938108C0BE
S1131300F2E0AF0EB11CF6016081718180E090E0E3
S1131310A3010E94D80BC82EC6180F77902E96FEF4
S11313200BC0092D0E7FC11650F494FE0AC092FC26
S113133008C0092D0E7E05C0DC2C092D03C0DC2C51
S113134001C0D12E04FF0DC0FE01EC0DF11D808102
S1131350803311F4097E09C002FF06C0D394D394EC
S113136004C0802F867809F0D39403FD11C000FFD8
S113137006C01C2DD51480F4150D1D190DC0D514EF
S113138058F4B70180E290E00E949C0BD394F7CF0D
S1131390D51410F45D1801C0512C04FF10C0B7011E
S11313A080E390E00E949C0B02FF17C001FD03C084
S11313B088E790E002C088E590E0B7010CC0802F78
S11313C0867859F001FF02C08BE201C080E207FD7C
S11313D08DE2B70190E00E949C0BC11638F4B7016E
S11313E080E390E00E949C0B1150F7CFCA94F30164
S11313F0EC0DF11D8081B70190E00E949C0BC1109F
S1131400F5CF15C0F4E0F51560F584E0581A93FEA5
S11314101FC0011127C02C8523FF2AC00AEF11E049
S1131420392D3071932EF8018491811124C05520F7
S113143009F4E4CCB70180E290E00E949C0B5A943A
S1131440F6CFF7018681978126C08FEF9FEF23C0E7
S1131450B70180E290E00E949C0B5A945110F8CF9F
S1131460D8CF512CB701802F90E00E949C0BD3CF92
S11314700EEF11E0D5CF91108052B70190E00E9499
S11314809C0B0F5F1F4FCFCF23E0251510F483E093
S1131490BDCF512CC0CF6096E2E10C94930AA1E237
S11314A01A2EAA1BBB1BFD010DC0AA1FBB1FEE1FDA
S11314B0FF1FA217B307E407F50720F0A21BB30B25
S11314C0E40BF50B661F771F881F991F1A9469F7A1
S11314D060957095809590959B01AC01BD01CF01FD
S11314E00895EE0FFF1F0590F491E02D09942F92BB
S11314F03F924F925F926F927F928F929F92AF92A0
S1131500BF92CF92DF92EF92FF920F931F93CF93EC
S1131510DF93CDB7DEB7CA1BDB0B0FB6F894DEBF83
S11315200FBECDBF09942A88398848885F846E84A9
S11315307D848C849B84AA84B984C884DF80EE80F3
S1131540FD800C811B81AA81B981CE0FD11D0FB6FC
S1131550F894DEBF0FBECDBFED010895283008F02A
S113156027E03327DA01990F311D87FD916000963A
S11315706105710539F432602E5F3D9330E32A959D
S1131580E1F708959F3F30F080387105610509F057
S11315903C5F3C5F3D93913008F08068911DDF9380
S11315A0CF931F930F93FF92EF92192F987F9695E5
S11315B0E92F96959695E90FFF27E45AFD4F992751
S11315C03327EE24FF24A701E7010590089407942C
S11315D028F4360FE71EF81E491F511D660F771FAA
S11315E0881F991F0694A1F70590079428F4E70E25
S11315F0F81E491F561FC11D770F881F991F661FAC
S11316000694A1F70590079428F4F80E491F561F75
S1131610C71FD11D880F991F661F771F0694A1F756
S11316200590079420F4490F561FC71FD81F990F20
S1131630661F771F881F0694A9F784911095177069
S113164041F0D695C79557954795F794E7941A9521
S1131650C1F7E2E0F2E06894159015913591659137
S1131660959105907FE27395E118F10A430B560BAF
S1131670C90BD009C0F7E10CF11E431F561FC91F47
S1131680D01D7EF4703311F48A95E6CFE8940150AE
S113169030F0080F0AF40027021708F4202F2395CE
S11316A0022F7A3328F079E37D932A95E9F710C065
S11316B07D932A9589F6069497956795379517959E
S11316C01794E118F10A430B560BC90BD00998F093
S11316D023957E9173957A3308F070E37C932013FD
S11316E0B8F77E9170617D9330F0839571E37D93BB
S11316F070E32A95E1F71124EF90FF900F911F9169
S1131700CF91DF91992787FD90950895FC0105906D
S1131710615070400110D8F7809590958E0F9F1FEF
S11317200895FC016150704001900110D8F7809534
S113173090958E0F9F1F08950F931F93CF93DF9360
S1131740FB01238121FD03C08FEF9FEF2CC022FFFB
S113175016C046815781248135814217530744F4CA
S1131760A081B1819D012F5F3F4F318320838C93F2
S1131770268137812F5F3F4F3783268314C08B0127
S1131780EC01FB010084F185E02D0995892BE1F63C
S1131790D80116968D919C911797019617969C9354
S11317A08E931697CE01DF91CF911F910F910895DB
S11317B0FA01AA27283051F1203181F1E8946F937E
S11317C06E7F6E5F7F4F8F4F9F4FAF4FB1E03ED024
S11317D0B4E03CD0670F781F891F9A1FA11D680FC2
S11317E0791F8A1F911DA11D6A0F711D811D911DF5
S11317F0A11D20D009F468943F912AE0269F11246A
S11318003019305D3193DEF6CF010895462F4770CD
S1131810405D4193B3E00FD0C9F7F6CF462F4F7028
S1131820405D4A3318F0495D31FD4052419302D086
S1131830A9F7EACFB4E0A69597958795779567952C
S1131840BA95C9F700976105710508959B01AC012C
S11318500A2E06945795479537952795BA95C9F753
S1131860620F731F841F951FA01D0895F894FFCF66
S9030000FC
