S0110000696361726F5F696D752E737265635B
S11300000C947E010C949B010C949B010C949B0119
S11300100C949B010C949B010C949B010C949B01EC
S11300200C949B010C949B010C949B010C9427044D
S11300300C949B010C949B010C949B010C949B01CC
S11300400C949B010C949B010C94FC080C942709C0
S11300500C949B010C949B010C949B010C949B01AC
S11300600C94DB070C949B01E708EB08EB08EB0806
S1130070EB08EB08EB08EB08FB07EB08EB08EB08D5
S1130080EB08EB08EB08EB08FB07EB08EB08EB08C5
S1130090EB08EB08EB08EB080308EB08EB08EB08AC
S11300A0EB08EB08EB08EB082908EB08EB08EB0876
S11300B0EB08EB08EB08EB080308EB08EB08EB088C
S11300C0EB08EB08EB08EB082F08EB08EB08EB0850
S11300D0EB08EB08EB08EB083508EB08EB08EB083A
S11300E0EB08EB08EB08EB084708EB08EB08EB0818
S11300F0EB08EB08EB08EB087108EB08EB08EB08DE
S1130100EB08EB08EB08EB083B08EB08EB08EB0803
S1130110EB08EB08EB08EB085508EB08EB08EB08D9
S1130120EB08EB08EB08EB087408EB08EB08EB08AA
S1130130EB08EB08EB08EB087408EB08EB08EB089A
S1130140EB08EB08EB08EB087408EB08EB08EB088A
S1130150EB08EB08EB08EB087408EB08EB08EB087A
S1130160EB08EB08EB08EB087D08EB08EB08EB0861
S1130170EB08EB08EB08EB08AE08EB08EB08EB0820
S1130180EB08EB08EB08EB087D08EB08EB08EB0841
S1130190EB08EB08EB08EB08AE08EB08EB08EB0800
S11301A0EB08EB08EB08EB089508EB08EB08EB0809
S11301B0EB08EB08EB08EB08B208EB08EB08EB08DC
S11301C0EB08EB08EB08EB08B208EB08EB08EB08CC
S11301D0EB08EB08EB08EB08C708EB08EB08EB08A7
S11301E0EB08EB08EB08EB08E108EB08EB08EB087D
S11301F0EB08EB08EB08EB08E1086E616E00696E32
S1130200660000407A10F35A00A0724E18090010DC
S1130210A5D4E80000E87648170000E40B54020077
S113022000CA9A3B000000E1F505000080969800A2
S1130230000040420F000000A086010000001027CB
S113024000000000E803000000006400000000005B
S11302500A00000000000100000000002C76D8888D
S1130260DC674F0823DFC1DFAE59E1B1B796E5E3A0
S1130270E453C63AE651997696E8E6C28426EB89B9
S11302808C9B62ED407C6FFCEFBC9C9F40F2BAA556
S11302906FA5F490055A2AF75C936B6CF9676DC1EE
S11302A01BFCE0E40D47FEF520E6B500D0ED902EF2
S11302B00300943577050080841E080000204E0A50
S11302C0000000C80C333333330F986E128311418E
S11302D0EF8D2114893BE65516CFFEE6DB18D18459
S11302E04B381BF77C1D901DA4BBE4242032847280
S11302F05E228100C9F124ECA1E53D2711241FBE33
S1130300CFEFD8E0DEBFCDBF11E0A0E0B1E0E8E57B
S1130310FEE102C005900D92A838B107D9F723E099
S1130320A8E8B1E001C01D92AB36B207E1F70E9424
S1130330ED020C942A0F0C940000CF93DF93EC0190
S113034080E090E00E94140F9983888382E090E01B
S11303500E94140F9B838A8384E090E00E94140F10
S11303609D838C8386E090E00E94140F9F838E838C
S113037088E090E00E94140F998788878AE090E0D3
S11303800E94140F9B878A87DF91CF91089580E0A4
S113039090E0A0E2B1E48093AD019093AE01A0930C
S11303A0AF01B093B0011092A9011092AA0110926A
S11303B0AB011092AC0180E090E0A0E8BFE3809331
S11303C0A5019093A601A093A701B093A801109250
S11303D0A1011092A2011092A3011092A401109203
S11303E09D0110929E0110929F011092A001109203
S11303F0990110929A0110929B0110929C01109203
S11304009501109296011092970110929801109202
S11304109101109292011092930110929401109202
S11304208D0110928E0110928F0110929001109202
S113043088018AE097EDA3EABBE380938901909356
S11304408A01A0938B01B0938C010895CF93DF931D
S1130450CDB7DEB72C970FB6F894DEBF0FBECDBF75
S1130460259A78942FEF81EE94E0215080409040BB
S1130470E1F700C0000060E074E284EF90E00E94C5
S11304804C040E94D80680E190E00E945109EFEFED
S1130490F1EE24E0E150F0402040E1F700C000001C
S11304A0CE0101962CE0FC0111922A95E9F70E94F5
S11304B09D018C858F938B858F938A858F938985F6
S11304C08F9388858F938F818F938E818F938D8166
S11304D08F938C818F938B818F938A818F93898162
S11304E08F9380E091E09F938F938FEB91E09F93A4
S11304F08F930E94940E8FEB91E00E947F098EE20D
S113050091E00E947F090FB6F894DEBF0FBECDBF05
S11305102C960FB6F894DEBF0FBECDBFDF91CF91FE
S11305200895CF93DF93CDB7DEB72C970FB6F89429
S1130530DEBF0FBECDBF0E94F003CE0101962CE0BA
S1130540FC0111922A95E9F70E949D0189819A8103
S11305500E9403048B819C810E9409048D819E81E9
S11305600E940F048F8198850E94150489859A85BD
S11305700E941B048B859C850E9421040E946504B3
S11305809F938F937F936F938AE391E09F938F93CD
S11305908FEB91E09F938F930E94940E8FEB91E0E9
S11305A00E947F090E94B1030E94C701FFEF21EE60
S11305B084E0F15020408040E1F700C000000FB615
S11305C0F894DEBF0FBECDBF2C960FB6F894DEBFF5
S11305D00FBECDBFDF91CF9108950E9426020E94E5
S11305E09102812C912C54016894772475F80F2E74
S11305F0FEE4CF2EF1E0DF2EF02D0FEB11E0C1EB86
S1130600D1E00F2EFEE6EF2EF1E0FF2EF02D0E943A
S11306106504DC01CB0188199909AA09BB09893E43
S11306209340A105B1050CF47EC085B1872585B939
S1130630809119038F93809118038F9380911303F2
S11306408F93809112038F9380911F038F938091D6
S11306501E038F93809111038F93809110038F93C6
S113066080911D038F9380911C038F9380911503B8
S11306708F93809114038F93809117038F938091AC
S113068016038F9380910F038F9380910E038F93A2
S113069080911B038F9380911A038F93DF92CF92E3
S11306A01F930F930E94940EC8010E947F098091AA
S11306B0BD019091BE0101969093BE018093BD014E
S11306C09F938F938B858F938A858F9389858F933F
S11306D088858F938F818F938E818F938D818F9354
S11306E08C818F938B818F938A818F9389818F9350
S11306F088818F93FF92EF921F930F930E94940E21
S11307008DB79EB788960FB6F8949EBF0FBE8DBF67
S1130710C8010E947F091092BE011092BD010E947F
S113072065044B015C018091BD019091BE0101966D
S11307309093BE018093BD016ACF482F4295440F28
S1130740407E61E08EE10E940A060895CF93C82F8F
S1130750482F62E08EE10E940A06C0932003CF91E5
S1130760089540E760E08EE10E940A0681E00E945D
S11307709D0381E00E94A60308950F93082F23E0B0
S113078042E06BE688E60E9451060F9108950F93AC
S1130790082F22E044E06BE188E60E9451060F91A5
S11307A008950F93082F22E044E06CE188E60E944C
S11307B051060F910895282F46E06BE688E60E94C3
S11307C01A060895282F45E06AE688E60E941A066C
S11307D00895282F41E067E388E60E941A060895E9
S11307E080E00E94E20381E00E94E90381E00E942C
S11307F0BD0381E00E94C70382E00E94D10380E030
S11308000E94DB030895AC0166E088E60E94C606F8
S11308100895AC0168E088E60E94C6060895AC011C
S11308206AE088E60E94C6060895AC0163E188E6A2
S11308300E94C6060895AC0165E188E60E94C606DA
S11308400895AC0167E188E60E94C60608951F92E8
S11308500F920FB60F9211248F939F93AF93BF9370
S11308608091270390912803A0912903B0912A0332
S11308700196A11DB11D8093270390932803A09393
S11308802903B0932A03BF91AF919F918F910F9049
S11308900FBE0F901F90189520E43FE140E050E018
S11308A00E940B0DE1E8F0E080818A608083BB2721
S11308B0A52F942F832F8093890020938800EFE63F
S11308C0F0E08081826080830895F894609127032A
S11308D0709128038091290390912A0378940895B4
S11308E091E090935502809358021092570210920F
S11308F0560208950F93082F21E0409156026BE4AD
S113090073E0809158020E9440071092570210929F
S11309105602109255020F910895CF93DF931F92C0
S1130920CDB7DEB78983809155028823A1F08091E9
S113093056028032C0F480915702E82FF0E0E55B64
S1130940FC4F998190838F5F809357028093560266
S113095081E090E00AC061E0CE0101960E94A00708
S113096081E090E002C080E090E00F90DF91CF91B1
S113097008958F929F92AF92BF92EF920F931F931D
S1130980CF93DF93182FD62F49015A01002309F181
S11309900E947004043008F003E0CFEFC00F00237E
S11309A0A9F08C2F880F880F880FA501940104C02B
S11309B056954795379527958A95D2F7DA01C90157
S11309C00E948D048C2FC1508111EBCF80E00E94D6
S11309D07A044D2FD13208F040E22E2D6BE273E001
S11309E0812F0E94EE0610925A0280935902DF91E1
S11309F0CF911F910F91EF90BF90AF909F908F90E8
S1130A0008958091590290E020915A02821B910925
S1130A10089590915A0280915902981750F4E92F41
S1130A20F0E0E55DFC4F208130E09F5F90935A0237
S1130A3002C02FEF3FEFC90108952F923F924F92CA
S1130A405F926F927F928F929F92AF92BF92CF925A
S1130A50DF92EF92FF920F931F93CF93DF93CDB763
S1130A60DEB728970FB6F894DEBF0FBECDBFF82EC1
S1130A706D83842E590168010E9465042B013C0199
S1130A80882009F45AC0912C10E0282C312C9601AE
S1130A9040E050E029833A834B835C838E828F2D20
S1130AA00E9470048D810E948D0481E00E947A046A
S1130AB08F2D0E947004C1018919910980971CF43B
S1130AC0682D691901C060E2EE24E39400E020E09F
S1130AD030E0A9018F2D0E94B9040DC0A501410F7A
S1130AE0511D17FD5A9558874F830E940905AF8100
S1130AF0B8858C931F5F0E940105892BA1F0C11456
S1130B00D10461F30E946504DC01CB0184199509C9
S1130B10A609B70929813A814B815C818217930721
S1130B20A407B507D8F28E8130E2381508F480E2C4
S1130B30980E981408F4B3CF01C010E0C114D10486
S1130B40C9F00E946504AB01BC014419550966094A
S1130B507709C601A0E0B0E0481759076A077B0788
S1130B6048F0912C812F012E000C990B88159905C2
S1130B700CF41FEF812F28960FB6F894DEBF0FBE3A
S1130B80CDBFDF91CF911F910F91FF90EF90DF9038
S1130B90CF90BF90AF909F908F907F906F905F9019
S1130BA04F903F902F9008950F931F9389019A01BE
S1130BB041E00E941D051F910F910895EF92FF924D
S1130BC00F931F93CF93DF93C62F142F79010E94A5
S1130BD070048C2F0E948D04112371F0E7011150D1
S1130BE0012F10E00F5F1F4F0E0D1F1D89910E94F2
S1130BF08D04C017D107D1F781E00E947A0491E0F7
S1130C00811190E0892FDF91CF911F910F91FF9077
S1130C10EF900895CF93DF931F92CDB7DEB749834A
S1130C209E012F5F3F4F41E00E94DE050F90DF9150
S1130C30CF910895EF92FF920F931F93CF93DF9379
S1130C401F92CDB7DEB7182F062FF42EE22E28EE12
S1130C5033E0AE014F5F5F4F0E94D405EE2051F0A8
S1130C6041E050E002C0440F551FFA94E2F7898135
S1130C70482B0AC041E050E002C0440F551FFA94CB
S1130C80E2F74095898148234983602F812F0E9490
S1130C900A060F90DF91CF911F910F91FF90EF9073
S1130CA00895DF92EF92FF920F931F93CF93DF93F8
S1130CB01F92CDB7DEB7182FF62EE42ED22E28EED3
S1130CC033E0AE014F5F5F4F0E94D405882341F1AA
S1130CD02E2D30E02D1931092F5F3F4F81E090E038
S1130CE002C0880F991FDA94E2F70197022E02C01E
S1130CF0880F991F0A94E2F7402F50E0BA0102C00E
S1130D00660F771F2A95E2F7482F4095998149236A
S1130D108623482B49836F2D812F0E940A0601C028
S1130D2080E00F90DF91CF911F910F91FF90EF9092
S1130D30DF900895EF92FF920F931F93CF93DF9369
S1130D40C62FE42E022F132F0E9470048C2F0E94B2
S1130D508D04EE2069F0C02FD12FF12C89810E94DF
S1130D608D04888122960E948D04F394EF10F6CFAF
S1130D7081E00E947A0491E0811190E0892FDF9153
S1130D80CF911F910F91FF90EF900895CF93DF9330
S1130D9000D0CDB7DEB75A8349839E012F5F3F4F02
S1130DA041E00E949A060F900F90DF91CF91089531
S1130DB01092C80281E08093C7021092C602E9EB48
S1130DC0F0E080818E7F808380818D7F808388E4C2
S1130DD08093B80085E48093BC000895413208F004
S1130DE04CC09091C8029111FCCF31E03093C802FD
S1130DF02093C7022FEF2093C40210929F02240F66
S1130E0020939E023093C5022091C502880F822B45
S1130E108093C5028091C602813081F41092C6028B
S1130E20ABEBB0E0ECEBF0E08091C5028C938081F9
S1130E3083FDFACF85EC8093BC0003C085EE8093DC
S1130E40BC008091C8028130E1F380919F02841735
S1130E5010F440919F02442389F0E0EAF2E0A62FC7
S1130E60B72F2FEF240F30E02F553D4F81918D93F5
S1130E70E217F307D9F7942F01C090E0892F089562
S1130E800F93413208F054C03091C8023111FCCFA5
S1130E9092E09093C8020093C7029FEF9093C4021C
S1130EA010929F0240939E02442371F0FB01A0EA3A
S1130EB0B2E0415050E04F5F5F4F640F751F919156
S1130EC09D93E617F707D9F71092C5029091C502D2
S1130ED0880F892B8093C5028091C602882369F00C
S1130EE01092C602ABEBB0E0ECEBF0E09091C502DF
S1130EF09C93908193FDFACF03C085EE8093BC0050
S1130F00222341F08091C802823021F48091C802EA
S1130F108230E1F38091C4028F3F79F08091C40262
S1130F20803241F08091C402803331F034E005C056
S1130F3031E003C032E001C033E0832F0F91089504
S1130F4040917C02262F30E0240F311D21323105DF
S1130F50ECF42091C8022430D9F4662381F0A82F40
S1130F60B92F80E090E030917C022D91FC01E25891
S1130F70FD4FE30FF11D208301968617A0F38091A6
S1130F807C02680F60937C0280E0089581E00895FC
S1130F9082E0089585ED8093BC00ECEBF0E0808165
S1130FA084FDFDCF1092C802089585EC8093BC00A7
S1130FB01092C80208951F920F920FB60F92112437
S1130FC02F933F934F935F936F937F938F939F934D
S1130FD0AF93BF93EF93FF938091B900E82FE87F1D
S1130FE08E2F90E0893C910508F0F5C0FC01EC5C83
S1130FF0FF4F0C942D0D8091C5028093BB0085ECAE
S11310008093BC00E8C090919F0280919E02981743
S113101080F4E0919F0281E08E0F80939F02F0E0C4
S1131020E056FD4F80818093BB0085EC8093BC002B
S1131030D2C08091C702882319F00E94CA07CBC08E
S113104081E08093C60284EA8093BC001092C802B7
S1131050C2C080E28093C4020E94CA07BCC080E37D
S11310608093C4020E94CA07B6C088E38093C40276
S11310700E94D507B0C0E0919F0281E08E0F80935B
S11310809F028091BB00F0E0E056FD4F8083909179
S11310909F0280919E02981720F485EC8093BC00F7
S11310A09AC085E88093BC0096C0E0919F0281E0DD
S11310B08E0F80939F028091BB00F0E0E056FD4FBD
S11310C080838091C702882319F00E94CA0783C0D5
S11310D081E08093C60284EA8093BC001092C80227
S11310E07AC00E94CA0777C083E08093C802109236
S11310F05B0285EC8093BC006EC080915B02803201
S113110080F4E0915B0281E08E0F80935B0280911A
S1131110BB00F0E0E45AFD4F808385EC8093BC0073
S11311205AC085E88093BC0056C00E94D5078091C0
S11311305B02803230F4E0915B02F0E0E45AFD4F50
S1131140108260915B0270E0E091C002F091C102F4
S11311508CE592E0099510925B023DC085E880938E
S1131160BC0039C084E08093C80210927D021092C2
S11311707C02E091C202F091C302099580917C0245
S1131180811105C081E080937C0210927E02E0917F
S11311907D0281E08E0F80937D02F0E0E258FD4FE6
S11311A080818093BB0090917D0280917C0298178E
S11311B020F485EC8093BC000EC085E88093BC00CD
S11311C00AC085EC8093BC001092C80204C010923F
S11311D0C4020E94CA07FF91EF91BF91AF919F9102
S11311E08F917F916F915F914F913F912F910F90CC
S11311F00FBE0F901F9018951F920F920FB60F926B
S113120011242F938F939F93EF93FF938091C000AA
S11312102091C6008871E091CB02EF5FEF7190914D
S1131220CA02E91739F0E093CB02F0E0E253FD4F34
S1131230208301C082E08093C902FF91EF919F91C6
S11312408F912F910F900FBE0F901F9018951F92A2
S11312500F920FB60F9211248F939F93EF93FF93E6
S11312609091CD028091CC02981769F0E091CC0264
S1131270EF5FEF71E093CC02F0E0E251FD4F80812B
S11312808093C60005C0E1ECF0E080818F7D80830F
S1131290FF91EF919F918F910F900FBE0F901F9030
S11312A018951092CD021092CC021092CB0210929B
S11312B0CA02992324F422E02093C0009F779093DC
S11312C0C5008093C40088E98093C10086E08093C0
S11312D0C20008952091CD022F5F2F719091CC020E
S11312E02917E1F3E22FF0E0E251FD4F80832093D0
S11312F0CD02E1ECF0E08081806280830895CF9399
S1131300DF93EC018881882331F021960E946A09D9
S113131089918111FBCFDF91CF910895A0E1B0E0D5
S1131320E4E9F9E00C94330D7C011B016A01FC0132
S113133017821682838181FF44C39E012F5F3F4F32
S11313403901F7019381F10193FD859193FF819117
S11313501F01882309F431C3853239F493FD859143
S113136093FF81911F01853239F4B70190E00E9407
S1131370580E56016501E5CF10E0512C912CFFE188
S1131380F915D8F08B3279F038F4803279F0833261
S1131390A1F4F92DF0612EC08D3261F0803369F42F
S11313A0292D21602DC0392D3260932E892D846022
S11313B0982E2AC0E92DE86015C097FC2DC020EDB9
S11313C0280F2A3088F496FE06C03AE0139F200DB9
S11313D01124122F19C08AE0589E200D1124522E78
S11313E0E92DE0629E2E10C08E3231F496FCE5C2E7
S11313F0F92DF0649F2E08C08C3621F4292D206825
S1131400922E02C0883641F4F10193FD859193FF39
S113141081911F018111B3CF9BEB980F933020F47E
S1131420992D9061805E07C09BE9980F933008F076
S113143066C1992D9F7E96FF16E09F73992E85367F
S113144019F49064992E08C0863621F4392F306837
S1131450932E02C01111115097FE07C01C3350F493
S113146044244394410E27E00BC0183038F027E0A1
S113147017E005C027E09CE3492E02C0212F412C30
S1131480560184E0A80EB11CF6016081718182814D
S11314909381042DA3010E946A0D6C01F981FC87DC
S11314A0F0FF02C0F3FF06C091FC06C092FE06C026
S11314B000E205C00DE203C00BE201C000E08C8530
S11314C08C7019F001115AC29BC297FE10C04C0CCB
S11314D0FC85F4FF04C08A81813309F44A9414140E
S11314E074F528E0241578F588E0482E2CC096FC85
S11314F02AC0812F90E08C159D059CF03CEFC3160B
S11315003FEFD30674F0892D8068982E0AC0E2E07C
S1131510F0E0EC0FFD1FE10FF11D8081803319F421
S113152011501111F4CF97FE0EC044244394410E80
S1131530812F90E0C816D9062CF41C1904C0442449
S1131540439401C010E097FE06C01C141D0434F43B
S1131550C601019605C085E090E002C081E090E0FC
S113156001110196112331F0212F30E02F5F3F4FFD
S1131570820F931F252D30E08217930714F4581A15
S113158001C0512C892D897049F4552039F0B701D7
S113159080E290E00E94580E5A94F7CF002329F07D
S11315A0B701802F90E00E94580E93FC09C055208B
S11315B039F0B70180E390E00E94580E5A94F7CFB7
S11315C097FE4CC04601D7FE02C0812C912CC60167
S11315D088199909F301E80FF91FFE87ED87960131
S11315E024193109388B2F87012F10E011950195AB
S11315F011093FEF8316930629F4B7018EE290E0B8
S11316000E94580EC814D9044CF08F859889881507
S1131610990524F4ED85FE85818101C080E3F1E024
S11316208F1A91082D853E852F5F3F4F3E872D876A
S1131630801691062CF0B70190E00E94580ED9CF85
S1131640C814D90441F49A81963320F4953319F4DB
S11316503C8534FF81E3B70190E04EC08A81813339
S113166019F09C859F7E9C87B70190E00E94580EDC
S1131670111105C094FC18C085E690E017C0B701AD
S11316808EE290E00E94580E1E5F82E001E0080F97
S1131690F301E80FF11D8081B70190E00E94580E1C
S11316A0802F0113F3CFE6CF85E490E0B7010E94C9
S11316B0580ED7FC06C0C114D10441F4EC85E4FFF4
S11316C005C0D194C194D1088DE201C08BE2B70169
S11316D090E00E94580E80E32AE0C216D1042CF058
S11316E08F5FFAE0CF1AD108F7CFB70190E00E94DC
S11316F0580EB701C601C0960E94580E54C18336D5
S113170031F0833779F0833509F056C020C0560193
S113171032E0A30EB11CF6018081898301E010E060
S1131720630112C05601F2E0AF0EB11CF601C08095
S1131730D18096FE03C0612F70E002C06FEF7FEF8F
S1131740C6010E944D0E8C01F92DFF7714C056017D
S113175022E0A20EB11CF601C080D18096FE03C027
S1131760612F70E002C06FEF7FEFC6010E94420E4E
S11317708C01F92DF0689F2EF3FD1AC0852D90E0A1
S113178008171907A8F4B70180E290E00E94580EE8
S11317905A94F4CFF60197FC859197FE81916F01DD
S11317A0B70190E00E94580E51105A94015011094B
S11317B00115110579F7F7C0843611F0893661F502
S11317C0560197FE09C024E0A20EB11CF601608107
S11317D07181828193810AC0F2E0AF0EB11CF601DF
S11317E060817181072E000C880B990BF92DFF760F
S11317F09F2E97FF09C090958095709561957F4FB6
S11318008F4F9F4FF0689F2E2AE030E0A3010E9483
S1131810B60EC82EC6183FC0092D853721F40F7E99
S11318202AE030E01DC0097F8F3691F018F4883526
S113183059F0C3C0803719F0883711F0BEC0006179
S113184004FF09C0046007C094FE08C0066006C017
S113185028E030E005C020E130E002C020E132E0C1
S1131860560107FF09C084E0A80EB11CF60160818F
S113187071818281938108C0F2E0AF0EB11CF60140
S11318806081718180E090E0A3010E94B60EC82EB1
S1131890C6180F77902E96FE0BC0092D0E7FC11629
S11318A050F494FE0AC092FC08C0092D0E7E05C0B7
S11318B0DC2C092D03C0DC2C01C0D12E04FF0DC08B
S11318C0FE01EC0DF11D8081803311F4097E09C005
S11318D002FF06C0D394D39404C0802F867809F005
S11318E0D39403FD11C000FF06C01C2DD51480F451
S11318F0150D1D190DC0D51458F4B70180E290E000
S11319000E94580ED394F7CFD51410F45D1801C07B
S1131910512C04FF10C0B70180E390E00E94580EE0
S113192002FF17C001FD03C088E790E002C088E50C
S113193090E0B7010CC0802F867859F001FF02C0F7
S11319408BE201C080E207FD8DE2B70190E00E94C6
S1131950580EC11638F4B70180E390E00E94580E87
S11319601150F7CFCA94F301EC0DF11D8081B7013A
S113197090E00E94580EC110F5CF15C0F4E0F515A3
S113198060F584E0581A93FE1FC0011127C02C850E
S113199023FF2AC00AEF11E0392D3071932EF8018C
S11319A08491811124C0552009F4E4CCB70180E26C
S11319B090E00E94580E5A94F6CFF70186819781E1
S11319C026C08FEF9FEF23C0B70180E290E00E9412
S11319D0580E5A945110F8CFD8CF512CB701802FFC
S11319E090E00E94580ED3CF0EEF11E0D5CF9110A6
S11319F08052B70190E00E94580E0F5F1F4FCFCF67
S1131A0023E0251510F483E0BDCF512CC0CF6096A0
S1131A10E2E10C944F0DA1E21A2EAA1BBB1BFD019F
S1131A200DC0AA1FBB1FEE1FFF1FA217B307E407B9
S1131A30F50720F0A21BB30BE40BF50B661F771F11
S1131A40881F991F1A9469F76095709580959095F1
S1131A509B01AC01BD01CF010895EE0FFF1F05905E
S1131A60F491E02D09942F923F924F925F926F92DE
S1131A707F928F929F92AF92BF92CF92DF92EF921A
S1131A80FF920F931F93CF93DF93CDB7DEB7CA1B9B
S1131A90DB0B0FB6F894DEBF0FBECDBF09942A88C6
S1131AA0398848885F846E847D848C849B84AA846E
S1131AB0B984C884DF80EE80FD800C811B81AA81FB
S1131AC0B981CE0FD11D0FB6F894DEBF0FBECDBFC6
S1131AD0ED010895283008F027E03327DA01990F43
S1131AE0311D87FD916000966105710539F43260FE
S1131AF02E5F3D9330E32A95E1F708959F3F30F040
S1131B0080387105610509F03C5F3C5F3D9391307D
S1131B1008F08068911DDF93CF931F930F93FF927A
S1131B20EF92192F987F9695E92F96959695E90F40
S1131B30FF27E45AFD4F99273327EE24FF24A701FA
S1131B40E70105900894079428F4360FE71EF81E61
S1131B50491F511D660F771F881F991F0694A1F70F
S1131B600590079428F4E70EF81E491F561FC11D5F
S1131B70770F881F991F661F0694A1F70590079495
S1131B8028F4F80E491F561FC71FD11D880F991F2F
S1131B90661F771F0694A1F70590079420F4490F58
S1131BA0561FC71FD81F990F661F771F881F0694DB
S1131BB0A9F784911095177041F0D695C79557955C
S1131BC04795F794E7941A95C1F7E2E0F2E0689438
S1131BD01590159135916591959105907FE27395D6
S1131BE0E118F10A430B560BC90BD009C0F7E10CFD
S1131BF0F11E431F561FC91FD01D7EF4703311F40C
S1131C008A95E6CFE894015030F0080F0AF40027D3
S1131C10021708F4202F2395022F7A3328F079E352
S1131C207D932A95E9F710C07D932A9589F6069449
S1131C3097956795379517951794E118F10A430B13
S1131C40560BC90BD00998F023957E9173957A337E
S1131C5008F070E37C932013B8F77E9170617D9354
S1131C6030F0839571E37D9370E32A95E1F71124B5
S1131C70EF90FF900F911F91CF91DF91992787FDEE
S1131C8090950895FC010590615070400110D8F7BB
S1131C90809590958E0F9F1F0895FC0161507040B0
S1131CA001900110D8F7809590958E0F9F1F08958D
S1131CB00F931F93CF93DF93FB01238121FD03C077
S1131CC08FEF9FEF2CC022FF16C0468157812481DD
S1131CD035814217530744F4A081B1819D012F5FE0
S1131CE03F4F318320838C93268137812F5F3F4F71
S1131CF03783268314C08B01EC01FB010084F1853A
S1131D00E02D0995892BE1F6D80116968D919C91C9
S1131D101797019617969C938E931697CE01DF9191
S1131D20CF911F910F910895AEE0B0E0EAE9FEE093
S1131D300C94410D0D891E8986E08C831A830983D6
S1131D408FEF9FE79E838D83AE01475E5F4F6F8960
S1131D50788DCE0101960E948E09EF81F885E00FFF
S1131D60F11F10822E96E4E00C945D0DFA01AA276F
S1131D70283051F1203181F1E8946F936E7F6E5FCA
S1131D807F4F8F4F9F4FAF4FB1E03ED0B4E03CD078
S1131D90670F781F891F9A1FA11D680F791F8A1F5B
S1131DA0911DA11D6A0F711D811D911DA11D20D0C2
S1131DB009F468943F912AE0269F11243019305D7C
S1131DC03193DEF6CF010895462F4770405D41936D
S1131DD0B3E00FD0C9F7F6CF462F4F70405D4A33BA
S1131DE018F0495D31FD4052419302D0A9F7EACF82
S1131DF0B4E0A6959795879577956795BA95C9F7B1
S1131E0000976105710508959B01AC010A2E0694A3
S1131E105795479537952795BA95C9F7620F731F5C
S1131E20841F951FA01D0895A8E1B0E042E050E092
S1131E300C941C0FDC01CB01FC01F999FECF06C008
S1131E40F2BDE1BDF89A319600B40D924150504074
S10B1E50B8F70895F894FFCFE0
S1131E586D7075363035302063616C6962726174F7
S1131E68696F6E2076616C7565732025642025641E
S1131E782025642025642025642025640A007365D0
S1131E8874757020646F6E650A0063757272656E8E
S1131E9874206D696C6C697320256C640A00726126
S1131EA877092564092564092564092564092564D5
S1131EB80925640925640925640925640A007270E2
S1131EC879092566092566092566097265616469C3
S10B1ED86E67730925640A001A
S9030000FC
