S0110000696361726F5F696D752E737265635B
S11300000C94FD000C940F010C940F010C940F013F
S11300100C940F010C940F010C940F010C940F011C
S11300200C940F010C940F010C940F010C940F010C
S11300300C940F010C940F010C940F010C940F01FC
S11300400C940F010C940F010C940F010C940F01EC
S11300500C940F010C940F010C940F010C940F01DC
S11300600C9423010C940F012F0233023302330248
S113007033023302330233024301330233023302C5
S113008033023302330233024301330233023302B5
S113009033023302330233024B013302330233029D
S11300A03302330233023302710133023302330267
S11300B033023302330233024B013302330233027D
S11300C03302330233023302770133023302330241
S11300D033023302330233027D013302330233022B
S11300E033023302330233028F0133023302330209
S11300F03302330233023302B901330233023302CF
S113010033023302330233028301330233023302F4
S113011033023302330233029D01330233023302CA
S11301203302330233023302BC013302330233029B
S11301303302330233023302BC013302330233028B
S11301403302330233023302BC013302330233027B
S11301503302330233023302BC013302330233026B
S11301603302330233023302C50133023302330252
S11301703302330233023302F60133023302330211
S11301803302330233023302C50133023302330232
S11301903302330233023302F601330233023302F1
S11301A03302330233023302DD01330233023302FA
S11301B03302330233023302FA01330233023302CD
S11301C03302330233023302FA01330233023302BD
S11301D033023302330233020F0233023302330297
S11301E0330233023302330229023302330233026D
S11301F03302330233023302290211241FBECFEF2C
S1130200D8E0DEBFCDBF21E0A0E0B1E001C01D9287
S1130210AE36B207E1F70E9411010C944A020C9425
S11302200000FFCF85ED8093BC00ECEBF0E0808113
S113023084FDFDCF10926D01089585EC8093BC0080
S113024010926D0108951F920F920FB60F92112410
S11302502F933F934F935F936F937F938F939F93CA
S1130260AF93BF93EF93FF938091B900E82FE87F9A
S11302708E2F90E0893C910508F0F5C0FC01EC5C00
S1130280FF4F0C94440280916A018093BB0085EC7B
S11302908093BC00E8C09091480180914701981771
S11302A080F4E091480181E08E0F80934801F0E0F2
S11302B0E75BFE4F80818093BB0085EC8093BC009C
S11302C0D2C080916C01882319F00E941201CBC026
S11302D081E080936B0184EA8093BC0010926D01ED
S11302E0C2C080E2809369010E941201BCC080E315
S11302F0809369010E941201B6C088E3809369016A
S11303000E941D01B0C0E091480181E08E0F8093EE
S113031048018091BB00F0E0E75BFE4F8083909141
S1130320480180914701981720F485EC8093BC0024
S11303309AC085E88093BC0096C0E091480181E0B2
S11303408E0F809348018091BB00F0E0E75BFE4F85
S1130350808380916C01882319F00E94120183C06C
S113036081E080936B0184EA8093BC0010926D015C
S11303707AC00E94120177C083E080936D011092CD
S1130380040185EC8093BC006EC08091040180322E
S113039080F4E091040181E08E0F80930401809148
S11303A0BB00F0E0EB5FFE4F808385EC8093BC00E4
S11303B05AC085E88093BC0056C00E941D018091FC
S11303C00401803230F4E0910401F0E0EB5FFE4F71
S11303D010826091040170E0E0910001F09101014C
S11303E085E091E00995109204013DC085E8809371
S11303F0BC0039C084E080936D01109226011092F4
S11304002501E0910201F0910301099580912501F4
S1130410811105C081E08093250110922701E091AC
S1130420260181E08E0F80932601F0E0E95DFE4F06
S113043080818093BB0090912601809125019817BB
S113044020F485EC8093BC000EC085E88093BC004A
S11304500AC085EC8093BC0010926D0104C0109218
S113046069010E941201FF91EF91BF91AF919F9199
S11304708F917F916F915F914F913F912F910F9049
S11304800FBE0F901F901895EE0FFF1F0590F4916B
S10B0490E02D0994F894FFCF5C
S9030000FC
