S0110000696361726F5F696D752E737265635B
S11300000C947E010C949B010C949B010C949B0119
S11300100C949B010C949B010C949B010C949B01EC
S11300200C949B010C949B010C949B010C94E70190
S11300300C949B010C949B010C949B010C949B01CC
S11300400C949B010C949B010C9400060C942B06BD
S11300500C949B010C949B010C949B010C949B01AC
S11300600C94DF040C949B01EB05EF05EF05EF0501
S1130070EF05EF05EF05EF05FF04EF05EF05EF05CD
S1130080EF05EF05EF05EF05FF04EF05EF05EF05BD
S1130090EF05EF05EF05EF050705EF05EF05EF05A4
S11300A0EF05EF05EF05EF052D05EF05EF05EF056E
S11300B0EF05EF05EF05EF050705EF05EF05EF0584
S11300C0EF05EF05EF05EF053305EF05EF05EF0548
S11300D0EF05EF05EF05EF053905EF05EF05EF0532
S11300E0EF05EF05EF05EF054B05EF05EF05EF0510
S11300F0EF05EF05EF05EF057505EF05EF05EF05D6
S1130100EF05EF05EF05EF053F05EF05EF05EF05FB
S1130110EF05EF05EF05EF055905EF05EF05EF05D1
S1130120EF05EF05EF05EF057805EF05EF05EF05A2
S1130130EF05EF05EF05EF057805EF05EF05EF0592
S1130140EF05EF05EF05EF057805EF05EF05EF0582
S1130150EF05EF05EF05EF057805EF05EF05EF0572
S1130160EF05EF05EF05EF058105EF05EF05EF0559
S1130170EF05EF05EF05EF05B205EF05EF05EF0518
S1130180EF05EF05EF05EF058105EF05EF05EF0539
S1130190EF05EF05EF05EF05B205EF05EF05EF05F8
S11301A0EF05EF05EF05EF059905EF05EF05EF0501
S11301B0EF05EF05EF05EF05B605EF05EF05EF05D4
S11301C0EF05EF05EF05EF05B605EF05EF05EF05C4
S11301D0EF05EF05EF05EF05CB05EF05EF05EF059F
S11301E0EF05EF05EF05EF05E505EF05EF05EF0575
S11301F0EF05EF05EF05EF05E5056E616E00696E2D
S1130200660000407A10F35A00A0724E18090010DC
S1130210A5D4E80000E87648170000E40B54020077
S113022000CA9A3B000000E1F505000080969800A2
S1130230000040420F000000A086010000001027CB
S113024000000000E803000000006400000000005B
S11302500A00000000000100000000002C76D8888D
S1130260DC674F0823DFC1DFAE59E1B1B796E5E3A0
S1130270E453C63AE651997696E8E6C28426EB89B9
S11302808C9B62ED407C6FFCEFBC9C9F40F2BAA556
S11302906FA5F490055A2AF75C936B6CF9676DC1EE
S11302A01BFCE0E40D47FEF520E6B500D0ED902EF2
S11302B00300943577050080841E080000204E0A50
S11302C0000000C80C333333330F986E128311418E
S11302D0EF8D2114893BE65516CFFEE6DB18D18459
S11302E04B381BF77C1D901DA4BBE4242032847280
S11302F05E228100C9F124ECA1E53D2711241FBE33
S1130300CFEFD8E0DEBFCDBF11E0A0E0B1E0E4E381
S1130310F8E102C005900D92A032B107D9F722E0AE
S1130320A0E2B1E001C01D92A33BB207E1F70E9435
S1130330AF010C94180C0C94000060E074E284EF9C
S113034090E00E940C0280E190E00E9455060E9419
S1130350DC03789480E091E00E9483060895CF93B3
S1130360DF93CDB7DEB7A0970FB6F894DEBF0FBE0C
S1130370CDBF0E949D018E010F5F1F4F80E2F801E7
S113038011928A95E9F70F2EF8EEEF2EF3E0FF2E87
S1130390F02D26E046E065E788E60E949E03898109
S11303A01F928F938DE091E09F938F9380E291E071
S11303B09F938F930E94980B80E291E00E948306A2
S11303C00F900F900F900F900F900F90FFCF1F92F0
S11303D00F920FB60F9211248F939F93AF93BF93F5
S11303E080916F0290917002A0917102B09172029B
S11303F00196A11DB11D80936F0290937002A0938A
S11304007102B0937202BF91AF919F918F910F903F
S11304100FBE0F901F90189520E43FE140E050E09C
S11304200E940F0AE1E8F0E080818A608083BB27A4
S1130430A52F942F832F8093890020938800EFE6C3
S1130440F0E08081826080830895F89460916F0267
S11304507091700280917102909172027894089563
S113046091E09093B6018093B9011092B801109273
S1130470B70108950F93082F21E04091B70163E974
S113048072E08091B9010E9444041092B801109264
S1130490B7011092B6010F910895CF93DF931F9285
S11304A0CDB7DEB789838091B6018823A1F080910E
S11304B0B7018032C0F48091B801E82FF0E0ED5626
S11304C0FD4F998190838F5F8093B8018093B7012A
S11304D081E090E00AC061E0CE0101960E94A4048C
S11304E081E090E002C080E090E00F90DF91CF9136
S11304F008958F929F92AF92BF92EF920F931F93A2
S1130500CF93DF93182FD62F49015A01002309F105
S11305100E943002043008F003E0CFEFC00F002344
S1130520A9F08C2F880F880F880FA501940104C0AF
S113053056954795379527958A95D2F7DA01C901DB
S11305400E944D028C2FC1508111EBCF80E00E949C
S11305503A024D2FD13208F040E22E2D63E772E0CB
S1130560812F0E94F2031092BB018093BA01DF91A4
S1130570CF911F910F91EF90BF90AF909F908F906C
S113058008958091BA0190E02091BB01821B9109EA
S113059008959091BB018091BA01981750F4E92F06
S11305A0F0E0ED58FD4F208130E09F5F9093BB0158
S11305B002C02FEF3FEFC90108952F923F924F924F
S11305C05F926F927F928F929F92AF92BF92CF92DF
S11305D0DF92EF92FF920F931F93CF93DF93CDB7E8
S11305E0DEB728970FB6F894DEBF0FBECDBFF82E46
S11305F06D83842E590168010E9425022B013C0160
S1130600882009F45AC0912C10E0282C312C960132
S113061040E050E029833A834B835C838E828F2DA4
S11306200E9430028D810E944D0281E00E943A02B4
S11306308F2D0E943002C1018919910980971CF401
S1130640682D691901C060E2EE24E39400E020E023
S113065030E0A9018F2D0E9479020DC0A501410F40
S1130660511D17FD5A9558874F830E94C902AF81C7
S1130670B8858C931F5F0E94C102892BA1F0C1141D
S1130680D10461F30E942502DC01CB018419950990
S1130690A609B70929813A814B815C8182179307A6
S11306A0A407B507D8F28E8130E2381508F480E249
S11306B0980E981408F4B3CF01C010E0C114D1040B
S11306C0C9F00E942502AB01BC0144195509660911
S11306D07709C601A0E0B0E0481759076A077B070D
S11306E048F0912C812F012E000C990B8815990547
S11306F00CF41FEF812F28960FB6F894DEBF0FBEBF
S1130700CDBFDF91CF911F910F91FF90EF90DF90BC
S1130710CF90BF90AF909F908F907F906F905F909D
S11307204F903F902F9008950F931F9389019A0142
S113073041E00E94DD021F910F910895CF92DF9254
S1130740EF92FF920F931F93CF93DF931F92CDB736
S1130750DEB7D42EC22E9701AE014F5F5F4F0E94C9
S113076094038823F9F04D2D50E04C1951094F5F43
S11307705F4F21E030E002C0220F331FCA94E2F73A
S113078021503109042E02C0220F331F0A94E2F7CC
S11307909981292330E002C0359527954A95E2F7DF
S11307A0F80120830F90DF91CF911F910F91FF905B
S11307B0EF90DF90CF9008951092290281E080930A
S11307C0280210922702E9EBF0E080818E7F80837B
S11307D080818D7F808388E48093B80085E4809352
S11307E0BC000895413208F04CC090912902911147
S11307F0FCCF31E030932902209328022FEF20937D
S1130800250210920002240F2093FF013093260248
S113081020912602880F822B809326028091270242
S1130820813081F410922702ABEBB0E0ECEBF0E006
S1130830809126028C93808183FDFACF85EC80938E
S1130840BC0003C085EE8093BC00809129028130F6
S1130850E1F380910002841710F4409100024423D4
S113086089F0E1E0F2E0A62FB72F2FEF240F30E05C
S11308702E5F3D4F81918D93E217F307D9F7942FA3
S113088001C090E0892F08950F93413208F054C0BD
S1130890309129023111FCCF92E090932902009308
S11308A028029FEF90932502109200024093FF01CB
S11308B0442371F0FB01A1E0B2E0415050E04F5FEE
S11308C05F4F640F751F91919D93E617F707D9F752
S11308D01092260290912602880F892B809326027B
S11308E080912702882369F010922702ABEBB0E0D5
S11308F0ECEBF0E0909126029C93908193FDFACF6B
S113090003C085EE8093BC00222341F0809129022C
S1130910823021F4809129028230E1F38091250212
S11309208F3F79F080912502803241F08091250239
S1130930803331F034E005C031E003C032E001C05F
S113094033E0832F0F9108954091DD01262F30E08D
S1130950240F311D21323105ECF420912902243079
S1130960D9F4662381F0A82FB92F80E090E030916C
S1130970DD012D91FC01E152FE4FE30FF11D2083B7
S113098001968617A0F38091DD01680F6093DD0165
S113099080E0089581E0089582E0089585ED8093D4
S11309A0BC00ECEBF0E0808184FDFDCF10922902C5
S11309B0089585EC8093BC001092290208951F923B
S11309C00F920FB60F9211242F933F934F935F937F
S11309D06F937F938F939F93AF93BF93EF93FF9303
S11309E08091B900E82FE87F8E2F90E0893C910533
S11309F008F0F5C0FC01EC5CFF4F0C94310A8091C7
S1130A0026028093BB0085EC8093BC00E8C09091E3
S1130A1000028091FF01981780F4E091000281E0C8
S1130A208E0F80930002F0E0EF5FFD4F8081809392
S1130A30BB0085EC8093BC00D2C08091280288233F
S1130A4019F00E94CE04CBC081E08093270284EA8F
S1130A508093BC0010922902C2C080E280932502D8
S1130A600E94CE04BCC080E3809325020E94CE0481
S1130A70B6C088E3809325020E94D904B0C0E091F7
S1130A80000281E08E0F809300028091BB00F0E0B1
S1130A90EF5FFD4F8083909100028091FF019817D2
S1130AA020F485EC8093BC009AC085E88093BC0058
S1130AB096C0E091000281E08E0F80930002809145
S1130AC0BB00F0E0EF5FFD4F808380912802882314
S1130AD019F00E94CE0483C081E08093270284EA47
S1130AE08093BC00109229027AC00E94CE0477C081
S1130AF083E0809329021092BC0185EC8093BC00B2
S1130B006EC08091BC01803280F4E091BC0181E030
S1130B108E0F8093BC018091BB00F0E0E354FE4F44
S1130B20808385EC8093BC005AC085E88093BC0028
S1130B3056C00E94D9048091BC01803230F4E09107
S1130B40BC01F0E0E354FE4F10826091BC0170E000
S1130B50E0912102F09122028DEB91E0099510922F
S1130B60BC013DC085E88093BC0039C084E080931B
S1130B7029021092DE011092DD01E0912302F0912E
S1130B80240209958091DD01811105C081E08093E3
S1130B90DD011092DF01E091DE0181E08E0F809390
S1130BA0DE01F0E0E152FE4F80818093BB00909122
S1130BB0DE018091DD01981720F485EC8093BC0060
S1130BC00EC085E88093BC000AC085EC8093BC000D
S1130BD01092290204C0109225020E94CE04FF91B3
S1130BE0EF91BF91AF919F918F917F916F915F91A1
S1130BF04F913F912F910F900FBE0F901F9018951A
S1130C001F920F920FB60F9211242F938F939F93DD
S1130C10EF93FF938091C0002091C6008871E0910A
S1130C202C02EF5FEF7190912B02E91739F0E093FA
S1130C302C02F0E0E15DFD4F208301C082E080934F
S1130C402A02FF91EF919F918F912F910F900FBEE8
S1130C500F901F9018951F920F920FB60F921124A8
S1130C608F939F93EF93FF9390912E0280912D0287
S1130C70981769F0E0912D02EF5FEF71E0932D0278
S1130C80F0E0E15BFD4F80818093C60005C0E1EC9C
S1130C90F0E080818F7D8083FF91EF919F918F9110
S1130CA00F900FBE0F901F90189510922E02109265
S1130CB02D0210922C0210922B02992324F422E08C
S1130CC02093C0009F779093C5008093C40088E967
S1130CD08093C10086E08093C200089520912E0283
S1130CE02F5F2F7190912D022917E1F3E22FF0E08D
S1130CF0E15BFD4F808320932E02E1ECF0E08081E4
S1130D00806280830895CF93DF93EC0188818823E8
S1130D1031F021960E946E0689918111FBCFDF91FB
S1130D20CF910895A0E1B0E0E8E9F6E00C94370A29
S1130D307C011B016A01FC0117821682838181FFF9
S1130D4044C39E012F5F3F4F3901F7019381F101A5
S1130D5093FD859193FF81911F01882309F431C389
S1130D60853239F493FD859193FF81911F0185327A
S1130D7039F4B70190E00E945C0B56016501E5CFA0
S1130D8010E0512C912CFFE1F915D8F08B3279F059
S1130D9038F4803279F08332A1F4F92DF0612EC059
S1130DA08D3261F0803369F4292D21602DC0392DF5
S1130DB03260932E892D8460982E2AC0E92DE86034
S1130DC015C097FC2DC020ED280F2A3088F496FE1C
S1130DD006C03AE0139F200D1124122F19C08AE097
S1130DE0589E200D1124522EE92DE0629E2E10C033
S1130DF08E3231F496FCE5C2F92DF0649F2E08C0C2
S1130E008C3621F4292D2068922E02C0883641F4B4
S1130E10F10193FD859193FF81911F018111B3CF5E
S1130E209BEB980F933020F4992D9061805E07C05E
S1130E309BE9980F933008F066C1992D9F7E96FF29
S1130E4016E09F73992E853619F49064992E08C084
S1130E50863621F4392F3068932E02C011111150B7
S1130E6097FE07C01C3350F444244394410E27E0FA
S1130E700BC0183038F027E017E005C027E09CE3EA
S1130E80492E02C0212F412C560184E0A80EB11C2A
S1130E90F6016081718182819381042DA3010E94F6
S1130EA06E0A6C01F981FC87F0FF02C0F3FF06C0F3
S1130EB091FC06C092FE06C000E205C00DE203C02C
S1130EC00BE201C000E08C858C7019F001115AC24C
S1130ED09BC297FE10C04C0CFC85F4FF04C08A81B1
S1130EE0813309F44A94141474F528E0241578F530
S1130EF088E0482E2CC096FC2AC0812F90E08C15E7
S1130F009D059CF03CEFC3163FEFD30674F0892D8A
S1130F108068982E0AC0E2E0F0E0EC0FFD1FE10FBC
S1130F20F11D8081803319F411501111F4CF97FE13
S1130F300EC044244394410E812F90E0C816D90674
S1130F402CF41C1904C04424439401C010E097FEFF
S1130F5006C01C141D0434F4C601019605C085E0C6
S1130F6090E002C081E090E001110196112331F07C
S1130F70212F30E02F5F3F4F820F931F252D30E04C
S1130F808217930714F4581A01C0512C892D8970C3
S1130F9049F4552039F0B70180E290E00E945C0BDF
S1130FA05A94F7CF002329F0B701802F90E00E94D4
S1130FB05C0B93FC09C0552039F0B70180E390E045
S1130FC00E945C0B5A94F7CF97FE4CC04601D7FEA3
S1130FD002C0812C912CC60188199909F301E80FEC
S1130FE0F91FFE87ED87960124193109388B2F8765
S1130FF0012F10E01195019511093FEF8316930617
S113100029F4B7018EE290E00E945C0BC814D90465
S11310104CF08F8598898815990524F4ED85FE8513
S1131020818101C080E3F1E08F1A91082D853E850E
S11310302F5F3F4F3E872D87801691062CF0B70116
S113104090E00E945C0BD9CFC814D90441F49A8172
S1131050963320F4953319F43C8534FF81E3B701CA
S113106090E04EC08A81813319F09C859F7E9C87D5
S1131070B70190E00E945C0B111105C094FC18C0EC
S113108085E690E017C0B7018EE290E00E945C0B09
S11310901E5F82E001E0080FF301E80FF11D80817B
S11310A0B70190E00E945C0B802F0113F3CFE6CFD1
S11310B085E490E0B7010E945C0BD7FC06C0C11424
S11310C0D10441F4EC85E4FF05C0D194C194D10866
S11310D08DE201C08BE2B70190E00E945C0B80E3DB
S11310E02AE0C216D1042CF08F5FFAE0CF1AD1089F
S11310F0F7CFB70190E00E945C0BB701C601C09620
S11311000E945C0B54C1833631F0833779F0833508
S113111009F056C020C0560132E0A30EB11CF601FE
S11311208081898301E010E0630112C05601F2E07E
S1131130AF0EB11CF601C080D18096FE03C0612FB2
S113114070E002C06FEF7FEFC6010E94510B8C016B
S1131150F92DFF7714C0560122E0A20EB11CF6014E
S1131160C080D18096FE03C0612F70E002C06FEF93
S11311707FEFC6010E94460B8C01F92DF0689F2E6B
S1131180F3FD1AC0852D90E008171907A8F4B701DC
S113119080E290E00E945C0B5A94F4CFF60197FC35
S11311A0859197FE81916F01B70190E00E945C0BDD
S11311B051105A94015011090115110579F7F7C01E
S11311C0843611F0893661F5560197FE09C024E092
S11311D0A20EB11CF60160817181828193810AC0E3
S11311E0F2E0AF0EB11CF60160817181072E000C94
S11311F0880B990BF92DFF769F2E97FF09C09095C8
S11312008095709561957F4F8F4F9F4FF0689F2E0B
S11312102AE030E0A3010E94BA0BC82EC6183FC0D2
S1131220092D853721F40F7E2AE030E01DC0097FA7
S11312308F3691F018F4883559F0C3C0803719F00F
S1131240883711F0BEC0006104FF09C0046007C004
S113125094FE08C0066006C028E030E005C020E126
S113126030E002C020E132E0560107FF09C084E00B
S1131270A80EB11CF601608171818281938108C03E
S1131280F2E0AF0EB11CF6016081718180E090E064
S1131290A3010E94BA0BC82EC6180F77902E96FE93
S11312A00BC0092D0E7FC11650F494FE0AC092FCA7
S11312B008C0092D0E7E05C0DC2C092D03C0DC2CD2
S11312C001C0D12E04FF0DC0FE01EC0DF11D808183
S11312D0803311F4097E09C002FF06C0D394D3946D
S11312E004C0802F867809F0D39403FD11C000FF59
S11312F006C01C2DD51480F4150D1D190DC0D51470
S113130058F4B70180E290E00E945C0BD394F7CFCD
S1131310D51410F45D1801C0512C04FF10C0B7019E
S113132080E390E00E945C0B02FF17C001FD03C044
S113133088E790E002C088E590E0B7010CC0802FF8
S1131340867859F001FF02C08BE201C080E207FDFC
S11313508DE2B70190E00E945C0BC11638F4B7012E
S113136080E390E00E945C0B1150F7CFCA94F30124
S1131370EC0DF11D8081B70190E00E945C0BC1105F
S1131380F5CF15C0F4E0F51560F584E0581A93FE26
S11313901FC0011127C02C8523FF2AC00AEF11E0CA
S11313A0392D3071932EF8018491811124C0552078
S11313B009F4E4CCB70180E290E00E945C0B5A94FB
S11313C0F6CFF7018681978126C08FEF9FEF23C068
S11313D0B70180E290E00E945C0B5A945110F8CF60
S11313E0D8CF512CB701802F90E00E945C0BD3CF53
S11313F00EEF11E0D5CF91108052B70190E00E941A
S11314005C0B0F5F1F4FCFCF23E0251510F483E053
S1131410BDCF512CC0CF6096E2E10C94530AA1E2F7
S11314201A2EAA1BBB1BFD010DC0AA1FBB1FEE1F5A
S1131430FF1FA217B307E407F50720F0A21BB30BA5
S1131440E40BF50B661F771F881F991F1A9469F721
S113145060957095809590959B01AC01BD01CF017D
S11314600895EE0FFF1F0590F491E02D09942F923B
S11314703F924F925F926F927F928F929F92AF9220
S1131480BF92CF92DF92EF92FF920F931F93CF936D
S1131490DF93CDB7DEB7CA1BDB0B0FB6F894DEBF04
S11314A00FBECDBF09942A88398848885F846E842A
S11314B07D848C849B84AA84B984C884DF80EE8074
S11314C0FD800C811B81AA81B981CE0FD11D0FB67D
S11314D0F894DEBF0FBECDBFED010895283008F0AB
S11314E027E03327DA01990F311D87FD91600096BB
S11314F06105710539F432602E5F3D9330E32A951E
S1131500E1F708959F3F30F080387105610509F0D7
S11315103C5F3C5F3D93913008F08068911DDF9300
S1131520CF931F930F93FF92EF92192F987F969565
S1131530E92F96959695E90FFF27E45AFD4F9927D1
S11315403327EE24FF24A701E701059008940794AC
S113155028F4360FE71EF81E491F511D660F771F2A
S1131560881F991F0694A1F70590079428F4E70EA5
S1131570F81E491F561FC11D770F881F991F661F2C
S11315800694A1F70590079428F4F80E491F561FF6
S1131590C71FD11D880F991F661F771F0694A1F7D7
S11315A00590079420F4490F561FC71FD81F990FA1
S11315B0661F771F881F0694A9F7849110951770EA
S11315C041F0D695C79557954795F794E7941A95A2
S11315D0C1F7E2E0F2E068941590159135916591B8
S11315E0959105907FE27395E118F10A430B560B30
S11315F0C90BD009C0F7E10CF11E431F561FC91FC8
S1131600D01D7EF4703311F48A95E6CFE89401502E
S113161030F0080F0AF40027021708F4202F23954E
S1131620022F7A3328F079E37D932A95E9F710C0E5
S11316307D932A9589F6069497956795379517951E
S11316401794E118F10A430B560BC90BD00998F013
S113165023957E9173957A3308F070E37C9320137D
S1131660B8F77E9170617D9330F0839571E37D933B
S113167070E32A95E1F71124EF90FF900F911F91E9
S1131680CF91DF91992787FD90950895FC010590EE
S1131690615070400110D8F7809590958E0F9F1F70
S11316A00895FC016150704001900110D8F78095B5
S11316B090958E0F9F1F08950F931F93CF93DF93E1
S11316C0FB01238121FD03C08FEF9FEF2CC022FF7C
S11316D016C046815781248135814217530744F44B
S11316E0A081B1819D012F5F3F4F318320838C9373
S11316F0268137812F5F3F4F3783268314C08B01A8
S1131700EC01FB010084F185E02D0995892BE1F6BC
S1131710D80116968D919C911797019617969C93D4
S11317208E931697CE01DF91CF911F910F9108955B
S1131730AEE0B0E0EEE9FBE00C94450A0D891E89A9
S113174086E08C831A8309838FEF9FE79E838D83C2
S1131750AE01475E5F4F6F89788DCE0101960E947E
S11317609206EF81F885E00FF11F10822E96E4E0D7
S11317700C94610AFA01AA27283051F1203181F131
S1131780E8946F936E7F6E5F7F4F8F4F9F4FAF4F85
S1131790B1E03ED0B4E03CD0670F781F891F9A1F98
S11317A0A11D680F791F8A1F911DA11D6A0F711D4C
S11317B0811D911DA11D20D009F468943F912AE058
S11317C0269F11243019305D3193DEF6CF01089540
S11317D0462F4770405D4193B3E00FD0C9F7F6CF71
S11317E0462F4F70405D4A3318F0495D31FD405239
S11317F0419302D0A9F7EACFB4E0A69597958795CF
S113180077956795BA95C9F70097610571050895AD
S11318109B01AC010A2E0694579547953795279559
S1131820BA95C9F7620F731F841F951FA01D0895F1
S1071830F894FFCF56
S113183473657475702066696E697368006D70757C
S11318443630353020616464726573732025640016
S9030000FC
