:100000000C94B3010C94C5010C94C5010C94C5016A
:100010000C94C5010C94C5010C94C5010C94C50148
:100020000C94C5010C94C5010C94C5010C940119E4
:100030000C94C5010C94C5010C94C5010C94C50128
:100040000C94C5010C94C5010C94C5010C94C50118
:100050000C94C5010C94C5010C94C5010C94C50108
:100060000C94211D0C94C501036EDB363D9A9999C1
:10007000993DABAAAA2A3E000000803F084AD73B20
:100080003BCE016E84BCBFFDC12F3D6C74319ABD67
:1000900056833DDA3D00C77F11BED9E4BB4C3E918B
:1000A0006BAAAABE000000803F072C7AA5BA6CC5D7
:1000B00090DA3B9365FC8BBC53F810FD3C56928361
:1000C0004DBD879D3AB63DCBC9BF5BBE73DA0FC944
:1000D0003F002D1E311E311E311E311E311E311EBC
:1000E000311E411D311E311E311E311E311E311E89
:1000F000311E411D311E311E311E311E311E311E79
:10010000311E491D311E311E311E311E311E311E60
:10011000311E6F1D311E311E311E311E311E311E2A
:10012000311E491D311E311E311E311E311E311E40
:10013000311E751D311E311E311E311E311E311E04
:10014000311E7B1D311E311E311E311E311E311EEE
:10015000311E8D1D311E311E311E311E311E311ECC
:10016000311EB71D311E311E311E311E311E311E92
:10017000311E811D311E311E311E311E311E311EB8
:10018000311E9B1D311E311E311E311E311E311E8E
:10019000311EBA1D311E311E311E311E311E311E5F
:1001A000311EBA1D311E311E311E311E311E311E4F
:1001B000311EBA1D311E311E311E311E311E311E3F
:1001C000311EBA1D311E311E311E311E311E311E2F
:1001D000311EC31D311E311E311E311E311E311E16
:1001E000311EF41D311E311E311E311E311E311ED5
:1001F000311EC31D311E311E311E311E311E311EF6
:10020000311EF41D311E311E311E311E311E311EB4
:10021000311EDB1D311E311E311E311E311E311EBD
:10022000311EF81D311E311E311E311E311E311E90
:10023000311EF81D311E311E311E311E311E311E80
:10024000311E0D1E311E311E311E311E311E311E5A
:10025000311E271E311E311E311E311E311E311E30
:10026000311E271E6E616E00696E660000407A10B6
:10027000F35A00A0724E18090010A5D4E80000E857
:100280007648170000E40B54020000CA9A3B0000B5
:1002900000E1F505000080969800000040420F0044
:1002A0000000A08601000000102700000000E80305
:1002B000000000006400000000000A0000000000D0
:1002C0000100000000002C76D888DC674F0823DF8F
:1002D000C1DFAE59E1B1B796E5E3E453C63AE65162
:1002E000997696E8E6C28426EB898C9B62ED407C89
:1002F0006FFCEFBC9C9F40F2BAA56FA5F490055A25
:100300002AF75C936B6CF9676DC11BFCE0E40D4749
:10031000FEF520E6B500D0ED902E0300943577056C
:100320000080841E080000204E0A000000C80C3324
:100330003333330F986E12831141EF8D2114893BB3
:10034000E65516CFFEE6DB18D1844B381BF77C1D33
:10035000901DA4BBE424203284725E228100C9F186
:1003600024ECA1E53D2711241FBECFEFD8E0DEBF6E
:10037000CDBF22E0A0E0B1E001C01D92A831B207DC
:10038000E1F70E9476110C94EE230C940000CF93B9
:10039000DF93EC0180E090E00E94C523998388837D
:1003A00082E090E00E94C5239B838A8384E090E0F2
:1003B0000E94C5239D838C8386E090E00E94C52324
:1003C0009F838E8388E090E00E94C5239987888769
:1003D0008AE090E00E94C5239B878A87DF91CF91B6
:1003E0000895CF93DF93EC016881798180E090E0FC
:1003F0000E94CB236A817B8182E090E00E94CB2324
:100400006C817D8184E090E00E94CB236E817F81AE
:1004100088E090E00E94CB236885798586E090E0B3
:100420000E94CB236A857B858AE090E00E94CB23E3
:10043000DF91CF91089580E090E0A0E2B1E4809355
:10044000310190933201A0933301B09334011092A3
:100450002D0110922E0110922F011092300180E098
:1004600090E0A0E8BFE38093290190932A01A09334
:100470002B01B0932C0110922501109226011092AD
:10048000270110922801109221011092220110924E
:1004900023011092240110921D0110921E0110924E
:1004A0001F01109220011092190110921A0110924E
:1004B0001B0110921C01109215011092160110924E
:1004C000170110921801109211011092120110924E
:1004D000130110921401109200018AE097EDA3EA33
:1004E000BBE380930D0190930E01A0930F01B09395
:1004F000100108958F929F92AF92BF92CF92DF9298
:10050000EF92FF926B017C0120E030E040E05FE37E
:100510000E942F184B015C01D701C601B595A79524
:10052000979587950F2EFFEDCF2EF9E5DF2EF7E398
:10053000EF2EFFE5FF2EF02DC81AD90AEA0AFB0AB2
:10054000A7019601C501B4010E942F18A7019601C9
:100550000E942F189B01AC0160E070E080EC9FE3EB
:100560000E94A415A70196010E942F186B017C011F
:100570009B01AC01C501B4010E942F18A70196018F
:100580000E942F189B01AC0160E070E080EC9FE3BB
:100590000E94A415A70196010E942F18FF90EF90CA
:1005A000DF90CF90BF90AF909F908F9008954F9223
:1005B0005F926F927F928F929F92AF92BF92CF92F3
:1005C000DF92EF92FF920F931F93CF93DF93CDB7FC
:1005D000DEB7A4970FB6F894DEBF0FBECDBF298754
:1005E0003A874B875C8729E33AEF4EE85CE30E9449
:1005F0002F186D877E878F87988B29E33AEF4EE817
:100600005CE369857A858B859C850E942F186987B4
:100610007A878B879C8729E33AEF4EE85CE3C80131
:10062000B7010E942F18698B7A8B8B8B9C8B20E0F3
:1006300030E0A901C601B5010E949E16811117C0C4
:1006400020E030E0A9016FA978AD89AD9AAD0E9494
:100650009E1681110CC020E030E0A9016BAD7CAD8D
:100660008DAD9EAD0E949E16882309F41FC2A6017F
:100670009501C601B5010E942F182B013C012FA93D
:1006800038AD49AD5AADCA01B9010E942F189B017E
:10069000AC01C301B2010E94A5152B013C012BAD99
:1006A0003CAD4DAD5EADCA01B9010E942F189B0152
:1006B000AC01C301B2010E94A5150E947A022B0170
:1006C0003C019B01AC01C601B5010E942F186D8B46
:1006D0007E8B8F8B988FA30192016FA978AD89AD26
:1006E0009AAD0E942F186D8F7E8F8F8F98A3A301D4
:1006F00092016BAD7CAD8DAD9EAD0E942F186D83C8
:100700007E838F8398878090250190902601A0900A
:100710002701B090280140901D0150901E0160906B
:100720001F0170902001C0902901D0902A01E09013
:100730002B01F0902C018091210190912201A09138
:100740002301B091240189839A83AB83BC83A301E5
:100750009201C501B4010E942F18698F7A8F8B8F87
:100760009C8F29813A814B815C81C701B6010E942F
:100770002F189B01AC01698D7A8D8B8D9C8D0E9409
:10078000A415698F7A8F8B8F9C8FA7019601C50165
:10079000B4010E942F184B015C0129813A814B81E1
:1007A0005C81C301B2010E942F189B01AC01C501FD
:1007B000B4010E94A51569837A838B839C83A7016A
:1007C0009601C701B6010E942F1820E030E040E0FA
:1007D0005FE30E94A4156B017C01A3019201C30198
:1007E000B2010E942F189B01AC01C701B6010E9403
:1007F000A5156B017C019B01AC016D8D7E8D8F8DEC
:1008000098A10E942F184B015C0129813A814B81EC
:100810005C816D817E818F8198850E942F189B015C
:10082000AC01C501B4010E94A41569A37AA38BA3EE
:100830009CA3298D3A8D4B8D5C8D6D817E818F813E
:1008400098850E942F184B015C01A70196016D89C4
:100850007E898F89988D0E942F189B01AC01C5015C
:10086000B4010E94A4156D837E838F8398872981AC
:100870003A814B815C816D897E898F89988D0E9438
:100880002F186B017C01298D3A8D4B8D5C8D6D8D00
:100890007E8D8F8D98A10E942F189B01AC01C701FE
:1008A000B6010E94A41569837A838B839C83C090D0
:1008B0002D01D0902E01E0902F01F090300120E02A
:1008C00030E0A901C701B6010E94221818160CF0E9
:1008D00091C080900D0190900E01A0900F01B090FA
:1008E0001001A701960169A17AA18BA19CA10E9488
:1008F0002F18A50194010E942F1820911901309101
:100900001A0140911B0150911C010E94A5156D8B8D
:100910007E8B8F8B988F6093190170931A0180934F
:100920001B0190931C01A70196016D817E818F812F
:1009300098850E942F18A50194010E942F182091DC
:1009400015013091160140911701509118010E9434
:10095000A5152B013C01609315017093160180933E
:10096000170190931801A701960169817A818B8103
:100970009C810E942F18A50194010E942F1820919C
:1009800011013091120140911301509114010E9404
:10099000A5156B017C016093110170931201809386
:1009A0001301909314012D893E894F89588D6D85CF
:1009B0007E858F8598890E94A5156D877E878F8794
:1009C000988BA301920169857A858B859C850E940D
:1009D000A51569877A878B879C87A7019601698906
:1009E0007A898B899C890E94A515698B7A8B8B8B60
:1009F0009C8B18C01092190110921A0110921B01C1
:100A000010921C01109215011092160110921701FC
:100A100010921801109211011092120110921301FC
:100A200010921401C0903101D0903201E090330156
:100A3000F0903401A701960169A17AA18BA19CA134
:100A40000E942F189B01AC016D857E858F8598894A
:100A50000E94A5156D877E878F87988BA7019601C9
:100A60006D817E818F8198850E942F189B01AC013A
:100A700069857A858B859C850E94A51569877A870B
:100A80008B879C87A701960169817A818B819C81E4
:100A90000E942F189B01AC0169897A898B899C89F6
:100AA0000E94A515698B7A8B8B8B9C8B20E030E0A4
:100AB00040E05FE360910D0170910E0180910F01A4
:100AC000909110010E942F186B017C019B01AC01D9
:100AD0006D857E858F8598890E942F1869837A831A
:100AE0008B839C83A701960169857A858B859C857C
:100AF0000E942F186D837E838F839887A7019601AC
:100B000069897A898B899C890E942F18698B7A8BD5
:100B10008B8B9C8B8091290190912A01A0912B01B4
:100B2000B0912C018D879E87AF87B88BC09025012F
:100B3000D0902601E0902701F090280180912101BA
:100B400090912201A0912301B091240189879A8775
:100B5000AB87BC8740901D0150901E0160901F0123
:100B600070902001C701B601905829813A814B81CC
:100B70005C810E942F184B015C0129853A854B85C9
:100B80005C856D817E818F8198850E942F189B01E5
:100B9000AC01C501B4010E94A4154B015C01A30185
:100BA000920169897A898B899C890E942F189B01FF
:100BB000AC01C501B4010E94A4152D853E854F8569
:100BC00058890E94A5156D8B7E8B8F8B988F2D85F4
:100BD0003E854F85588969817A818B819C810E94ED
:100BE0002F184B015C0129853A854B855C85698905
:100BF0007A898B899C890E942F189B01AC01C501C1
:100C0000B4010E94A5154B015C01A30192016D8105
:100C10007E818F8198850E942F189B01AC01C501B0
:100C2000B4010E94A415A70196010E94A5156D8F1D
:100C30007E8F8F8F98A32D853E854F8558896D8136
:100C40007E818F8198850E942F184B015C01A7013E
:100C5000960169897A898B899C890E942F189B014A
:100C6000AC01C501B4010E94A4154B015C01A301B4
:100C7000920169817A818B819C810E942F189B014E
:100C8000AC01C501B4010E94A51529853A854B85A3
:100C90005C850E94A515698F7A8F8B8F9C8F2D851F
:100CA0003E854F85588969897A898B899C890E94FC
:100CB0002F184B015C01A70196016D817E818F8108
:100CC00098850E942F189B01AC01C501B4010E94B8
:100CD000A5156B017C0129853A854B855C85698169
:100CE0007A818B819C810E942F189B01AC01C701E6
:100CF000B6010E94A415A30192010E94A5154B0103
:100D00005C012D893E894F89588DCA01B9010E9425
:100D10002F186B017C012D8D3E8D4F8D58A1CA017E
:100D2000B9010E942F189B01AC01C701B6010E94B6
:100D3000A5156B017C01298D3A8D4B8D5C8DCA0107
:100D4000B9010E942F189B01AC01C701B6010E9496
:100D5000A5156B017C01A5019401C501B4010E9498
:100D60002F189B01AC01C701B6010E94A5150E9476
:100D70007A026B017C019B01AC016D897E898F89B0
:100D8000988D0E942F186093290170932A018093F7
:100D90002B0190932C01A70196016D8D7E8D8F8D77
:100DA00098A10E942F1860932501709326018093CB
:100DB000270190932801A7019601698D7A8D8B8D6B
:100DC0009C8D0E942F1860932101709322018093C3
:100DD000230190932401A7019601C501B4010E944B
:100DE0002F1860931D0170931E0180931F01909333
:100DF000200110920001A4960FB6F894DEBF0FBE3A
:100E0000CDBFDF91CF911F910F91FF90EF90DF90B9
:100E1000CF90BF90AF909F908F907F906F905F909A
:100E20004F9008952F923F924F925F926F927F92D0
:100E30008F929F92AF92BF92CF92DF92EF92FF92EA
:100E40000F931F93CF93DF93CDB7DEB7C455D1096E
:100E50000FB6F894DEBF0FBECDBF69877A878B8748
:100E60009C8729013A01E98AFA8A0B8B1C8BAA9686
:100E7000FFACAA97AB96EFACAB97AC969FACAC9798
:100E8000AD968FACAD97AE961FADAE97AF960FAD4A
:100E9000AF97E0963FACE097E1962FACE19720E06A
:100EA00030E0A901E5966CAD7DAD8EAD9FADE597C7
:100EB0000E949E16811134C020E030E0A901E9961D
:100EC0006CAD7DAD8EAD9FADE9970E949E168111F0
:100ED00027C020E030E0A901ED966CAD7DAD8EAD70
:100EE0009FADED970E949E1681111AC02F923F92DE
:100EF0000F931F938F929F92EF92FF92E988FA8847
:100F00000B891C89A301920169857A858B859C8553
:100F10000E94D7020FB6F894DEBF0FBECDBF98C6B1
:100F200029E33AEF4EE85CE369857A858B859C85F9
:100F30000E942F186D8B7E8B8F8B988F29E33AEF51
:100F40004EE85CE3C301B2010E942F186D8F7E8FC3
:100F50008F8F98A329E33AEF4EE85CE369897A8999
:100F60008B899C890E942F18698B7A8B8B8B9C8B29
:100F700020E030E0A901C601B5010E949E16811152
:100F800017C020E030E0A9016F2D7E2D892D982D0E
:100F90000E949E1681110CC020E030E0A901612F53
:100FA000702F832D922D0E949E16882309F4ADC4C4
:100FB000A6019501C601B5010E942F182B013C0125
:100FC0002F2D3E2D492D582D6F2D7E2D892D982D9D
:100FD0000E942F189B01AC01C301B2010E94A5150C
:100FE0002B013C01212F302F432D522D612F702FCB
:100FF000832D922D0E942F189B01AC01C301B201D9
:101000000E94A5150E947A022B013C019B01AC01B4
:10101000C601B5010E942F1869AB7AAB8BAB9CABB4
:10102000A30192016F2D7E2D892D982D0E942F18DE
:101030006DAB7EAB8FAB98AFA3019201612F702F88
:10104000832D922D0E942F1869AF7AAF8BAF9CAF82
:10105000E5962CAD3DAD4EAD5FADE597CA01B9014A
:101060000E942F186B017C01E9962CAD3DAD4EAD71
:101070005FADE997CA01B9010E942F189B01AC012D
:10108000C701B6010E94A5156B017C01ED962CAD40
:101090003DAD4EAD5FADED97CA01B9010E942F186D
:1010A0009B01AC01C701B6010E94A5150E947A02FE
:1010B0006B017C019B01AC01E5966CAD7DAD8EAD05
:1010C0009FADE5970E942F1869877A878B879C8749
:1010D000A7019601E9966CAD7DAD8EAD9FADE99708
:1010E0000E942F186D837E838F839887A7019601B6
:1010F000ED966CAD7DAD8EAD9FADED970E942F1836
:101100006D877E878F87988B8091290190912A0126
:10111000A0912B01B0912C0189839A83AB83BC836E
:10112000C0902501D0902601E0902701F090280181
:10113000A7019601BC01CD010E942F186DA37EA3CB
:101140008FA398A740902101509022016090230125
:1011500070902401A301920169817A818B819C8125
:101160000E942F1869A37AA38BA39CA380901D01D2
:1011700090901E01A0901F01B0902001A501940144
:1011800069817A818B819C810E942F18698F7A8F67
:101190008B8F9C8FA3019201C701B6010E942F186B
:1011A00069A77AA78BA79CA7A5019401C701B601DF
:1011B0000E942F186DA77EA78FA798ABA30192015D
:1011C000C301B2010E942F1821966CAF7DAF8EAF84
:1011D0009FAF2197A5019401C301B2010E942F186E
:1011E00025966CAF7DAF8EAF9FAF2597A50194017B
:1011F000C501B4010E942F182B013C0121962CAD92
:101200003DAD4EAD5FAD219760E070E080E09FE3C3
:101210000E94A415A30192010E94A41529966CAF07
:101220007DAF8EAF9FAF2997298D3A8D4B8D5C8D09
:1012300069A57AA58BA59CA50E94A4152D966CAFD7
:101240007DAF8EAF9FAF2D972DA53EA54FA558A979
:1012500069A17AA18BA19CA10E94A51561966CAF92
:101260007DAF8EAF9FAF619729962CAD3DAD4EAD52
:101270005FAD299769857A858B859C850E942F189B
:101280004B015C012D962CAD3DAD4EAD5FAD2D9764
:101290006D817E818F8198850E942F189B01AC0102
:1012A000C501B4010E94A5154B015C0161962CADEE
:1012B0003DAD4EAD5FAD61976D857E858F8598891B
:1012C0000E942F189B01AC01C501B4010E94A51515
:1012D0009B01AC010E94A5154B015C01A701960181
:1012E000C701B6010E942F189B01AC0160E070E0BD
:1012F00080E09FE30E94A41565966CAF7DAF8EAF32
:101300009FAF659729A53AA54BA55CA5698D7A8DF8
:101310008B8D9C8D0E94A51529853A854B855C8512
:101320000E942F186B017C01A301920165966CADA0
:101330007DAD8EAD9FAD65970E94A4152D813E8138
:101340004F8158850E942F189B01AC01C701B6013F
:101350000E94A5156B017C012DA13EA14FA158A5AE
:1013600025966CAD7DAD8EAD9FAD25970E94A415E1
:101370002D853E854F8558890E942F189B01AC0111
:10138000C701B6010E94A5159B01AC010E94A515DD
:101390006B017C01A5019401C501B4010E942F18C5
:1013A000698F7A8F8B8F9C8FA5019401C501B40141
:1013B0000E942F184B015C01A7019601C701B601DD
:1013C0000E942F189B01AC01C501B4010E94A51514
:1013D0000E94A2184B015C0129A13AA14BA15CA17A
:1013E0006DA57EA58FA598A90E94A41569A37AA3CF
:1013F0008BA39CA325962CAD3DAD4EAD5FAD25973F
:101400006DA17EA18FA198A50E94A5156DA37EA3B5
:101410008FA398A721962CAD3DAD4EAD5FAD219722
:1014200065966CAD7DAD8EAD9FAD65970E94A415A0
:10143000698F7A8F8B8F9C8F29A13AA14BA15CA1D8
:1014400069857A858B859C850E942F186B017C01AC
:101450002DA13EA14FA158A56D817E818F819885D8
:101460000E942F189B01AC01C701B6010E94A5156F
:101470006B017C01298D3A8D4B8D5C8D6D857E8550
:101480008F8598890E942F189B01AC01C701B60176
:101490000E94A5159B01AC010E94A5156B017C0162
:1014A00029813A814B815C81CA01B9010E942F18C0
:1014B00020E030E040E05FE30E94A415A301920128
:1014C0000E94A51569837A838B839C83A50194016F
:1014D00029966CAD7DAD8EAD9FAD29970E942F18DA
:1014E0002B013C01A701960169A17AA18BA19CA1C6
:1014F0000E942F189B01AC01C301B2010E94A515E7
:1015000069A77AA78BA79CA7A50194012D966CAD1E
:101510007DAD8EAD9FAD2D970E942F182B013C0104
:10152000A70196016DA17EA18FA198A50E942F18F9
:101530009B01AC01C301B2010E94A5156DA77EA756
:101540008FA798ABA501940161966CAD7DAD8EAD72
:101550009FAD61970E942F182B013C01A7019601B6
:10156000698D7A8D8B8D9C8D0E942F189B01AC010B
:10157000C301B2010E94A5156B017C0129813A814A
:101580004B815C816DA97EA98FA998AD0E942F180F
:101590004B015C012DA13EA14FA158A569AD7AADCB
:1015A0008BAD9CAD0E942F189B01AC01C501B4010D
:1015B0000E94A4154B015C01A70196016D817E81FB
:1015C0008F8198850E942F182B013C012DA53EA5E7
:1015D0004FA558A96D857E858F8598890E942F1803
:1015E0009B01AC01C301B2010E94A4159B01AC0197
:1015F000C501B4010E94A515698F7A8F8B8F9C8FCE
:1016000029A13AA14BA15CA169AD7AAD8BAD9CAD8E
:101610000E942F184B015C0129813A814B815C812A
:1016200069A97AA98BA99CA90E942F189B01AC01DA
:10163000C501B4010E94A4154B015C0129A53AA57E
:101640004BA55CA56D857E858F8598890E942F1896
:101650002B013C01A701960169857A858B859C85C4
:101660000E942F189B01AC01C301B2010E94A41576
:101670009B01AC01C501B4010E94A51569837A8361
:101680008B839C832DA13EA14FA158A569A97AA95E
:101690008BA99CA90E942F186B017C0129A13AA15A
:1016A0004BA15CA16DA97EA98FA998AD0E942F18AE
:1016B0009B01AC01C701B6010E94A4156B017C011E
:1016C0002DA53EA54FA558A969857A858B859C8552
:1016D0000E942F184B015C0129A53AA54BA55CA5DA
:1016E0006D817E818F8198850E942F189B01AC01AE
:1016F000C501B4010E94A4159B01AC01C701B6014C
:101700000E94A51569877A878B879C87C0902D01D9
:10171000D0902E01E0902F01F090300120E030E0D9
:10172000A901C701B6010E94221818160CF091C039
:1017300080900D0190900E01A0900F01B0901001CB
:10174000A7019601698D7A8D8B8D9C8D0E942F1833
:10175000A50194010E942F182091190130911A01BE
:1017600040911B0150911C010E94A5156D837E8341
:101770008F8398876093190170931A0180931B01DE
:1017800090931C01A701960169817A818B819C81CC
:101790000E942F18A50194010E942F182091150175
:1017A0003091160140911701509118010E94A51522
:1017B0002B013C0160931501709316018093170172
:1017C00090931801A701960169857A858B859C8580
:1017D0000E942F18A50194010E942F182091110139
:1017E0003091120140911301509114010E94A515EE
:1017F0006B017C01609311017093120180931301BE
:10180000909314012D813E814F8158856D897E8989
:101810008F89988D0E94A5156D8B7E8B8F8B988FED
:10182000A30192016D8D7E8D8F8D98A10E94A515CB
:101830006D8F7E8F8F8F98A3A701960169897A8912
:101840008B899C890E94A515698B7A8B8B8B9C8BCD
:1018500018C01092190110921A0110921B011092D7
:101860001C0110921501109216011092170110928E
:10187000180110921101109212011092130110928E
:101880001401C0903101D0903201E0903301F0900A
:101890003401A7019601698D7A8D8B8D9C8D0E94F4
:1018A0002F189B01AC016D897E898F89988D0E94CC
:1018B000A5156D8B7E8B8F8B988FA7019601698103
:1018C0007A818B819C810E942F189B01AC016D8DC8
:1018D0007E8D8F8D98A10E94A5156D8F7E8F8F8F25
:1018E00098A3A701960169857A858B859C850E94BE
:1018F0002F189B01AC0169897A898B899C890E9488
:10190000A515698B7A8B8B8B9C8B20E030E040E0B7
:101910005FE360910D0170910E0180910F01909134
:1019200010010E942F186B017C019B01AC016D8995
:101930007E898F89988D0E942F186D837E838F8377
:101940009887A70196016D8D7E8D8F8D98A10E943D
:101950002F186D877E878F87988BA70196016989DD
:101960007A898B899C890E942F186D8B7E8B8F8B37
:10197000988F8091290190912A01A0912B01B0911B
:101980002C0189839A83AB83BC83C0902501D090BE
:101990002601E0902701F09028018091210190918B
:1019A0002201A0912301B091240189879A87AB87F6
:1019B000BC8740901D0150901E0160901F017090E7
:1019C0002001C701B60190582D813E814F81588575
:1019D0000E942F184B015C0129853A854B855C8557
:1019E0006D857E858F8598890E942F189B01AC019B
:1019F000C501B4010E94A4154B015C01A301920131
:101A00006D897E898F89988D0E942F189B01AC016A
:101A1000C501B4010E94A41529813A814B815C81E2
:101A20000E94A5156D8F7E8F8F8F98A329813A8193
:101A30004B815C816D817E818F8198850E942F18FA
:101A40004B015C0129853A854B855C856D897E89D2
:101A50008F89988D0E942F189B01AC01C501B4019C
:101A60000E94A5154B015C01A30192016D857E8545
:101A70008F8598890E942F189B01AC01C501B40184
:101A80000E94A415A70196010E94A515698B7A8B67
:101A90008B8B9C8B29813A814B815C816D857E8506
:101AA0008F8598890E942F184B015C01A701960130
:101AB0006D897E898F89988D0E942F189B01AC01BA
:101AC000C501B4010E94A4154B015C01A301920160
:101AD0006D817E818F8198850E942F189B01AC01BA
:101AE000C501B4010E94A51529853A854B855C8501
:101AF0000E94A5154B015C0129813A814B815C81D3
:101B00006D897E898F89988D0E942F1869837A83C9
:101B10008B839C83A70196016D857E858F8598892F
:101B20000E942F189B01AC0169817A818B819C8175
:101B30000E94A5156B017C0129853A854B855C8542
:101B40006D817E818F8198850E942F189B01AC0149
:101B5000C701B6010E94A415A30192010E94A51518
:101B60006B017C012D8D3E8D4F8D58A1CA01B901AD
:101B70000E942F182B013C0129893A894B895C89E5
:101B8000CA01B9010E942F189B01AC01C301B20127
:101B90000E94A5152B013C01A5019401C501B401CA
:101BA0000E942F189B01AC01C301B2010E94A51530
:101BB0002B013C01A7019601C701B6010E942F1815
:101BC0009B01AC01C301B2010E94A5150E947A02DB
:101BD0002B013C019B01AC016D8D7E8D8F8D98A1F9
:101BE0000E942F186093290170932A0180932B0182
:101BF00090932C01A301920169897A898B899C8930
:101C00000E942F186093250170932601809327016D
:101C100090932801A3019201C501B4010E942F18DD
:101C200060932101709322018093230190932401FA
:101C3000A3019201C701B6010E942F1860931D01F4
:101C400070931E0180931F01909320011092000158
:101C5000CC5ADF4F0FB6F894DEBF0FBECDBFDF9179
:101C6000CF911F910F91FF90EF90DF90CF90BF9099
:101C7000AF909F908F907F906F905F904F903F902C
:101C80002F9008954F925F926F927F928F929F92C2
:101C9000AF92BF92CF92DF92EF92FF92CF93DF93FA
:101CA000CDB7DEB760970FB6F894DEBF0FBECDBFDD
:101CB0008090250190902601A0902701B0902801E6
:101CC00040902101509022016090230170902401E6
:101CD000A3019201C301B2010E942F1869837A8384
:101CE0008B839C838091290190912A01A0912B01E3
:101CF000B0912C018D839E83AF83B887C0901D0166
:101D0000D0901E01E0901F01F0902001A5019401E8
:101D1000C501B4010E942F189B01AC0160E070E086
:101D200080E09FE30E94A41529813A814B815C8168
:101D30000E94A41569877A878B879C872D813E81B5
:101D40004F815885C501B4010E942F186D877E8789
:101D50008F87988BA7019601C301B2010E942F18AB
:101D60009B01AC016D857E858F8598890E94A515A4
:101D700029853A854B855C850E943F166093090151
:101D800070930A0180930B0190930C01A7019601B7
:101D9000C501B4010E942F1869877A878B879C87B9
:101DA0002D813E814F815885C301B2010E942F18B9
:101DB0009B01AC0169857A858B859C850E94A41561
:101DC00020E030E040E050EC0E942F180E941116F5
:101DD00060930501709306018093070190930801B9
:101DE00029813A814B815C8160E070E080E09FE373
:101DF0000E94A41569837A838B839C83A701960133
:101E0000C701B6010E942F189B01AC0169817A813C
:101E10008B819C810E94A41569837A838B839C8328
:101E2000A3019201C501B4010E942F184B015C016E
:101E3000A70196016D817E818F8198850E942F1860
:101E40009B01AC01C501B4010E94A51529813A810D
:101E50004B815C810E943F166093010170930201E7
:101E6000809303019093040181E0809300016096C8
:101E70000FB6F894DEBF0FBECDBFDF91CF91FF90BC
:101E8000EF90DF90CF90BF90AF909F908F907F901A
:101E90006F905F904F90089580910001811102C072
:101EA0000E94420E21EE3EE245E652E460910901B5
:101EB00070910A0180910B0190910C010E942F18E2
:101EC000089580910001811102C00E94420E21EE0E
:101ED0003EE245E652E46091050170910601809171
:101EE0000701909108010E942F1808958091000128
:101EF000811102C00E94420E21EE3EE245E652E40C
:101F0000609101017091020180910301909104019F
:101F10000E942F1820E030E044E353E40E94A5150E
:101F200008950F931F93CF93DF930E94341AEC010F
:101F30008C010A5C1E4F06C00E94341AF80181937E
:101F40008F0121960E942C1A892B19F0CD30D105D2
:101F50009CF3DF91CF911F910F9108950F931F93E1
:101F6000CF93DF938091350181110FC0C6E3D1E09B
:101F700003E411E003C089910E94B8190E949819E6
:101F8000843019F4C017D107B1F7DF91CF911F91B9
:101F90000F9108950F931F93CF93DF93CDB7DEB7C3
:101FA0002C970FB6F894DEBF0FBECDBF8E010F5F2A
:101FB0001F4F8CE0F80111928A95E9F7C8010E9441
:101FC0006B15C8010E94F101C8010E94C7018981F7
:101FD0009A810E94C2128B819C810E94C8128D81BD
:101FE0009E810E94CE128F8198850E94D41289858D
:101FF0009A850E94DA128B859C850E94E0122C96AD
:102000000FB6F894DEBF0FBECDBFDF91CF911F9109
:102010000F910895259A81E08093360178942FEFEF
:1020200081EE94E0215080409040E1F700C0000034
:1020300060E074E284EF90E00E9426190E94821909
:1020400081E00E94951981E99FE00E94481A8EEA7A
:102050009FE00E944D1A2FEF81EE94E021508040C6
:102060009040E1F700C000000895CF93DF93CDB713
:10207000DEB72C970FB6F894DEBF0FBECDBF0E941F
:102080003B12CE0101962CE0FC0111922A95E9F752
:102090000E94C70189819A810E94C2128B819C8112
:1020A0000E94C8128D819E810E94CE128F819885D8
:1020B0000E94D41289859A850E94DA128B859C85AC
:1020C0000E94E0120E94BA110E941B02FFEF21EE53
:1020D00084E0F15020408040E1F700C000002C96E1
:1020E0000FB6F894DEBF0FBECDBFDF91CF9108953C
:1020F0004F925F926F927F92AF92BF92CF92DF9298
:10210000EF92FF920F931F93CF93DF9300D000D0F5
:10211000CDB7DEB70F2EF3ECEF2EF1E0FF2EF02D52
:102120000BEB11E027EC31E04DEB51E069EC71E095
:1021300081EC91E00E944E1245EC51E06FEB71E0B2
:102140008BEC91E00E94C6116091C3017091C401B3
:10215000072E000C880B990B0E9417172FE632E10F
:1021600043E85AE30E942F182B013C016091C10102
:102170007091C201072E000C880B990B0E94171753
:102180002FE632E143E85AE30E942F185B016C010D
:102190006091BB017091BC01072E000C880B990B5C
:1021A0000E9417172FE632E143E85AE30E942F18E6
:1021B00069837A838B839C836091C5017091C6018A
:1021C000072E000C880B990B0E9417172FE632E19F
:1021D00043E85AE30E942F189F938F937F936F9346
:1021E0006091BF017091C001072E000C880B990B04
:1021F0000E9417172FE632E143E85AE30E942F1896
:102200009F938F937F936F936091CB017091CC01DB
:10221000072E000C880B990B0E9417172FE632E14E
:1022200043E85AE30E942F189F938F937F936F93F5
:102230006091BD017091BE01072E000C880B990BB7
:102240000E9417172FE632E143E85AE30E942F1845
:102250009F938F937F936F936091C9017091CA018F
:10226000072E000C880B990B0E9417172FE632E1FE
:1022700043E85AE30E942F189F938F937F936F93A5
:102280008301720129813A814B815C81C301B201D2
:102290000E941207F8940E944C0F47E351E00E94FD
:1022A000FB180E94610F4BE351E00E94FB180E9453
:1022B000760F4FE351E00E94FB1878940FB6F89424
:1022C000DEBF0FBECDBF0F900F900F900F90DF912C
:1022D000CF911F910F91FF90EF90DF90CF90BF9023
:1022E000AF907F906F905F904F900895C6E3D1E0DC
:1022F00081E088830E940A100E94351083E0888361
:10230000812C912C540110E20E943F196B017C0139
:1023100088818A30A9F40E947810C818D908EA0880
:10232000FB0889EEC81683E0D806E104F10464F3E3
:1023300085B1812785B90E943F194B015C01E4CF2B
:102340008A818A3009F70E94CA0FDECF482F429552
:10235000440F407E61E08EE10E943F1B0895CF93C1
:10236000C82F482F62E08EE10E943F1BC093CD0131
:10237000CF91089540E760E08EE10E943F1B81E02D
:102380000E94A61181E00E94AF110895CF92DF92C2
:10239000EF92FF920F931F93CF93DF936C017B011A
:1023A000EA0108EE13E02EEC31E046E063E08EE156
:1023B0000E94521A8091CD01813029F441E062E0FF
:1023C0008EE10E943F1BEEECF1E0808190E0982FBF
:1023D00088272181822BD6018D939C93848190E064
:1023E000982F88272581822BD7018D939C938281FA
:1023F00090E0982F88272381822B99838883DF910F
:10240000CF911F910F91FF90EF90DF90CF900895A3
:102410000F93082F23E042E06BE688E60E94861BBC
:102420000F9108950F93082F22E044E06BE188E6B6
:102430000E94861B0F9108950F93082F22E044E01D
:102440006CE188E60E94861B0F910895282F46E0D4
:102450006BE688E60E944F1B0895282F45E06AE648
:1024600088E60E944F1B0895282F41E067E388E625
:102470000E944F1B089580E00E942D1281E00E946F
:10248000341281E00E94081281E00E94121282E060
:102490000E941C1280E00E94261208954F925F92C3
:1024A0006F927F928F929F92AF92BF92CF92DF9264
:1024B000EF92FF920F931F93CF93DF93CDB7DEB7C9
:1024C0002E970FB6F894DEBF0FBECDBF3C014B0177
:1024D0005A016901280108EE13E09E012F5F3F4F6A
:1024E0004EE06BE388E60E94521A898190E0982FB3
:1024F00088272A81822BF301918380838B8190E04E
:10250000982F88272C81822BF401918380838D81E1
:1025100090E0982F88272E81822BF501918380836C
:10252000898590E0982F88272A85822BF601918350
:1025300080838B8590E0982F88272C85822BF20151
:10254000918380838D8590E0982F88272E85822B1C
:10255000F701918380832E960FB6F894DEBF0FBEED
:10256000CDBFDF91CF911F910F91FF90EF90DF9042
:10257000CF90BF90AF909F908F907F906F905F9023
:102580004F900895AC0166E088E60E94FB1B089519
:10259000AC0168E088E60E94FB1B0895AC016AE08C
:1025A00088E60E94FB1B0895AC0163E188E60E9467
:1025B000FB1B0895AC0165E188E60E94FB1B0895B2
:1025C000AC0167E188E60E94FB1B08954F925F9281
:1025D0006F927F928F929F92AF92BF92CF92DF9233
:1025E000EF92FF920F931F93CF93DF93CDB7DEB798
:1025F000A0970FB6F894DEBF0FBECDBF6C019E0151
:10260000255F3F4F79018E01075F1F4F245031092D
:10261000AE014B5F5F4FBE016D5F7F4FCE010196F4
:102620000E944E120F2EFCE98F2E99249A94A92C09
:10263000B92CF02D1D8E1E8E1F8E18A2198E1A8E8B
:102640001B8E1C8E1D8A1E8A1F8A188E198A1A8A52
:102650001B8A1C8A412C512C32011D861E861F8626
:10266000188AC0C089819A81092E000CAA0BBB0B65
:102670002D853E854F855889280F391F4A1F5B1FBE
:102680002D873E874F87588B8B819C81092E000CAC
:10269000AA0BBB0B480E591E6A1E7B1E8D819E81A4
:1026A000092E000CAA0BBB0B29893A894B895C893E
:1026B000280F391F4A1F5B1F298B3A8B4B8B5C8B72
:1026C0008F819885092E000CAA0BBB0B2D893E89A2
:1026D0004F89588D280F391F4A1F5B1F2D8B3E8B4A
:1026E0004F8B588F89859A85092E000CAA0BBB0B3E
:1026F000298D3A8D4B8D5C8D280F391F4A1F5B1F2A
:10270000298F3A8F4B8F5C8F8B859C85092E000C0F
:10271000AA0BBB0B2D8D3E8D4F8D58A1280F391F55
:102720004A1F5B1F2D8F3E8F4F8F58A33FEF831A99
:10273000930AA30AB30A48EE841643E09406A10460
:10274000B10409F04FC00F2EF8EE8F2EF3E09F2E4C
:10275000A12CB12CF02D6D857E858F859889A501E2
:1027600094010E94E121F60131832083C301B2016B
:10277000A50194010E94E121F60133832283698936
:102780007A898B899C89A50194010E94E121F60137
:10279000358324836D897E898F89988DA501940165
:1027A0000E94E121F60137832683698D7A8D8B8D16
:1027B0009C8DA50194010E94E121F60131872087BB
:1027C0006D8D7E8D8F8D98A1A50194010E94E121D0
:1027D000F601338722878FE39CE90197F1F700C068
:1027E000000022C0EFE3FCE93197F1F700C00000E0
:1027F0009E01255F3F4F79018E01075F1F4F2450D7
:102800003109AE014B5F5F4FBE016D5F7F4FCE015F
:1028100001960E944E1238EE831633E09306A1040F
:10282000B10408F41FCF82CFA0960FB6F894DEBF94
:102830000FBECDBFDF91CF911F910F91FF90EF9011
:10284000DF90CF90BF90AF909F908F907F906F90D0
:102850005F904F9008952F923F924F925F926F92A8
:102860007F928F929F92AF92BF92CF92DF92EF9220
:10287000FF920F931F93CF93DF93EC011B01A8806E
:10288000B980B194A194B1081AF427E0A20EB11C4A
:10289000B594A794B594A794B594A7946A807B80C7
:1028A0007194619471081AF447E0640E711C759478
:1028B000679475946794759467942C813D8180E04A
:1028C00090E4821B930B2C011AF457E0450E511C27
:1028D000559447945594479455944794CE80DF80FF
:1028E000D194C194D1081AF483E0C80ED11CD594B8
:1028F000C794D594C794E884F984F194E194F108DD
:102900001AF4E3E0EE0EF11CF594E794F594E794E5
:102910000A851B8511950195110912F40D5F1F4F52
:102920001595079515950795812C6894992496F827
:10293000C5010E94C212C3010E94C812C2010E94B6
:10294000CE12C6010E94D412C7010E94DA12C80139
:102950000E94E012CE010E94E612888199819C01BA
:10296000992324F422273327281B390B29303105DA
:1029700084F09C01992314F4295F3F4F35952795E6
:102980003595279535952795A21AB30A80E090E0F2
:1029900002C081E090E02A813B81A901332324F425
:1029A00044275527421B530B4930510514F4019617
:1029B0000DC0A901332314F4495F5F4F5595479526
:1029C0005595479555954795641A750A2C813D8113
:1029D000A401421B530B9A0122F444275527421BA2
:1029E000530B4930510514F401960DC0A90133234E
:1029F00014F4495F5F4F5595479555954795559503
:102A00004795440E551E2E813F81A901332324F49E
:102A100044275527421B530B4230510514F40196AD
:102A200009C0A901332314F44F5F5F4F55954795B3
:102A3000C41AD50A28853985A901332324F44427EB
:102A40005527421B530B4230510514F4019609C01F
:102A5000A901332314F44F5F5F4F55954795E41A4E
:102A6000F50A2A853B85A901332324F444275527F9
:102A7000421B530B4230510514F4019609C0A901C1
:102A8000332314F44F5F5F4F55954795041B150B87
:102A9000069709F04DCFF101B182A0827382628264
:102AA00055824482D782C682F186E08613870287E8
:102AB000DF91CF911F910F91FF90EF90DF90CF901A
:102AC000BF90AF909F908F907F906F905F904F904E
:102AD0003F902F9008950F931F93CF93DF93CDB71F
:102AE000DEB72C970FB6F894DEBF0FBECDBF8C01BA
:102AF00080E090E00E94C21280E090E00E94C81244
:102B000080E090E00E94CE1280E090E00E94D4121B
:102B100080E090E00E94DA1280E090E00E94E012F3
:102B2000CE0101960E94E612B801CE0101960E94E4
:102B30002B142C960FB6F894DEBF0FBECDBFDF91DD
:102B4000CF911F910F9108955058BB27AA270E943B
:102B5000BC150C94E8170E94DA1738F00E94E117B0
:102B600020F039F49F3F19F426F40C949C170EF4CE
:102B7000E095E7FB0C949617E92F0E94F91758F39C
:102B8000BA17620773078407950720F079F4A6F552
:102B90000C941B180EF4E0950B2EBA2FA02D0B01F0
:102BA000B90190010C01CA01A0011124FF27591B92
:102BB00099F0593F50F4503E68F11A16F040A22F98
:102BC000232F342F4427585FF3CF46953795279509
:102BD000A795F0405395C9F77EF41F16BA0B620B08
:102BE000730B840BBAF09150A1F0FF0FBB1F661F4F
:102BF000771F881FC2F70EC0BA0F621F731F841F92
:102C000048F4879577956795B795F7959E3F08F0B7
:102C1000B0CF9395880F08F09927EE0F9795879579
:102C200008959F939F77EEE389379E0728F4E8E69F
:102C3000F0E00E94C6170CC00E9452179058A2EAFA
:102C40002AED3FE049EC5FE30E94BC150E94E817C3
:102C50000F9007FC905808950E94DA1760F080E802
:102C600091E009F49EEF0E94E11728F040E851E05E
:102C700071F45EEF0CC00C949C170C941B18E92F98
:102C8000E0780E94F91740F3092E052AB1F32617C0
:102C900037074807590738F00E2E07F8E02569F086
:102CA000E025E0640AC0EF6307F8009407FADB014F
:102CB000B9019D01DC01CA01AD01EF930E94BA1672
:102CC0000E94E8170E946F165F91552339F02BED93
:102CD0003FE049E450FD49EC0C94A5150895DF93BD
:102CE000DD27B92FBF7740E85FE3161617064807C0
:102CF0005B0718F4D92F0E9427189F938F937F9317
:102D00006F930E94E218ECE7F0E00E949F170E9488
:102D1000E8172F913F914F915F910E944218DD2358
:102D200051F09058A2EA2AED3FE049EC5FE3D078F9
:102D30005D270E94BC15DF910C94E8170E94721762
:102D400008F481E008950E94B7160C94E8170E94D9
:102D5000E11758F00E94DA1740F029F45F3F29F09C
:102D60000C94961751110C941C180C949C170E94EB
:102D7000F91768F39923B1F3552391F3951B550B7C
:102D8000BB27AA2762177307840738F09F5F5F4F3E
:102D9000220F331F441FAA1FA9F335D00E2E3AF07D
:102DA000E0E832D091505040E695001CCAF72BD095
:102DB000FE2F29D0660F771F881FBB1F26173707E6
:102DC0004807AB07B0E809F0BB0B802DBF01FF2718
:102DD00093585F4F3AF09E3F510578F00C94961748
:102DE0000C941C185F3FE4F3983ED4F386957795D6
:102DF0006795B795F7959F5FC9F7880F911D9695D1
:102E0000879597F90895E1E0660F771F881FBB1F2C
:102E1000621773078407BA0720F0621B730B840BD9
:102E2000BA0BEE1F88F7E0950895E89409C097FB68
:102E30003EF490958095709561957F4F8F4F9F4F91
:102E40009923A9F0F92F96E9BB279395F6958795D5
:102E500077956795B795F111F8CFFAF4BB0F11F498
:102E600060FF1BC06F5F7F4F8F4F9F4F16C088233F
:102E700011F096E911C0772321F09EE8872F762F75
:102E800005C0662371F096E8862F70E060E02AF0B6
:102E90009A95660F771F881FDAF7880F96958795A2
:102EA00097F90895DF93CF931F930F938B01EC0154
:102EB000E9EAF0E00E949F170E94E8179801AE012E
:102EC0008B01EC0160E070E080E89FE30E94A415B4
:102ED0000E94A2189801AE010F911F91CF91DF912E
:102EE0000C944218990F0008550FAA0BE0E8FEEF6A
:102EF00016161706E807F907C0F012161306E407BE
:102F0000F50798F0621B730B840B950B39F40A26B6
:102F100061F0232B242B252B21F408950A2609F494
:102F2000A140A6958FEF811D811D089597F99F6798
:102F300080E870E060E008959FEF80EC0895DF93F3
:102F4000CF931F930F93FF92EF92DF927B018C013F
:102F5000689406C0DA2EEF010E944218FE01E89440
:102F6000A5912591359145915591A6F3EF010E94C8
:102F7000BC15FE019701A801DA9469F7DF90EF9084
:102F8000FF900F911F91CF91DF9108959F938F93A1
:102F90007F936F93FF93EF939B01AC010E942F18D7
:102FA000EF91FF910E949F172F913F914F915F9159
:102FB0000C942F1800240A941616170618060906F2
:102FC000089500240A94121613061406050608959F
:102FD000092E0394000C11F4882352F0BB0F40F427
:102FE000BF2B11F460FF04C06F5F7F4F8F4F9F4F67
:102FF000089557FD9058440F551F59F05F3F71F0E9
:103000004795880F97FB991F61F09F3F79F087954F
:103010000895121613061406551FF2CF4695F1DFD8
:1030200008C0161617061806991FF1CF8695710568
:10303000610508940895E894BB2766277727CB019C
:1030400097F908950E94721708F48FEF08959B0175
:10305000AC0160E070E080E89FE30C94A3160E944E
:1030600042180C94E8170E94DA1738F00E94E11712
:1030700020F0952311F00C9496170C949C171124B2
:103080000C941C180E94F91770F3959FC1F3950FCB
:1030900050E0551F629FF001729FBB27F00DB11DDC
:1030A000639FAA27F00DB11DAA1F649F6627B00D6C
:1030B000A11D661F829F2227B00DA11D621F739F55
:1030C000B00DA11D621F839FA00D611D221F749F63
:1030D0003327A00D611D231F849F600D211D822FAA
:1030E000762F6A2F11249F5750409AF0F1F08823D1
:1030F0004AF0EE0FFF1FBB1F661F771F881F9150FE
:103100005040A9F79E3F510580F00C9496170C94FF
:103110001C185F3FE4F3983ED4F386957795679546
:10312000B795F795E7959F5FC1F7FE2B880F911D27
:103130009695879597F9089519F416F40C949C17B1
:103140000C94E6180E940118B8F39923C9F3B6F35A
:103150009F57550B87FF0E94F4180024A0E640EA11
:10316000900180585695979528F4805C660F771FDC
:10317000881F20F026173707480730F4621B730BAF
:10318000840B202931294A2BA695179407942025D2
:1031900031254A2758F7660F771F881F20F026171A
:1031A0003707480730F4620B730B840B200D311D79
:1031B000411DA09581F7B901842F9158880F9695EC
:1031C000879508959B01AC010C942F189F3F31F017
:1031D000915020F4879577956795B795880F911D45
:1031E0009695879597F9089591505040660F771FEF
:1031F000881FD2F70895FA016083718382839383D5
:1032000008951F920F920FB60F9211248F939F93E0
:10321000AF93BF938091D4019091D501A091D60135
:10322000B091D7010196A11DB11D8093D401909357
:10323000D501A093D601B093D701BF91AF919F91D3
:103240008F910F900FBE0F901F90189520E43FE1D3
:1032500040E050E00E94BF21E1E8F0E080818A6018
:103260008083BB27A52F942F832F809389002093E1
:103270008800EFE6F0E08081826080830895F89412
:103280006091D4017091D5018091D6019091D701C0
:1032900078940895CF93DF93EC01E0914901F09188
:1032A0004A01309701F190914801809147019817A8
:1032B000D0F0161617068CF420E030E090E0DE0126
:1032C000A90FB11D4C91D901A852BE4F4C939F5FDD
:1032D000292F30E02617370794F3CB0110924801CD
:1032E000609347010995DF91CF910895E0914B01DB
:1032F000F0914C01309729F0109245011092440151
:1033000009950895109248011092470110924501C5
:10331000109244010E940D1C86E799E10E942F1C27
:103320008AE499E10E942A1C08950E94261C0895AF
:103330000E94231C089591E09093430180934601DD
:10334000109245011092440108950F93082F21E037
:103350004091440168EF71E0809146010E94861C13
:103360001092450110924401109243010F9108956B
:10337000CF93DF931F92CDB7DEB78983809143014E
:103380008823A1F0809144018032C0F480914501EE
:10339000E82FF0E0E850FE4F998190838F5F809393
:1033A00045018093440181E090E00AC061E0CE01D4
:1033B00001960E94E61C81E090E002C080E090E06F
:1033C0000F90DF91CF9108958F929F92AF92BF920D
:1033D000EF920F931F93CF93DF93182FD62F4901AE
:1033E0005A01002309F10E949B19043008F003E000
:1033F000CFEFC00F0023A9F08C2F880F880F880F04
:10340000A501940104C056954795379527958A954F
:10341000D2F7DA01C9010E94B8198C2FC15081116D
:10342000EBCF80E00E94A5194D2FD13208F040E289
:103430002E2D68ED71E0812F0E94341C10924801FE
:1034400080934701DF91CF911F910F91EF90BF9033
:10345000AF909F908F9008958091470190E02091C8
:103460004801821B9109089590914801809147017C
:10347000981750F4E92FF0E0E852FE4F208130E039
:103480009F5F9093480102C02FEF3FEFC90108955D
:1034900090934A0180934901089590934C01809341
:1034A0004B0108952F923F924F925F926F927F92BD
:1034B0008F929F92AF92BF92CF92DF92EF92FF9244
:1034C0000F931F93CF93DF93CDB7DEB728970FB637
:1034D000F894DEBF0FBECDBFF82E6D83842E590148
:1034E00068010E943F192B013C01882009F45AC051
:1034F000912C10E0282C312C960140E050E02983DB
:103500003A834B835C838E828F2D0E949B198D8121
:103510000E94B81981E00E94A5198F2D0E949B1965
:10352000C1018919910980971CF4682D691901C09E
:1035300060E2EE24E39400E020E030E0A9018F2D6A
:103540000E94E4190DC0A501410F511D17FD5A95A8
:1035500058874F830E94341AAF81B8858C931F5FC0
:103560000E942C1A892BA1F0C114D10461F30E948E
:103570003F19DC01CB0184199509A609B7092981F6
:103580003A814B815C8182179307A407B507D8F273
:103590008E8130E2381508F480E2980E981408F411
:1035A000B3CF01C010E0C114D104C9F00E943F198B
:1035B000AB01BC014419550966097709C601A0E0B1
:1035C000B0E0481759076A077B0748F0912C812F14
:1035D000012E000C990B881599050CF41FEF812F13
:1035E00028960FB6F894DEBF0FBECDBFDF91CF9106
:1035F0001F910F91FF90EF90DF90CF90BF90AF9011
:103600009F908F907F906F905F904F903F902F9002
:1036100008950F931F9389019A0141E00E94521A65
:103620001F910F910895EF92FF920F931F93CF93E5
:10363000DF93C62F142F79010E949B198C2F0E94B3
:10364000B819112371F0E7011150012F10E00F5F3D
:103650001F4F0E0D1F1D89910E94B819C017D10769
:10366000D1F781E00E94A51991E0811190E0892FA6
:10367000DF91CF911F910F91FF90EF900895CF931D
:10368000DF931F92CDB7DEB749839E012F5F3F4F77
:1036900041E00E94131B0F90DF91CF910895EF92AC
:1036A000FF920F931F93CF93DF931F92CDB7DEB797
:1036B000182F062FF42EE22E28EE33E0AE014F5FD6
:1036C0005F4F0E94091BEE2051F041E050E002C024
:1036D000440F551FFA94E2F78981482B0AC041E054
:1036E00050E002C0440F551FFA94E2F740958981DB
:1036F00048234983602F812F0E943F1B0F90DF9149
:10370000CF911F910F91FF90EF900895DF92EF926C
:10371000FF920F931F93CF93DF931F92CDB7DEB726
:10372000182FF62EE42ED22E28EE33E0AE014F5F96
:103730005F4F0E94091B882341F12E2D30E02D1987
:1037400031092F5F3F4F81E090E002C0880F991F41
:10375000DA94E2F70197022E02C0880F991F0A94AB
:10376000E2F7402F50E0BA0102C0660F771F2A959A
:10377000E2F7482F4095998149238623482B4983B6
:103780006F2D812F0E943F1B01C080E00F90DF91C1
:10379000CF911F910F91FF90EF90DF900895EF92DE
:1037A000FF920F931F93CF93DF93C62FE42E022F28
:1037B000132F0E949B198C2F0E94B819EE2069F0DC
:1037C000C02FD12FF12C89810E94B81988812296AF
:1037D0000E94B819F394EF10F6CF81E00E94A5196A
:1037E00091E0811190E0892FDF91CF911F910F918E
:1037F000FF90EF900895CF93DF9300D0CDB7DEB761
:103800005A8349839E012F5F3F4F41E00E94CF1BA7
:103810000F900F90DF91CF9108951092BA0181E03F
:103820008093B9011092B801E9EBF0E080818E7FBE
:10383000808380818D7F808388E48093B80085E4D5
:103840008093BC0008958091BA010895880F8093F9
:10385000BA0008959093B3018093B20108959093B4
:10386000B5018093B4010895413208F04CC09091A5
:10387000BA019111FCCF31E03093BA012093B90124
:103880002FEF2093B60110929101240F2093900105
:103890003093B7012091B701880F822B8093B70135
:1038A0008091B801813081F41092B801ABEBB0E0A7
:1038B000ECEBF0E08091B7018C93808183FDFACF2F
:1038C00085EC8093BC0003C085EE8093BC008091A2
:1038D000BA018130E1F380919101841710F4409195
:1038E0009101442389F0E2E9F1E0A62FB72F2FEFF1
:1038F000240F30E02D563E4F81918D93E217F30750
:10390000D9F7942F01C090E0892F08950F93413289
:1039100008F054C03091BA013111FCCF92E090937D
:10392000BA010093B9019FEF9093B60110929101F3
:1039300040939001442371F0FB01A2E9B1E04150B2
:1039400050E04F5F5F4F640F751F91919D93E61795
:10395000F707D9F71092B7019091B701880F892B1B
:103960008093B7018091B801882369F01092B80163
:10397000ABEBB0E0ECEBF0E09091B7019C93908161
:1039800093FDFACF03C085EE8093BC00222341F063
:103990008091BA01823021F48091BA018230E1F342
:1039A0008091B6018F3F79F08091B601803241F06D
:1039B0008091B601803331F034E005C031E003C0BE
:1039C00032E001C033E0832F0F91089540916E01E2
:1039D000262F30E0240F311D21323105ECF42091E7
:1039E000BA012430D9F4662381F0A82FB92F80E0E2
:1039F00090E030916E012D91FC01E059FE4FE30FF4
:103A0000F11D208301968617A0F380916E01680F47
:103A100060936E0180E0089581E0089582E008954A
:103A200085ED8093BC00ECEBF0E0808184FDFDCF60
:103A30001092BA01089585EC8093BC001092BA01EF
:103A400008951F920F920FB60F9211242F933F9358
:103A50004F935F936F937F938F939F93AF93BF9396
:103A6000EF93FF938091B900E82FE87F8E2F90E0CD
:103A7000893C910508F0F5C0FC01E759FF4F0C9413
:103A800000228091B7018093BB0085EC8093BC003D
:103A9000E8C09091910180919001981780F4E09195
:103AA000910181E08E0F80939101F0E0EE56FE4F80
:103AB00080818093BB0085EC8093BC00D2C0809154
:103AC000B901882319F00E94101DCBC081E08093BA
:103AD000B80184EA8093BC001092BA01C2C080E2AF
:103AE0008093B6010E94101DBCC080E38093B60194
:103AF0000E94101DB6C088E38093B6010E941B1D72
:103B0000B0C0E091910181E08E0F8093910180918E
:103B1000BB00F0E0EE56FE4F8083909191018091C2
:103B20009001981720F485EC8093BC009AC085E83A
:103B30008093BC0096C0E091910181E08E0F80934C
:103B400091018091BB00F0E0EE56FE4F80838091A2
:103B5000B901882319F00E94101D83C081E0809371
:103B6000B80184EA8093BC001092BA017AC00E9426
:103B7000101D77C083E08093BA0110924D0185EC4F
:103B80008093BC006EC080914D01803280F4E09142
:103B90004D0181E08E0F80934D018091BB00F0E0DC
:103BA000E25BFE4F808385EC8093BC005AC085E8C1
:103BB0008093BC0056C00E941B1D80914D01803235
:103BC00030F4E0914D01F0E0E25BFE4F1082609135
:103BD0004D0170E0E091B201F091B3018EE491E00B
:103BE000099510924D013DC085E88093BC0039C015
:103BF00084E08093BA0110926F0110926E01E091FF
:103C0000B401F091B501099580916E01811105C053
:103C100081E080936E0110927001E0916F0181E06C
:103C20008E0F80936F01F0E0E059FE4F808180930A
:103C3000BB0090916F0180916E01981720F485EC84
:103C40008093BC000EC085E88093BC000AC085EC60
:103C50008093BC001092BA0104C01092B6010E9479
:103C6000101DFF91EF91BF91AF919F918F917F9127
:103C70006F915F914F913F912F910F900FBE0F90D9
:103C80001F901895A0E1B0E0E8E4FEE10C94062254
:103C90007C011B016A01FC0117821682838181FF6E
:103CA00044C39E012F5F3F4F3901F7019381F1011A
:103CB00093FD859193FF81911F01882309F431C3FE
:103CC000853239F493FD859193FF81911F018532EF
:103CD00039F4B70190E00E942B2356016501E5CF2E
:103CE00010E0512C912CFFE1F915D8F08B3279F0CE
:103CF00038F4803279F08332A1F4F92DF0612EC0CE
:103D00008D3261F0803369F4292D21602DC0392D69
:103D10003260932E892D8460982E2AC0E92DE860A8
:103D200015C097FC2DC020ED280F2A3088F496FE90
:103D300006C03AE0139F200D1124122F19C08AE00B
:103D4000589E200D1124522EE92DE0629E2E10C0A7
:103D50008E3231F496FCE5C2F92DF0649F2E08C036
:103D60008C3621F4292D2068922E02C0883641F429
:103D7000F10193FD859193FF81911F018111B3CFD3
:103D80009BEB980F933020F4992D9061805E07C0D3
:103D90009BE9980F933008F066C1992D9F7E96FF9E
:103DA00016E09F73992E853619F49064992E08C0F9
:103DB000863621F4392F3068932E02C0111111502C
:103DC00097FE07C01C3350F444244394410E27E06F
:103DD0000BC0183038F027E017E005C027E09CE35F
:103DE000492E02C0212F412C560184E0A80EB11C9F
:103DF000F6016081718182819381042DA3010E946B
:103E00003D226C01F981FC87F0FF02C0F3FF06C080
:103E100091FC06C092FE06C000E205C00DE203C0A0
:103E20000BE201C000E08C858C7019F001115AC2C0
:103E30009BC297FE10C04C0CFC85F4FF04C08A8125
:103E4000813309F44A94141474F528E0241578F5A4
:103E500088E0482E2CC096FC2AC0812F90E08C155B
:103E60009D059CF03CEFC3163FEFD30674F0892DFF
:103E70008068982E0AC0E2E0F0E0EC0FFD1FE10F31
:103E8000F11D8081803319F411501111F4CF97FE88
:103E90000EC044244394410E812F90E0C816D906E9
:103EA0002CF41C1904C04424439401C010E097FE74
:103EB00006C01C141D0434F4C601019605C085E03B
:103EC00090E002C081E090E001110196112331F0F1
:103ED000212F30E02F5F3F4F820F931F252D30E0C1
:103EE0008217930714F4581A01C0512C892D897038
:103EF00049F4552039F0B70180E290E00E942B236D
:103F00005A94F7CF002329F0B701802F90E00E9448
:103F10002B2393FC09C0552039F0B70180E390E0D2
:103F20000E942B235A94F7CF97FE4CC04601D7FE30
:103F300002C0812C912CC60188199909F301E80F60
:103F4000F91FFE87ED87960124193109388B2F87D9
:103F5000012F10E01195019511093FEF831693068B
:103F600029F4B7018EE290E00E942B23C814D904F3
:103F70004CF08F8598898815990524F4ED85FE8588
:103F8000818101C080E3F1E08F1A91082D853E8583
:103F90002F5F3F4F3E872D87801691062CF0B7018B
:103FA00090E00E942B23D9CFC814D90441F49A8100
:103FB000963320F4953319F43C8534FF81E3B7013F
:103FC00090E04EC08A81813319F09C859F7E9C874A
:103FD000B70190E00E942B23111105C094FC18C07A
:103FE00085E690E017C0B7018EE290E00E942B2397
:103FF0001E5F82E001E0080FF301E80FF11D8081F0
:10400000B70190E00E942B23802F0113F3CFE6CF5E
:1040100085E490E0B7010E942B23D7FC06C0C114B1
:10402000D10441F4EC85E4FF05C0D194C194D108DA
:104030008DE201C08BE2B70190E00E942B2380E368
:104040002AE0C216D1042CF08F5FFAE0CF1AD10813
:10405000F7CFB70190E00E942B23B701C601C096AD
:104060000E942B2354C1833631F0833779F0833596
:1040700009F056C020C0560132E0A30EB11CF60173
:104080008081898301E010E0630112C05601F2E0F3
:10409000AF0EB11CF601C080D18096FE03C0612F27
:1040A00070E002C06FEF7FEFC6010E9420238C01F9
:1040B000F92DFF7714C0560122E0A20EB11CF601C3
:1040C000C080D18096FE03C0612F70E002C06FEF08
:1040D0007FEFC6010E9415238C01F92DF0689F2EF9
:1040E000F3FD1AC0852D90E008171907A8F4B70151
:1040F00080E290E00E942B235A94F4CFF60197FCC3
:10410000859197FE81916F01B70190E00E942B236A
:1041100051105A94015011090115110579F7F7C092
:10412000843611F0893661F5560197FE09C024E006
:10413000A20EB11CF60160817181828193810AC057
:10414000F2E0AF0EB11CF60160817181072E000C08
:10415000880B990BF92DFF769F2E97FF09C090953C
:104160008095709561957F4F8F4F9F4FF0689F2E80
:104170002AE030E0A3010E946723C82EC6183FC082
:10418000092D853721F40F7E2AE030E01DC0097F1C
:104190008F3691F018F4883559F0C3C0803719F084
:1041A000883711F0BEC0006104FF09C0046007C079
:1041B00094FE08C0066006C028E030E005C020E19B
:1041C00030E002C020E132E0560107FF09C084E080
:1041D000A80EB11CF601608171818281938108C0B3
:1041E000F2E0AF0EB11CF6016081718180E090E0D9
:1041F000A3010E946723C82EC6180F77902E96FE43
:104200000BC0092D0E7FC11650F494FE0AC092FC1B
:1042100008C0092D0E7E05C0DC2C092D03C0DC2C46
:1042200001C0D12E04FF0DC0FE01EC0DF11D8081F7
:10423000803311F4097E09C002FF06C0D394D394E1
:1042400004C0802F867809F0D39403FD11C000FFCD
:1042500006C01C2DD51480F4150D1D190DC0D514E4
:1042600058F4B70180E290E00E942B23D394F7CF5B
:10427000D51410F45D1801C0512C04FF10C0B70113
:1042800080E390E00E942B2302FF17C001FD03C0D2
:1042900088E790E002C088E590E0B7010CC0802F6D
:1042A000867859F001FF02C08BE201C080E207FD71
:1042B0008DE2B70190E00E942B23C11638F4B701BC
:1042C00080E390E00E942B231150F7CFCA94F301B2
:1042D000EC0DF11D8081B70190E00E942B23C110ED
:1042E000F5CF15C0F4E0F51560F584E0581A93FE9B
:1042F0001FC0011127C02C8523FF2AC004E612E04D
:10430000392D3071932EF8018491811124C05520EC
:1043100009F4E4CCB70180E290E00E942B235A9488
:10432000F6CFF7018681978126C08FEF9FEF23C0DC
:10433000B70180E290E00E942B235A945110F8CFED
:10434000D8CF512CB701802F90E00E942B23D3CFE0
:1043500008E612E0D5CF91108052B70190E00E949C
:104360002B230F5F1F4FCFCF23E0251510F483E0E1
:10437000BDCF512CC0CF6096E2E10C942222A1E285
:104380001A2EAA1BBB1BFD010DC0AA1FBB1FEE1FCF
:10439000FF1FA217B307E407F50720F0A21BB30B1A
:1043A000E40BF50B661F771F881F991F1A9469F796
:1043B00060957095809590959B01AC01BD01CF01F2
:1043C0000895052E97FB1EF400940E94F82157FDD6
:1043D00007D00E94BF2107FC03D04EF40C94F821B3
:1043E00050954095309521953F4F4F4F5F4F089521
:1043F00090958095709561957F4F8F4F9F4F089551
:10440000EE0FFF1F0590F491E02D09942F923F923B
:104410004F925F926F927F928F929F92AF92BF92D4
:10442000CF92DF92EF92FF920F931F93CF93DF9380
:10443000CDB7DEB7CA1BDB0B0FB6F894DEBF0FBEDD
:10444000CDBF09942A88398848885F846E847D842A
:104450008C849B84AA84B984C884DF80EE80FD802C
:104460000C811B81AA81B981CE0FD11D0FB6F894A2
:10447000DEBF0FBECDBFED010895283008F027E064
:104480003327DA01990F311D87FD91600096610590
:10449000710539F432602E5F3D9330E32A95E1F7E0
:1044A00008959F3F30F080387105610509F03C5F49
:1044B0003C5F3D93913008F08068911DDF93CF936E
:1044C0001F930F93FF92EF92192F987F9695E92FE4
:1044D00096959695E90FFF27EA53FD4F99273327C5
:1044E000EE24FF24A701E70105900894079428F41F
:1044F000360FE71EF81E491F511D660F771F881FD4
:10450000991F0694A1F70590079428F4E70EF81E6A
:10451000491F561FC11D770F881F991F661F0694DC
:10452000A1F70590079428F4F80E491F561FC71FDE
:10453000D11D880F991F661F771F0694A1F705905C
:10454000079420F4490F561FC71FD81F990F661FE5
:10455000771F881F0694A9F784911095177041F072
:10456000D695C79557954795F794E7941A95C1F74F
:10457000ECE6F2E06894159015913591659195916E
:1045800005907FE27395E118F10A430B560BC90BB6
:10459000D009C0F7E10CF11E431F561FC91FD01DE3
:1045A0007EF4703311F48A95E6CFE894015030F030
:1045B000080F0AF40027021708F4202F2395022F72
:1045C0007A3328F079E37D932A95E9F710C07D933B
:1045D0002A9589F6069497956795379517951794B8
:1045E000E118F10A430B560BC90BD00998F023953B
:1045F0007E9173957A3308F070E37C932013B8F7BB
:104600007E9170617D9330F0839571E37D9370E3CB
:104610002A95E1F71124EF90FF900F911F91CF9110
:10462000DF91992787FD90950895FC0105906150D1
:1046300070400110D8F7809590958E0F9F1F0895B8
:10464000FC016150704001900110D8F78095909561
:104650008E0F9F1F08950F931F93CF93DF93FB013E
:10466000238121FD03C08FEF9FEF2CC022FF16C0D6
:1046700046815781248135814217530744F4A08134
:10468000B1819D012F5F3F4F318320838C93268121
:1046900037812F5F3F4F3783268314C08B01EC0196
:1046A000FB010084F185E02D0995892BE1F6D80105
:1046B00016968D919C911797019617969C938E93C1
:1046C0001697CE01DF91CF911F910F910895FA01B6
:1046D000AA27283051F1203181F1E8946F936E7F41
:1046E0006E5F7F4F8F4F9F4FAF4FB1E03ED0B4E032
:1046F0003CD0670F781F891F9A1FA11D680F791F73
:104700008A1F911DA11D6A0F711D811D911DA11D83
:1047100020D009F468943F912AE0269F1124301993
:10472000305D3193DEF6CF010895462F4770405D2E
:104730004193B3E00FD0C9F7F6CF462F4F70405DDD
:104740004A3318F0495D31FD4052419302D0A9F738
:10475000EACFB4E0A6959795879577956795BA9532
:10476000C9F700976105710508959B01AC010A2EF8
:1047700006945795479537952795BA95C9F7620FCF
:10478000731F841F951FA01D0895A8E1B0E042E0AB
:1047900050E00C94D2230E94E023272F0C94E123B5
:1047A000DC01CB01FC01F999FECF06C0F2BDE1BDF1
:1047B000F89A319600B40D9241505040B8F70895E0
:1047C000262FF999FECF1FBA92BD81BD20BD0FB62D
:1047D000F894FA9AF99A0FBE01960895F894FFCFCB
:00000001FF
