S0110000696361726F5F696D752E737265635B
S11300000C94B3010C94D0010C94D0010C94D00145
S11300100C94D0010C94D0010C94D0010C94D00118
S11300200C94D0010C94D0010C94D0010C94D819E8
S11300300C94D0010C94D0010C94D0010C94D001F8
S11300400C94D0010C94D0010C94191F0C94441FEF
S11300500C94D0010C94D0010C94D0010C94D001D8
S11300600C94F81D0C94D001036EDB363D9A9999DB
S1130070993DABAAAA2A3E000000803F084AD73B1C
S11300803BCE016E84BCBFFDC12F3D6C74319ABD63
S113009056833DDA3D00C77F11BED9E4BB4C3E9187
S11300A06BAAAABE000000803F072C7AA5BA6CC5D3
S11300B090DA3B9365FC8BBC53F810FD3C5692835D
S11300C04DBD879D3AB63DCBC9BF5BBE73DA0FC940
S11300D03F00041F081F081F081F081F081F081FD0
S11300E0081F181E081F081F081F081F081F081FC5
S11300F0081F181E081F081F081F081F081F081FB5
S1130100081F201E081F081F081F081F081F081F9C
S1130110081F461E081F081F081F081F081F081F66
S1130120081F201E081F081F081F081F081F081F7C
S1130130081F4C1E081F081F081F081F081F081F40
S1130140081F521E081F081F081F081F081F081F2A
S1130150081F641E081F081F081F081F081F081F08
S1130160081F8E1E081F081F081F081F081F081FCE
S1130170081F581E081F081F081F081F081F081FF4
S1130180081F721E081F081F081F081F081F081FCA
S1130190081F911E081F081F081F081F081F081F9B
S11301A0081F911E081F081F081F081F081F081F8B
S11301B0081F911E081F081F081F081F081F081F7B
S11301C0081F911E081F081F081F081F081F081F6B
S11301D0081F9A1E081F081F081F081F081F081F52
S11301E0081FCB1E081F081F081F081F081F081F11
S11301F0081F9A1E081F081F081F081F081F081F32
S1130200081FCB1E081F081F081F081F081F081FF0
S1130210081FB21E081F081F081F081F081F081FF9
S1130220081FCF1E081F081F081F081F081F081FCC
S1130230081FCF1E081F081F081F081F081F081FBC
S1130240081FE41E081F081F081F081F081F081F97
S1130250081FFE1E081F081F081F081F081F081F6D
S1130260081FFE1E6E616E00696E660000407A1003
S1130270F35A00A0724E18090010A5D4E80000E853
S11302807648170000E40B54020000CA9A3B0000B1
S113029000E1F505000080969800000040420F0040
S11302A00000A08601000000102700000000E80301
S11302B0000000006400000000000A0000000000CC
S11302C00100000000002C76D888DC674F0823DF8B
S11302D0C1DFAE59E1B1B796E5E3E453C63AE6515E
S11302E0997696E8E6C28426EB898C9B62ED407C85
S11302F06FFCEFBC9C9F40F2BAA56FA5F490055A21
S11303002AF75C936B6CF9676DC11BFCE0E40D4745
S1130310FEF520E6B500D0ED902E03009435770568
S11303200080841E080000204E0A000000C80C3320
S11303303333330F986E12831141EF8D2114893BAF
S1130340E65516CFFEE6DB18D1844B381BF77C1D2F
S1130350901DA4BBE424203284725E228100C9F182
S113036024ECA1E53D2711241FBECFEFD8E0DEBF6A
S1130370CDBF11E0A0E0B1E0E6EFFAE402C00590E1
S11303800D92A639B107D9F723E0A6E9B1E001C07F
S11303901D92AF38B207E1F70E9425120C9479251B
S11303A00C940000CF93DF93EC0180E090E00E9476
S11303B050259983888382E090E00E9450259B8396
S11303C08A8384E090E00E9450259D838C8386E09C
S11303D090E00E9450259F838E8388E090E00E94E5
S11303E05025998788878AE090E00E9450259B8752
S11303F08A87DF91CF910895CF93DF93EC016881D1
S1130400798180E090E00E9456256A817B8182E0B8
S113041090E00E9456256C817D8184E090E00E94EA
S113042056256E817F8188E090E00E94562568857C
S1130430798586E090E00E9456256A857B858AE06E
S113044090E00E945625DF91CF91089580E090E0DE
S1130450A0E2B1E48093C7019093C801A093C901BD
S1130460B093CA011092C3011092C4011092C50145
S11304701092C60180E090E0A0E8BFE38093BF0142
S11304809093C001A093C101B093C2011092BB012B
S11304901092BC011092BD011092BE011092B701DE
S11304A01092B8011092B9011092BA011092B301DE
S11304B01092B4011092B5011092B6011092AF01DE
S11304C01092B0011092B1011092B2011092AB01DE
S11304D01092AC011092AD011092AE011092A701DE
S11304E01092A8011092A9011092AA0110929601EB
S11304F089E39EE8A3E6BCE38093A3019093A4015F
S1130500A093A501B093A60108958F929F92AF92F4
S1130510BF92CF92DF92EF92FF926B017C0120E0B9
S113052030E040E05FE30E940C194B015C01D7010D
S1130530C601B595A795979587950F2EFFEDCF2EFC
S1130540F9E5DF2EF7E3EF2EFFE5FF2EF02DC81AB5
S1130550D90AEA0AFB0AA7019601C501B4010E945F
S11305600C19A70196010E940C199B01AC0160E0D3
S113057070E080EC9FE30E948116A70196010E941F
S11305800C196B017C019B01AC01C501B4010E94F3
S11305900C19A70196010E940C199B01AC0160E0A3
S11305A070E080EC9FE30E948116A70196010E94EF
S11305B00C19FF90EF90DF90CF90BF90AF909F9079
S11305C08F9008954F925F926F927F928F929F9235
S11305D0AF92BF92CF92DF92EF92FF920F931F934D
S11305E0CF93DF93CDB7DEB7A4970FB6F894DEBFF1
S11305F00FBECDBF29873A874B875C8729E33AEF43
S11306004EE85CE30E940C196D877E878F87988B78
S113061029E33AEF4EE85CE369857A858B859C850E
S11306200E940C1969877A878B879C8729E33AEFA4
S11306304EE85CE3C801B7010E940C19698B7A8B00
S11306408B8B9C8B20E030E0A901C601B5010E9490
S11306507B17811117C020E030E0A9016FA978ADA4
S113066089AD9AAD0E947B1781110CC020E030E067
S1130670A9016BAD7CAD8DAD9EAD0E947B17882327
S113068009F41FC2A6019501C601B5010E940C1907
S11306902B013C012FA938AD49AD5AADCA01B901AE
S11306A00E940C199B01AC01C301B2010E94821685
S11306B02B013C012BAD3CAD4DAD5EADCA01B90182
S11306C00E940C199B01AC01C301B2010E94821665
S11306D00E9485022B013C019B01AC01C601B501BE
S11306E00E940C196D8B7E8B8F8B988FA3019201C6
S11306F06FA978AD89AD9AAD0E940C196D8F7E8F6C
S11307008F8F98A3A30192016BAD7CAD8DAD9EAD8F
S11307100E940C196D837E838F8398878090BB0120
S11307209090BC01A090BD01B090BE014090B30177
S11307305090B4016090B5017090B601C090BF01B3
S1130740D090C001E090C101F090C2018091B70146
S11307509091B801A091B901B091BA0189839A83AB
S1130760AB83BC83A3019201C501B4010E940C199F
S1130770698F7A8F8B8F9C8F29813A814B815C8121
S1130780C701B6010E940C199B01AC01698D7A8DD9
S11307908B8D9C8D0E948116698F7A8F8B8F9C8F95
S11307A0A7019601C501B4010E940C194B015C011B
S11307B029813A814B815C81C301B2010E940C19E9
S11307C09B01AC01C501B4010E94821669837A833E
S11307D08B839C83A7019601C701B6010E940C1963
S11307E020E030E040E05FE30E9481166B017C0171
S11307F0A3019201C301B2010E940C199B01AC0137
S1130800C701B6010E9482166B017C019B01AC01F9
S11308106D8D7E8D8F8D98A10E940C194B015C010A
S113082029813A814B815C816D817E818F8198859C
S11308300E940C199B01AC01C501B4010E948116F0
S113084069A37AA38BA39CA3298D3A8D4B8D5C8DD0
S11308506D817E818F8198850E940C194B015C010A
S1130860A70196016D897E898F89988D0E940C1944
S11308709B01AC01C501B4010E9481166D837E8386
S11308808F83988729813A814B815C816D897E8928
S11308908F89988D0E940C196B017C01298D3A8DEA
S11308A04B8D5C8D6D8D7E8D8F8D98A10E940C1962
S11308B09B01AC01C701B6010E94811669837A834A
S11308C08B839C83C090C301D090C401E090C50188
S11308D0F090C60120E030E0A901C701B6010E94F2
S11308E0FF1818160CF091C08090A3019090A401F9
S11308F0A090A501B090A601A701960169A17AA1D3
S11309008BA19CA10E940C19A50194010E940C19B1
S11309102091AF013091B0014091B1015091B201E9
S11309200E9482166D8B7E8B8F8B988F6093AF01A4
S11309307093B0018093B1019093B201A701960125
S11309406D817E818F8198850E940C19A501940187
S11309500E940C192091AB013091AC014091AD0182
S11309605091AE010E9482162B013C016093AB01B1
S11309707093AC018093AD019093AE01A7019601F1
S113098069817A818B819C810E940C19A501940153
S11309900E940C192091A7013091A8014091A9014E
S11309A05091AA010E9482166B017C016093A701F9
S11309B07093A8018093A9019093AA012D893E897F
S11309C04F89588D6D857E858F8598890E94821602
S11309D06D877E878F87988BA301920169857A85BD
S11309E08B859C850E94821669877A878B879C8772
S11309F0A701960169897A898B899C890E9482164C
S1130A00698B7A8B8B8B9C8B18C01092AF011092E0
S1130A10B0011092B1011092B2011092AB01109288
S1130A20AC011092AD011092AE011092A701109288
S1130A30A8011092A9011092AA01C090C701D090F8
S1130A40C801E090C901F090CA01A701960169A10B
S1130A507AA18BA19CA10E940C199B01AC016D850C
S1130A607E858F8598890E9482166D877E878F8701
S1130A70988BA70196016D817E818F8198850E9454
S1130A800C199B01AC0169857A858B859C850E9434
S1130A90821669877A878B879C87A701960169816B
S1130AA07A818B819C810E940C199B01AC0169891C
S1130AB07A898B899C890E948216698B7A8B8B8BAD
S1130AC09C8B20E030E040E05FE36091A3017091F3
S1130AD0A4018091A5019091A6010E940C196B01BB
S1130AE07C019B01AC016D857E858F8598890E9470
S1130AF00C1969837A838B839C83A701960169858A
S1130B007A858B859C850E940C196D837E838F83E7
S1130B109887A701960169897A898B899C890E94A3
S1130B200C19698B7A8B8B8B9C8B8091BF01909174
S1130B30C001A091C101B091C2018D879E87AF878A
S1130B40B88BC090BB01D090BC01E090BD01F09087
S1130B50BE018091B7019091B801A091B901B09103
S1130B60BA0189879A87AB87BC874090B3015090BC
S1130B70B4016090B5017090B601C701B6019058F8
S1130B8029813A814B815C810E940C194B015C01E3
S1130B9029853A854B855C856D817E818F81988519
S1130BA00E940C199B01AC01C501B4010E9481167D
S1130BB04B015C01A301920169897A898B899C8923
S1130BC00E940C199B01AC01C501B4010E9481165D
S1130BD02D853E854F8558890E9482166D8B7E8BAC
S1130BE08F8B988F2D853E854F85588969817A81B1
S1130BF08B819C810E940C194B015C0129853A85EB
S1130C004B855C8569897A898B899C890E940C193A
S1130C109B01AC01C501B4010E9482164B015C0129
S1130C20A30192016D817E818F8198850E940C19A8
S1130C309B01AC01C501B4010E948116A701960174
S1130C400E9482166D8F7E8F8F8F98A32D853E858F
S1130C504F8558896D817E818F8198850E940C19FA
S1130C604B015C01A701960169897A898B899C896A
S1130C700E940C199B01AC01C501B4010E948116AC
S1130C804B015C01A301920169817A818B819C8172
S1130C900E940C199B01AC01C501B4010E9482168B
S1130CA029853A854B855C850E948216698F7A8FE7
S1130CB08B8F9C8F2D853E854F85588969897A89CC
S1130CC08B899C890E940C194B015C01A701960138
S1130CD06D817E818F8198850E940C199B01AC01E6
S1130CE0C501B4010E9482166B017C0129853A85F5
S1130CF04B855C8569817A818B819C810E940C196A
S1130D009B01AC01C701B6010E948116A3019201A7
S1130D100E9482164B015C012D893E894F89588DB2
S1130D20CA01B9010E940C196B017C012D8D3E8D05
S1130D304F8D58A1CA01B9010E940C199B01AC0145
S1130D40C701B6010E9482166B017C01298D3A8D80
S1130D504B8D5C8DCA01B9010E940C199B01AC0139
S1130D60C701B6010E9482166B017C01A5019401A2
S1130D70C501B4010E940C199B01AC01C701B60165
S1130D800E9482160E9485026B017C019B01AC01CA
S1130D906D897E898F89988D0E940C196093BF019B
S1130DA07093C0018093C1019093C201A701960181
S1130DB06D8D7E8D8F8D98A10E940C196093BB015F
S1130DC07093BC018093BD019093BE01A70196016D
S1130DD0698D7A8D8B8D9C8D0E940C196093B7015F
S1130DE07093B8018093B9019093BA01A701960159
S1130DF0C501B4010E940C196093B3017093B4014E
S1130E008093B5019093B60110929601A4960FB603
S1130E10F894DEBF0FBECDBFDF91CF911F910F912C
S1130E20FF90EF90DF90CF90BF90AF909F908F9006
S1130E307F906F905F904F9008952F923F924F92C2
S1130E405F926F927F928F929F92AF92BF92CF9256
S1130E50DF92EF92FF920F931F93CF93DF93CDB75F
S1130E60DEB7C455D1090FB6F894DEBF0FBECDBFAF
S1130E7069877A878B879C8729013A01E98AFA8AEC
S1130E800B8B1C8BAA96FFACAA97AB96EFACAB97D7
S1130E90AC969FACAC97AD968FACAD97AE961FADAC
S1130EA0AE97AF960FADAF97E0963FACE097E19663
S1130EB02FACE19720E030E0A901E5966CAD7DAD63
S1130EC08EAD9FADE5970E947B17811134C020E061
S1130ED030E0A901E9966CAD7DAD8EAD9FADE9978B
S1130EE00E947B17811127C020E030E0A901ED9614
S1130EF06CAD7DAD8EAD9FADED970E947B178111DA
S1130F001AC02F923F920F931F938F929F92EF924A
S1130F10FF92E988FA880B891C89A30192016985EB
S1130F207A858B859C850E94E2020FB6F894DEBF19
S1130F300FBECDBF98C629E33AEF4EE85CE369855E
S1130F407A858B859C850E940C196D8B7E8B8F8B8B
S1130F50988F29E33AEF4EE85CE3C301B2010E94A3
S1130F600C196D8F7E8F8F8F98A329E33AEF4EE88B
S1130F705CE369897A898B899C890E940C19698B45
S1130F807A8B8B8B9C8B20E030E0A901C601B501E4
S1130F900E947B17811117C020E030E0A9016F2D5A
S1130FA07E2D892D982D0E947B1781110CC020E085
S1130FB030E0A901612F702F832D922D0E947B17A1
S1130FC0882309F4ADC4A6019501C601B5010E94A8
S1130FD00C192B013C012F2D3E2D492D582D6F2D21
S1130FE07E2D892D982D0E940C199B01AC01C30103
S1130FF0B2010E9482162B013C01212F302F432D78
S1131000522D612F702F832D922D0E940C199B015C
S1131010AC01C301B2010E9482160E9485022B0119
S11310203C019B01AC01C601B5010E940C1969ABDE
S11310307AAB8BAB9CABA30192016F2D7E2D892DD6
S1131040982D0E940C196DAB7EAB8FAB98AFA301AA
S11310509201612F702F832D922D0E940C1969AF7C
S11310607AAF8BAF9CAFE5962CAD3DAD4EAD5FAD89
S1131070E597CA01B9010E940C196B017C01E9963C
S11310802CAD3DAD4EAD5FADE997CA01B9010E94EB
S11310900C199B01AC01C701B6010E9482166B01B9
S11310A07C01ED962CAD3DAD4EAD5FADED97CA0123
S11310B0B9010E940C199B01AC01C701B6010E9441
S11310C082160E9485026B017C019B01AC01E596AE
S11310D06CAD7DAD8EAD9FADE5970E940C1969870F
S11310E07A878B879C87A7019601E9966CAD7DADC5
S11310F08EAD9FADE9970E940C196D837E838F831B
S11311009887A7019601ED966CAD7DAD8EAD9FAD30
S1131110ED970E940C196D877E878F87988B80913D
S1131120BF019091C001A091C101B091C201898316
S11311309A83AB83BC83C090BB01D090BC01E09088
S1131140BD01F090BE01A7019601BC01CD010E9432
S11311500C196DA37EA38FA398A74090B70150905C
S1131160B8016090B9017090BA01A301920169813C
S11311707A818B819C810E940C1969A37AA38BA329
S11311809CA38090B3019090B401A090B501B0905D
S1131190B601A501940169817A818B819C810E94A9
S11311A00C19698F7A8F8B8F9C8FA3019201C701D1
S11311B0B6010E940C1969A77AA78BA79CA7A50161
S11311C09401C701B6010E940C196DA77EA78FA7D1
S11311D098ABA3019201C301B2010E940C1921969C
S11311E06CAF7DAF8EAF9FAF2197A5019401C30172
S11311F0B2010E940C1925966CAF7DAF8EAF9FAFE4
S11312002597A5019401C501B4010E940C192B0175
S11312103C0121962CAD3DAD4EAD5FAD219760E014
S113122070E080E09FE30E948116A30192010E9476
S1131230811629966CAF7DAF8EAF9FAF2997298D0C
S11312403A8D4B8D5C8D69A57AA58BA59CA50E94D2
S113125081162D966CAF7DAF8EAF9FAF2D972DA5C8
S11312603EA54FA558A969A17AA18BA19CA10E9472
S1131270821661966CAF7DAF8EAF9FAF6197299652
S11312802CAD3DAD4EAD5FAD299769857A858B85D3
S11312909C850E940C194B015C012D962CAD3DAD33
S11312A04EAD5FAD2D976D817E818F8198850E94B3
S11312B00C199B01AC01C501B4010E9482164B01BB
S11312C05C0161962CAD3DAD4EAD5FAD61976D8512
S11312D07E858F8598890E940C199B01AC01C501FC
S11312E0B4010E9482169B01AC010E9482164B013C
S11312F05C01A7019601C701B6010E940C199B016C
S1131300AC0160E070E080E09FE30E948116659686
S11313106CAF7DAF8EAF9FAF659729A53AA54BA55E
S11313205CA5698D7A8D8B8D9C8D0E948216298592
S11313303A854B855C850E940C196B017C01A301E5
S1131340920165966CAD7DAD8EAD9FAD65970E94A3
S113135081162D813E814F8158850E940C199B0175
S1131360AC01C701B6010E9482166B017C012DA15C
S11313703EA14FA158A525966CAD7DAD8EAD9FAD18
S113138025970E9481162D853E854F8558890E9498
S11313900C199B01AC01C701B6010E9482169B0186
S11313A0AC010E9482166B017C01A5019401C50168
S11313B0B4010E940C19698F7A8F8B8F9C8FA501C1
S11313C09401C501B4010E940C194B015C01A701F1
S11313D09601C701B6010E940C199B01AC01C5011D
S11313E0B4010E9482160E947F194B015C0129A15D
S11313F03AA14BA15CA16DA57EA58FA598A90E94D9
S1131400811669A37AA38BA39CA325962CAD3DAD2D
S11314104EAD5FAD25976DA17EA18FA198A50E94C9
S113142082166DA37EA38FA398A721962CAD3DAD04
S11314304EAD5FAD219765966CAD7DAD8EAD9FAD24
S113144065970E948116698F7A8F8B8F9C8F29A153
S11314503AA14BA15CA169857A858B859C850E9404
S11314600C196B017C012DA13EA14FA158A56D81E2
S11314707E818F8198850E940C199B01AC01C70164
S1131480B6010E9482166B017C01298D3A8D4B8D29
S11314905C8D6D857E858F8598890E940C199B01D2
S11314A0AC01C701B6010E9482169B01AC010E94E7
S11314B082166B017C0129813A814B815C81CA01CE
S11314C0B9010E940C1920E030E040E05FE30E9483
S11314D08116A30192010E94821669837A838B8309
S11314E09C83A501940129966CAD7DAD8EAD9FAD15
S11314F029970E940C192B013C01A701960169A1AF
S11315007AA18BA19CA10E940C199B01AC01C3017F
S1131510B2010E94821669A77AA78BA79CA7A5018E
S113152094012D966CAD7DAD8EAD9FAD2D970E942F
S11315300C192B013C01A70196016DA17EA18FA17D
S113154098A50E940C199B01AC01C301B2010E9431
S113155082166DA77EA78FA798ABA501940161960B
S11315606CAD7DAD8EAD9FAD61970E940C192B01C2
S11315703C01A7019601698D7A8D8B8D9C8D0E940B
S11315800C199B01AC01C301B2010E9482166B01CC
S11315907C0129813A814B815C816DA97EA98FA947
S11315A098AD0E940C194B015C012DA13EA14FA1E5
S11315B058A569AD7AAD8BAD9CAD0E940C199B0109
S11315C0AC01C501B4010E9481164B015C01A70165
S11315D096016D817E818F8198850E940C192B0163
S11315E03C012DA53EA54FA558A96D857E858F8507
S11315F098890E940C199B01AC01C301B2010E949D
S113160081169B01AC01C501B4010E948216698F49
S11316107A8F8B8F9C8F29A13AA14BA15CA169ADD4
S11316207AAD8BAD9CAD0E940C194B015C012981F4
S11316303A814B815C8169A97AA98BA99CA90E94F2
S11316400C199B01AC01C501B4010E9481164B0128
S11316505C0129A53AA54BA55CA56D857E858F8582
S113166098890E940C192B013C01A70196016985F8
S11316707A858B859C850E940C199B01AC01C30162
S1131680B2010E9481169B01AC01C501B4010E9404
S1131690821669837A838B839C832DA13EA14FA1FB
S11316A058A569A97AA98BA99CA90E940C196B0158
S11316B07C0129A13AA14BA15CA16DA97EA98FA9A6
S11316C098AD0E940C199B01AC01C701B6010E94A0
S11316D081166B017C012DA53EA54FA558A96985EE
S11316E07A858B859C850E940C194B015C0129A588
S11316F03AA54BA55CA56D817E818F8198850E945A
S11317000C199B01AC01C501B4010E9481169B0117
S1131710AC01C701B6010E94821669877A878B875C
S11317209C87C090C301D090C401E090C501F090A3
S1131730C60120E030E0A901C701B6010E94FF18EC
S113174018160CF091C08090A3019090A401A09071
S1131750A501B090A601A7019601698D7A8D8B8DA4
S11317609C8D0E940C19A50194010E940C192091D2
S1131770AF013091B0014091B1015091B2010E948A
S113178082166D837E838F8398876093AF017093F5
S1131790B0018093B1019093B201A70196016981D0
S11317A07A818B819C810E940C19A50194010E946D
S11317B00C192091AB013091AC014091AD015091D5
S11317C0AE010E9482162B013C016093AB01709321
S11317D0AC018093AD019093AE01A7019601698598
S11317E07A858B859C850E940C19A50194010E9421
S11317F00C192091A7013091A8014091A9015091A1
S1131800AA010E9482166B017C016093A701709368
S1131810A8018093A9019093AA012D813E814F8153
S113182058856D897E898F89988D0E9482166D8B6B
S11318307E8B8F8B988FA30192016D8D7E8D8F8D02
S113184098A10E9482166D8F7E8F8F8F98A3A70117
S1131850960169897A898B899C890E948216698B91
S11318607A8B8B8B9C8B18C01092AF011092B001B5
S11318701092B1011092B2011092AB011092AC011E
S11318801092AD011092AE011092A7011092A8011E
S11318901092A9011092AA01C090C701D090C8016A
S11318A0E090C901F090CA01A7019601698D7A8D73
S11318B08B8D9C8D0E940C199B01AC016D897E89D6
S11318C08F89988D0E9482166D8B7E8B8F8B988F5B
S11318D0A701960169817A818B819C810E940C19F0
S11318E09B01AC016D8D7E8D8F8D98A10E94821617
S11318F06D8F7E8F8F8F98A3A701960169857A8556
S11319008B859C850E940C199B01AC0169897A899D
S11319108B899C890E948216698B7A8B8B8B9C8B1A
S113192020E030E040E05FE36091A3017091A40106
S11319308091A5019091A6010E940C196B017C0174
S11319409B01AC016D897E898F89988D0E940C1949
S11319506D837E838F839887A70196016D8D7E8D1D
S11319608F8D98A10E940C196D877E878F87988B25
S1131970A701960169897A898B899C890E940C192F
S11319806D8B7E8B8F8B988F8091BF019091C0015E
S1131990A091C101B091C20189839A83AB83BC83B6
S11319A0C090BB01D090BC01E090BD01F090BE019D
S11319B08091B7019091B801A091B901B091BA0199
S11319C089879A87AB87BC874090B3015090B40154
S11319D06090B5017090B601C701B60190582D8191
S11319E03E814F8158850E940C194B015C01298569
S11319F03A854B855C856D857E858F8598890E94A7
S1131A000C199B01AC01C501B4010E9481164B0164
S1131A105C01A30192016D897E898F89988D0E9452
S1131A200C199B01AC01C501B4010E9481162981E6
S1131A303A814B815C810E9482166D8F7E8F8F8FDD
S1131A4098A329813A814B815C816D817E818F814C
S1131A5098850E940C194B015C0129853A854B85B8
S1131A605C856D897E898F89988D0E940C199B01F4
S1131A70AC01C501B4010E9482164B015C01A301B3
S1131A8092016D857E858F8598890E940C199B0132
S1131A90AC01C501B4010E948116A70196010E9400
S1131AA08216698B7A8B8B8B9C8B29813A814B8133
S1131AB05C816D857E858F8598890E940C194B0108
S1131AC05C01A70196016D897E898F89988D0E949A
S1131AD00C199B01AC01C501B4010E9481164B0194
S1131AE05C01A30192016D817E818F8198850E94A2
S1131AF00C199B01AC01C501B4010E948216298511
S1131B003A854B855C850E9482164B015C012981D4
S1131B103A814B815C816D897E898F89988D0E9481
S1131B200C1969837A838B839C83A70196016D8545
S1131B307E858F8598890E940C199B01AC0169816F
S1131B407A818B819C810E9482166B017C0129859C
S1131B503A854B855C856D817E818F8198850E9455
S1131B600C199B01AC01C701B6010E948116A301A7
S1131B7092010E9482166B017C012D8D3E8D4F8D4A
S1131B8058A1CA01B9010E940C192B013C012989F1
S1131B903A894B895C89CA01B9010E940C199B01DD
S1131BA0AC01C301B2010E9482162B013C01A501C4
S1131BB09401C501B4010E940C199B01AC01C3013D
S1131BC0B2010E9482162B013C01A7019601C701B4
S1131BD0B6010E940C199B01AC01C301B2010E9421
S1131BE082160E9485022B013C019B01AC016D8D84
S1131BF07E8D8F8D98A10E940C196093BF01709304
S1131C00C0018093C1019093C201A301920169892B
S1131C107A898B899C890E940C196093BB0170930B
S1131C20BC018093BD019093BE01A3019201C50143
S1131C30B4010E940C196093B7017093B8018093AA
S1131C40B9019093BA01A3019201C701B6010E94A0
S1131C500C196093B3017093B4018093B501909310
S1131C60B60110929601CC5ADF4F0FB6F894DEBF3E
S1131C700FBECDBFDF91CF911F910F91FF90EF90D9
S1131C80DF90CF90BF90AF909F908F907F906F9098
S1131C905F904F903F902F9008954F925F926F9274
S1131CA07F928F929F92AF92BF92CF92DF92EF92E8
S1131CB0FF92CF93DF93CDB7DEB760970FB6F8945A
S1131CC0DEBF0FBECDBF8090BB019090BC01A09041
S1131CD0BD01B090BE014090B7015090B801609032
S1131CE0B9017090BA01A3019201C301B2010E942B
S1131CF00C1969837A838B839C838091BF019091B3
S1131D00C001A091C101B091C2018D839E83AF83B4
S1131D10B887C090B301D090B401E090B501F090C1
S1131D20B601A5019401C501B4010E940C199B01DF
S1131D30AC0160E070E080E09FE30E94811629819D
S1131D403A814B815C810E94811669877A878B87EF
S1131D509C872D813E814F815885C501B4010E9425
S1131D600C196D877E878F87988BA7019601C30115
S1131D70B2010E940C199B01AC016D857E858F8593
S1131D8098890E94821629853A854B855C850E9434
S1131D901C1760939F017093A0018093A1019093FD
S1131DA0A201A7019601C501B4010E940C1969871B
S1131DB07A878B879C872D813E814F815885C3010B
S1131DC0B2010E940C199B01AC0169857A858B854F
S1131DD09C850E94811620E030E040E050EC0E9497
S1131DE00C190E94EE1660939B0170939C018093E2
S1131DF09D0190939E0129813A814B815C8160E031
S1131E0070E080E09FE30E94811669837A838B836C
S1131E109C83A7019601C701B6010E940C199B017E
S1131E20AC0169817A818B819C810E9481166983CE
S1131E307A838B839C83A3019201C501B4010E9420
S1131E400C194B015C01A70196016D817E818F8184
S1131E5098850E940C199B01AC01C501B4010E9434
S1131E60821629813A814B815C810E941C17609300
S1131E709701709398018093990190939A0181E05E
S1131E808093960160960FB6F894DEBF0FBECDBF67
S1131E90DF91CF91FF90EF90DF90CF90BF90AF9004
S1131EA09F908F907F906F905F904F900895809156
S1131EB09601811102C00E944D0E21EE3EE245E6DC
S1131EC052E460919F017091A0018091A1019091D1
S1131ED0A2010E940C19089580919601811102C0FB
S1131EE00E944D0E21EE3EE245E652E460919B01D4
S1131EF070919C0180919D0190919E010E940C190A
S1131F00089580919601811102C00E944D0E21EE28
S1131F103EE245E652E46091970170919801809108
S1131F20990190919A010E940C1920E030E044E359
S1131F3053E40E9482160895CF93DF930E940B1BF3
S1131F408093CB010BC0D0E00E940B1BC453DE4F27
S1131F5088838091CB018F5F8093CB010E94031B08
S1131F60892B21F0C091CB01CD3068F3DF91CF9163
S1131F7008950BC0F0E0E453FE4F80810E948F1A55
S1131F808091CB018F5F8093CB010E946F1A8430C4
S1131F9021F4E091CB01ED3068F308950F931F9382
S1131FA0CF93DF93CDB7DEB72C970FB6F894DEBF8F
S1131FB00FBECDBF8E010F5F1F4F8CE0F801119251
S1131FC08A95E9F780E091E00E949C1FC8010E9475
S1131FD04816C8010E94FC018DE191E00E949C1FFB
S1131FE0C8010E94D20189819A810E949F138B812A
S1131FF09C810E94A5138D819E810E94AB138F81C9
S113200098850E94B11389859A850E94B7138B85A0
S11320109C850E94BD132C960FB6F894DEBF0FBEAC
S1132020CDBFDF91CF911F910F910895CF93DF938F
S1132030CDB7DEB72C970FB6F894DEBF0FBECDBF79
S1132040259A81E08093CC0178942FEF81EE94E07F
S1132050215080409040E1F700C0000060E074E24D
S113206084EF90E00E94FD190E94591A81E00E94B9
S11320706C1A8CE99FE00E941F1B89EB9FE00E9471
S1132080241B80E190E00E946E1FEFEFF1EE24E04C
S1132090E150F0402040E1F700C00000CE0101967D
S11320A02CE0FC0111922A95E9F70E94D2018C855B
S11320B08F938B858F938A858F9389858F9388855A
S11320C08F938F818F938E818F938D818F938C814A
S11320D08F938B818F938A818F9389818F9387E3E9
S11320E091E09F938F938BED91E09F938F930E9448
S11320F0D0248BED91E00E949C1F85E691E00E9424
S11321009C1F0FB6F894DEBF0FBECDBF2C960FB642
S1132110F894DEBF0FBECDBFDF91CF910895CF936A
S1132120DF93CDB7DEB72C970FB6F894DEBF0FBEA2
S1132130CDBF0E941813CE0101962CE0FC01119230
S11321402A95E9F70E94D20189819A810E949F13FE
S11321508B819C810E94A5138D819E810E94AB136B
S11321608F8198850E94B11389859A850E94B7133F
S11321708B859C850E94BD130E94161A9F938F9392
S11321807F936F9381E791E09F938F938BED91E021
S11321909F938F930E94D0248BED91E00E949C1F0B
S11321A00E9497120E942602FFEF21EE84E0F15074
S11321B020408040E1F700C000000FB6F894DEBF75
S11321C00FBECDBF2C960FB6F894DEBF0FBECDBFA9
S11321D0DF91CF9108954F925F926F927F92AF9269
S11321E0BF92CF92DF92EF92FF920F931F93CF9300
S11321F0DF9300D000D0CDB7DEB70F2EFAE3EF2E79
S1132200F3E0FF2EF02D02E313E02EE333E044E38A
S113221053E060E473E088E393E00E942B134CE303
S113222053E066E373E082E493E00E94A3126091BA
S11322303A0370913B03072E000C880B990B0E9404
S1132240F4172FE632E143E85AE30E940C192B01FC
S11322503C016091380370913903072E000C880B00
S1132260990B0E94F4172FE632E143E85AE30E94E7
S11322700C195B016C016091320370913303072EDA
S1132280000C880B990B0E94F4172FE632E143E807
S11322905AE30E940C1969837A838B839C8360912F
S11322A03C0370913D03072E000C880B990B0E9490
S11322B0F4172FE632E143E85AE30E940C199F9386
S11322C08F937F936F936091360370913703072E3A
S11322D0000C880B990B0E94F4172FE632E143E8B7
S11322E05AE30E940C199F938F937F936F9360918D
S11322F0420370914303072E000C880B990B0E9434
S1132300F4172FE632E143E85AE30E940C199F9335
S11323108F937F936F936091340370913503072EED
S1132320000C880B990B0E94F4172FE632E143E866
S11323305AE30E940C199F938F937F936F9360913C
S1132340400370914103072E000C880B990B0E94E7
S1132350F4172FE632E143E85AE30E940C199F93E5
S11323608F937F936F938301720129813A814B810B
S11323705C81C301B2010E941D070E94570F262FE2
S1132380462F572F682F792FEEE2F3E040835183D5
S1132390628373830CEC11E0F801218380912F0395
S11323A082838091300383838091310384830E94EC
S11323B06C0F262F462F572F682F792FEEE2F3E06C
S11323C04083518362837383F801258380912F03B3
S11323D086838091300387838091310380870E94B4
S11323E0810F262F462F572F682F792FEEE2F3E027
S11323F04083518362837383F801218780912F0383
S11324008287809130038387809131038487EEE251
S1132410F3E010821182128213820FB6F894DEBFA9
S11324200FBECDBF0F900F900F900F90DF91CF9103
S11324301F910F91FF90EF90DF90CF90BF90AF90DE
S11324407F906F905F904F900895CCECD1E081E045
S113245088830E9416100E948F1083E0888385E889
S113246091E00E949C1F812C912C5401C12CD12CF1
S1132470760110E203E088818A3081F50E94161A01
S1132480DC01CB0188199909AA09BB090F97A10599
S1132490B1057CF00E94EB108091D9019091DA0192
S11324A001969093DA018093D9010E94161A4B0188
S11324B05C010E94161ADC01CB018C199D09AE093E
S11324C0BF09893E9340A105B105ACF285B18127CE
S11324D085B90E94161A6B017C01CDCF88818230A8
S11324E051F688E091E00E949C1F85B1812785B94F
S11324F00E94CE0F088385B1812785B985E291E0DA
S11325000E949C1FB8CF482F4295440F407E61E043
S11325108EE10E94161C0895CF93C82F482F62E0C5
S11325208EE10E94161CC0934403CF91089540E7A6
S113253060E08EE10E94161C81E00E94831281E01B
S11325400E948C120895CF92DF92EF92FF920F9324
S11325501F93CF93DF936C017B01EA0108EE13E034
S113256025E433E046E063E08EE10E94291B80917C
S11325704403813029F441E062E08EE10E94161C9C
S1132580E5E4F3E0808190E0982F88272181822B75
S1132590D6018D939C93848190E0982F8827258180
S11325A0822BD7018D939C93828190E0982F88276A
S11325B02381822B99838883DF91CF911F910F917F
S11325C0FF90EF90DF90CF9008950F93082F23E0B2
S11325D042E06BE688E60E945D1C0F9108950F931C
S11325E0082F22E044E06BE188E60E945D1C0F9115
S11325F008950F93082F22E044E06CE188E60E94DE
S11326005D1C0F910895282F46E06BE688E60E9432
S1132610261C0895282F45E06AE688E60E94261CB9
S11326200895282F41E067E388E60E94261C089558
S113263080E00E940A1381E00E94111381E00E944D
S1132640E51281E00E94EF1282E00E94F91280E01C
S11326500E94031308954F925F926F927F928F921C
S11326609F92AF92BF92CF92DF92EF92FF920F931D
S11326701F93CF93DF93CDB7DEB72E970FB6F894A1
S1132680DEBF0FBECDBF3C014B015A0169012801D9
S113269008EE13E09E012F5F3F4F4EE06BE388E6A8
S11326A00E94291B898190E0982F88272A81822BF8
S11326B0F301918380838B8190E0982F88272C816C
S11326C0822BF401918380838D8190E0982F882759
S11326D02E81822BF50191838083898590E0982F48
S11326E088272A85822BF601918380838B8590E04D
S11326F0982F88272C85822BF201918380838D85E6
S113270090E0982F88272E85822BF7019183808370
S11327102E960FB6F894DEBF0FBECDBFDF91CF91DA
S11327201F910F91FF90EF90DF90CF90BF90AF90EB
S11327309F908F907F906F905F904F900895AC0121
S113274066E088E60E94D21C0895AC0168E088E641
S11327500E94D21C0895AC016AE088E60E94D21C53
S11327600895AC0163E188E60E94D21C0895AC018F
S113277065E188E60E94D21C0895AC0167E188E611
S11327800E94D21C08954F925F926F927F928F9213
S11327909F92AF92BF92CF92DF92EF92FF920F93EC
S11327A01F93CF93DF93CDB7DEB7A0970FB6F894FE
S11327B0DEBF0FBECDBF6C019E01255F3F4F790187
S11327C08E01075F1F4F24503109AE014B5F5F4FED
S11327D0BE016D5F7F4FCE0101960E942B130F2E19
S11327E0FCE98F2E99249A94A92CB92CF02D1D8ED6
S11327F01E8E1F8E18A2198E1A8E1B8E1C8E1D8A79
S11328001E8A1F8A188E198A1A8A1B8A1C8A412CCE
S1132810512C32011D861E861F86188AC0C08981EC
S11328209A81092E000CAA0BBB0B2D853E854F8582
S11328305889280F391F4A1F5B1F2D873E874F87F2
S1132840588B8B819C81092E000CAA0BBB0B480E64
S1132850591E6A1E7B1E8D819E81092E000CAA0BB7
S1132860BB0B29893A894B895C89280F391F4A1F78
S11328705B1F298B3A8B4B8B5C8B8F819885092E40
S1132880000CAA0BBB0B2D893E894F89588D280F4C
S1132890391F4A1F5B1F2D8B3E8B4F8B588F8985A9
S11328A09A85092E000CAA0BBB0B298D3A8D4B8DF2
S11328B05C8D280F391F4A1F5B1F298F3A8F4B8F5E
S11328C05C8F8B859C85092E000CAA0BBB0B2D8D70
S11328D03E8D4F8D58A1280F391F4A1F5B1F2D8F26
S11328E03E8F4F8F58A33FEF831A930AA30AB30A6C
S11328F048EE841643E09406A104B10409F04FC0E5
S11329000F2EF8EE8F2EF3E09F2EA12CB12CF02D7C
S11329106D857E858F859889A50194010E944A233F
S1132920F60131832083C301B201A50194010E9401
S11329304A23F6013383228369897A898B899C89A6
S1132940A50194010E944A23F601358324836D89ED
S11329507E898F89988DA50194010E944A23F601EE
S113296037832683698D7A8D8B8D9C8DA501940187
S11329700E944A23F601318720876D8D7E8D8F8DCD
S113298098A1A50194010E944A23F6013387228766
S11329908FE39CE90197F1F700C0000022C0EFE348
S11329A0FCE93197F1F700C000009E01255F3F4F1D
S11329B079018E01075F1F4F24503109AE014B5F2F
S11329C05F4FBE016D5F7F4FCE0101960E942B13B6
S11329D038EE831633E09306A104B10408F41FCF44
S11329E082CFA0960FB6F894DEBF0FBECDBFDF91A5
S11329F0CF911F910F91FF90EF90DF90CF90BF90F8
S1132A00AF909F908F907F906F905F904F900895BC
S1132A102F923F924F925F926F927F928F929F92EA
S1132A20AF92BF92CF92DF92EF92FF920F931F93D8
S1132A30CF93DF93EC011B01A880B980B194A194DA
S1132A40B1081AF427E0A20EB11CB594A794B5946A
S1132A50A794B594A7946A807B807194619471085B
S1132A601AF447E0640E711C759467947594679426
S1132A70759467942C813D8180E090E4821B930BD4
S1132A802C011AF457E0450E511C55944794559463
S1132A90479455944794CE80DF80D194C194D10853
S1132AA01AF483E0C80ED11CD594C794D594C79466
S1132AB0E884F984F194E194F1081AF4E3E0EE0E69
S1132AC0F11CF594E794F594E7940A851B85119518
S1132AD00195110912F40D5F1F4F15950795159572
S1132AE00795812C6894992496F8C5010E949F1338
S1132AF0C3010E94A513C2010E94AB13C6010E9428
S1132B00B113C7010E94B713C8010E94BD13CE01BF
S1132B100E94C313888199819C01992324F422275C
S1132B203327281B390B2930310584F09C01992364
S1132B3014F4295F3F4F359527953595279535959D
S1132B402795A21AB30A80E090E002C081E090E0E9
S1132B502A813B81A901332324F444275527421BAE
S1132B60530B4930510514F401960DC0A9013323C8
S1132B7014F4495F5F4F559547955595479555957D
S1132B804795641A750A2C813D81A401421B530B9D
S1132B909A0122F444275527421B530B493051050F
S1132BA014F401960DC0A901332314F4495F5F4F57
S1132BB0559547955595479555954795440E551EFA
S1132BC02E813F81A901332324F444275527421B36
S1132BD0530B4230510514F4019609C0A901332363
S1132BE014F44F5F5F4F55954795C41AD50A28854D
S1132BF03985A901332324F444275527421B530B59
S1132C004230510514F4019609C0A901332314F488
S1132C104F5F5F4F55954795E41AF50A2A853B8522
S1132C20A901332324F444275527421B530B423074
S1132C30510514F4019609C0A901332314F44F5F1C
S1132C405F4F55954795041B150B069709F04DCF1B
S1132C50F101B182A0827382628255824482D7825A
S1132C60C682F186E08613870287DF91CF911F9198
S1132C700F91FF90EF90DF90CF90BF90AF909F9017
S1132C808F907F906F905F904F903F902F9008951A
S1132C900F931F93CF93DF93CDB7DEB72C970FB667
S1132CA0F894DEBF0FBECDBF8C0180E090E00E949F
S1132CB09F1380E090E00E94A51380E090E00E94C2
S1132CC0AB1380E090E00E94B11380E090E00E949A
S1132CD0B71380E090E00E94BD13CE0101960E94DC
S1132CE0C313B801CE0101960E9408152C960FB6A5
S1132CF0F894DEBF0FBECDBFDF91CF911F910F912E
S1132D0008955058BB27AA270E9499160C94C518F9
S1132D100E94B71838F00E94BE1820F039F49F3F83
S1132D2019F426F40C9479180EF4E095E7FB0C944E
S1132D307318E92F0E94D61858F3BA17620773075D
S1132D408407950720F079F4A6F50C94F8180EF48E
S1132D50E0950B2EBA2FA02D0B01B90190010C01A7
S1132D60CA01A0011124FF27591B99F0593F50F4BF
S1132D70503E68F11A16F040A22F232F342F442717
S1132D80585FF3CF469537952795A795F04053950F
S1132D90C9F77EF41F16BA0B620B730B840BBAF0DF
S1132DA09150A1F0FF0FBB1F661F771F881FC2F74A
S1132DB00EC0BA0F621F731F841F48F4879577955E
S1132DC06795B795F7959E3F08F0B0CF9395880F18
S1132DD008F09927EE0F9795879508959F939F770D
S1132DE0EEE389379E0728F4E8E6F0E00E94A31892
S1132DF00CC00E942F189058A2EA2AED3FE049EC3B
S1132E005FE30E9499160E94C5180F9007FC905822
S1132E1008950E94B71860F080E891E009F49EEFED
S1132E200E94BE1828F040E851E071F45EEF0CC037
S1132E300C9479180C94F818E92FE0780E94D618AD
S1132E4040F3092E052AB1F3261737074807590717
S1132E5038F00E2E07F8E02569F0E025E0640AC09A
S1132E60EF6307F8009407FADB01B9019D01DC0167
S1132E70CA01AD01EF930E9497170E94C5180E94E2
S1132E804C175F91552339F02BED3FE049E450FD99
S1132E9049EC0C9482160895DF93DD27B92FBF7790
S1132EA040E85FE31616170648075B0718F4D92FA6
S1132EB00E9404199F938F937F936F930E94BF196D
S1132EC0ECE7F0E00E947C180E94C5182F913F9116
S1132ED04F915F910E941F19DD2351F09058A2EA8F
S1132EE02AED3FE049EC5FE3D0785D270E94991614
S1132EF0DF910C94C5180E944F1808F481E00895DE
S1132F000E9494170C94C5180E94BE1858F00E9491
S1132F10B71840F029F45F3F29F00C94731851114D
S1132F200C94F9180C9479180E94D61868F3992314
S1132F30B1F3552391F3951B550BBB27AA276217B1
S1132F407307840738F09F5F5F4F220F331F441FBE
S1132F50AA1FA9F335D00E2E3AF0E0E832D09150F2
S1132F605040E695001CCAF72BD0FE2F29D0660FDF
S1132F70771F881FBB1F261737074807AB07B0E822
S1132F8009F0BB0B802DBF01FF2793585F4F3AF028
S1132F909E3F510578F00C9473180C94F9185F3F18
S1132FA0E4F3983ED4F3869577956795B795F795AE
S1132FB09F5FC9F7880F911D9695879597F9089596
S1132FC0E1E0660F771F881FBB1F62177307840732
S1132FD0BA0720F0621B730B840BBA0BEE1F88F741
S1132FE0E0950895E89409C097FB3EF49095809588
S1132FF0709561957F4F8F4F9F4F9923A9F0F92FBB
S113300096E9BB279395F695879577956795B79538
S1133010F111F8CFFAF4BB0F11F460FF1BC06F5F1E
S11330207F4F8F4F9F4F16C0882311F096E911C030
S1133030772321F09EE8872F762F05C0662371F051
S113304096E8862F70E060E02AF09A95660F771F65
S1133050881FDAF7880F9695879597F90895DF9377
S1133060CF931F930F938B01EC01E9EAF0E00E94E8
S11330707C180E94C5189801AE018B01EC0160E038
S113308070E080E89FE30E9481160E947F199801F6
S1133090AE010F911F91CF91DF910C941F19990FDD
S11330A00008550FAA0BE0E8FEEF16161706E8070E
S11330B0F907C0F012161306E407F50798F0621B2F
S11330C0730B840B950B39F40A2661F0232B242B04
S11330D0252B21F408950A2609F4A140A6958FEF23
S11330E0811D811D089597F99F6780E870E060E075
S11330F008959FEF80EC0895DF93CF931F930F9370
S1133100FF92EF92DF927B018C01689406C0DA2E65
S1133110EF010E941F19FE01E894A59125913591B4
S113312045915591A6F3EF010E949916FE0197016E
S1133130A801DA9469F7DF90EF90FF900F911F9147
S1133140CF91DF9108959F938F937F936F93FF9314
S1133150EF939B01AC010E940C19EF91FF910E9427
S11331607C182F913F914F915F910C940C1900247E
S11331700A941616170618060906089500240A94D8
S113318012161306140605060895092E0394000C5E
S113319011F4882352F0BB0F40F4BF2B11F460FFED
S11331A004C06F5F7F4F8F4F9F4F089557FD905816
S11331B0440F551F59F05F3F71F04795880F97FBF7
S11331C0991F61F09F3F79F08795089512161306B1
S11331D01406551FF2CF4695F1DF08C016161706E0
S11331E01806991FF1CF8695710561050894089515
S11331F0E894BB2766277727CB0197F908950E94A7
S11332004F1808F48FEF08959B01AC0160E070E063
S113321080E89FE30C9480170E941F190C94C51832
S11332200E94B71838F00E94BE1820F0952311F0C0
S11332300C9473180C94791811240C94F9180E94A6
S1133240D61870F3959FC1F3950F50E0551F629FF8
S1133250F001729FBB27F00DB11D639FAA27F00DEB
S1133260B11DAA1F649F6627B00DA11D661F829F12
S11332702227B00DA11D621F739FB00DA11D621FF7
S1133280839FA00D611D221F749F3327A00D611D14
S1133290231F849F600D211D822F762F6A2F1124F6
S11332A09F5750409AF0F1F088234AF0EE0FFF1F29
S11332B0BB1F661F771F881F91505040A9F79E3F80
S11332C0510580F00C9473180C94F9185F3FE4F3E3
S11332D0983ED4F3869577956795B795F795E795D6
S11332E09F5FC1F7FE2B880F911D9695879597F9DF
S11332F0089519F416F40C9479180C94C3190E94C7
S1133300DE18B8F39923C9F3B6F39F57550B87FF1B
S11333100E94D1190024A0E640EA900180585695F5
S1133320979528F4805C660F771F881F20F0261776
S11333303707480730F4621B730B840B20293129AB
S11333404A2BA69517940794202531254A2758F728
S1133350660F771F881F20F026173707480730F4B9
S1133360620B730B840B200D311D411DA09581F759
S1133370B901842F9158880F9695879508959B01DC
S1133380AC010C940C199F3F31F0915020F48795B7
S113339077956795B795880F911D9695879597F9B9
S11333A0089591505040660F771F881FD2F70895F3
S11333B01F920F920FB60F9211248F939F93AF9386
S11333C0BF9380914B0390914C03A0914D03B09116
S11333D04E030196A11DB11D80934B0390934C03A2
S11333E0A0934D03B0934E03BF91AF919F918F91E2
S11333F00F900FBE0F901F90189520E43FE140E01E
S113340050E00E942823E1E8F0E080818A60808314
S1133410BB27A52F942F832F8093890020938800A6
S1133420EFE6F0E08081826080830895F8946091F3
S11334304B0370914C0380914D0390914E0378940B
S11334400895CF93DF93EC01E0917702F091780235
S1133450309701F190917602809175029817D0F01F
S1133460161617068CF420E030E090E0DE01A90F78
S1133470B11D4C91D901A15BBC4F4C939F5F292F87
S113348030E02617370794F3CB011092760260934D
S113349075020995DF91CF910895E0917902F09139
S11334A07A02309729F010927302109272020995F1
S11334B0089510927602109275021092730210927F
S11334C072020E94E41C8DE49AE10E94061D81E2CE
S11334D09AE10E94011D08950E94FD1C08950E9416
S11334E0FA1C089591E090937102809374021092F3
S11334F073021092720208950F93082F21E04091F5
S113350072026FE673E0809174020E945D1D109256
S1133510730210927202109271020F910895CF9368
S1133520DF931F92CDB7DEB7898380917102882320
S1133530A1F0809172028032C0F480917302E82F6E
S1133540F0E0E159FC4F998190838F5F809373027F
S11335508093720281E090E00AC061E0CE0101969E
S11335600E94BD1D81E090E002C080E090E00F90D9
S1133570DF91CF9108958F929F92AF92BF92EF9275
S11335800F931F93CF93DF93182FD62F49015A011E
S1133590002309F10E94721A043008F003E0CFEF0F
S11335A0C00F0023A9F08C2F880F880F880FA50166
S11335B0940104C056954795379527958A95D2F777
S11335C0DA01C9010E948F1A8C2FC1508111EBCFEF
S11335D080E00E947C1A4D2FD13208F040E22E2D5B
S11335E06FE473E0812F0E940B1D1092760280938A
S11335F07502DF91CF911F910F91EF90BF90AF9023
S11336009F908F9008958091750290E020917602AA
S1133610821B910908959091760280917502981702
S113362050F4E92FF0E0E15BFC4F208130E09F5F34
S11336309093760202C02FEF3FEFC9010895909353
S1133640780280937702089590937A0280937902A6
S113365008952F923F924F925F926F927F928F9232
S11336609F92AF92BF92CF92DF92EF92FF920F930D
S11336701F93CF93DF93CDB7DEB728970FB6F89497
S1133680DEBF0FBECDBFF82E6D83842E59016801B5
S11336900E94161A2B013C01882009F45AC0912C6F
S11336A010E0282C312C960140E050E029833A8325
S11336B04B835C838E828F2D0E94721A8D810E94AF
S11336C08F1A81E00E947C1A8F2D0E94721AC10108
S11336D08919910980971CF4682D691901C060E269
S11336E0EE24E39400E020E030E0A9018F2D0E9455
S11336F0BB1A0DC0A501410F511D17FD5A955887DE
S11337004F830E940B1BAF81B8858C931F5F0E946F
S1133710031B892BA1F0C114D10461F30E94161A72
S1133720DC01CB0184199509A609B70929813A81DD
S11337304B815C8182179307A407B507D8F28E8169
S113374030E2381508F480E2980E981408F4B3CFE8
S113375001C010E0C114D104C9F00E94161AAB01D3
S1133760BC014419550966097709C601A0E0B0E017
S1133770481759076A077B0748F0912C812F012EBF
S1133780000C990B881599050CF41FEF812F2896CE
S11337900FB6F894DEBF0FBECDBFDF91CF911F915E
S11337A00F91FF90EF90DF90CF90BF90AF909F90DC
S11337B08F907F906F905F904F903F902F900895DF
S11337C00F931F9389019A0141E00E94291B1F91C5
S11337D00F910895EF92FF920F931F93CF93DF936E
S11337E0C62F142F79010E94721A8C2F0E948F1AEF
S11337F0112371F0E7011150012F10E00F5F1F4FEB
S11338000E0D1F1D89910E948F1AC017D107D1F781
S113381081E00E947C1A91E0811190E0892FDF9170
S1133820CF911F910F91FF90EF900895CF93DF9365
S11338301F92CDB7DEB749839E012F5F3F4F41E012
S11338400E94EA1B0F90DF91CF910895EF92FF92AF
S11338500F931F93CF93DF931F92CDB7DEB7182F2B
S1133860062FF42EE22E28EE33E0AE014F5F5F4FB9
S11338700E94E01BEE2051F041E050E002C0440FF2
S1133880551FFA94E2F78981482B0AC041E050E0C1
S113389002C0440F551FFA94E2F7409589814823EA
S11338A04983602F812F0E94161C0F90DF91CF91C6
S11338B01F910F91FF90EF900895DF92EF92FF9286
S11338C00F931F93CF93DF931F92CDB7DEB7182FBB
S11338D0F62EE42ED22E28EE33E0AE014F5F5F4F7A
S11338E00E94E01B882341F12E2D30E02D1931096F
S11338F02F5F3F4F81E090E002C0880F991FDA9458
S1133900E2F70197022E02C0880F991F0A94E2F78A
S1133910402F50E0BA0102C0660F771F2A95E2F7E4
S1133920482F4095998149238623482B49836F2D3D
S1133930812F0E94161C01C080E00F90DF91CF916F
S11339401F910F91FF90EF90DF900895EF92FF92F7
S11339500F931F93CF93DF93C62FE42E022F132FC1
S11339600E94721A8C2F0E948F1AEE2069F0C02FC9
S1133970D12FF12C89810E948F1A888122960E946E
S11339808F1AF394EF10F6CF81E00E947C1A91E035
S1133990811190E0892FDF91CF911F910F91FF90BA
S11339A0EF900895CF93DF9300D0CDB7DEB75A835D
S11339B049839E012F5F3F4F41E00E94A61C0F9058
S11339C00F90DF91CF9108951092E80281E08093E7
S11339D0E7021092E602E9EBF0E080818E7F8083BB
S11339E080818D7F808388E48093B80085E4809310
S11339F0BC0008958091E8020895880F8093BA006E
S1133A0008959093E1028093E00208959093E30275
S1133A108093E2020895413208F04CC09091E8028C
S1133A209111FCCF31E03093E8022093E7022FEFAD
S1133A302093E4021092BF02240F2093BE0230931D
S1133A40E5022091E502880F822B8093E5028091A4
S1133A50E602813081F41092E602ABEBB0E0ECEBCD
S1133A60F0E08091E5028C93808183FDFACF85ECB0
S1133A708093BC0003C085EE8093BC008091E80273
S1133A808130E1F38091BF02841710F44091BF02AA
S1133A90442389F0E0ECF2E0A62FB72F2FEF240F98
S1133AA030E02F533D4F81918D93E217F307D9F7FF
S1133AB0942F01C090E0892F08950F93413208F0AC
S1133AC054C03091E8023111FCCF92E09093E802A7
S1133AD00093E7029FEF9093E4021092BF02409399
S1133AE0BE02442371F0FB01A0ECB2E0415050E06F
S1133AF04F5F5F4F640F751F91919D93E617F70712
S1133B00D9F71092E5029091E502880F892B8093F2
S1133B10E5028091E602882369F01092E602ABEB9D
S1133B20B0E0ECEBF0E09091E5029C93908193FD82
S1133B30FACF03C085EE8093BC00222341F080912C
S1133B40E802823021F48091E8028230E1F380912E
S1133B50E4028F3F79F08091E402803241F0809159
S1133B60E402803331F034E005C031E003C032E0D8
S1133B7001C033E0832F0F91089540919C02262FBA
S1133B8030E0240F311D21323105ECF42091E8029C
S1133B902430D9F4662381F0A82FB92F80E090E077
S1133BA030919C022D91FC01E256FD4FE30FF11D73
S1133BB0208301968617A0F380919C02680F60937E
S1133BC09C0280E0089581E0089582E0089585EDE7
S1133BD08093BC00ECEBF0E0808184FDFDCF10927B
S1133BE0E802089585EC8093BC001092E8020895E1
S1133BF01F920F920FB60F9211242F933F934F935E
S1133C005F936F937F938F939F93AF93BF93EF9340
S1133C10FF938091B900E82FE87F8E2F90E0893CD4
S1133C20910508F0F5C0FC01E759FF4F0C94692396
S1133C308091E5028093BB0085EC8093BC00E8C0D2
S1133C409091BF028091BE02981780F4E091BF0268
S1133C5081E08E0F8093BF02F0E0E054FD4F80813D
S1133C608093BB0085EC8093BC00D2C08091E702B6
S1133C70882319F00E94E71DCBC081E08093E602FF
S1133C8084EA8093BC001092E802C2C080E2809370
S1133C90E4020E94E71DBCC080E38093E4020E941A
S1133CA0E71DB6C088E38093E4020E94F21DB0C011
S1133CB0E091BF0281E08E0F8093BF028091BB0030
S1133CC0F0E0E054FD4F80839091BF028091BE02EA
S1133CD0981720F485EC8093BC009AC085E8809303
S1133CE0BC0096C0E091BF0281E08E0F8093BF02BA
S1133CF08091BB00F0E0E054FD4F80838091E702A7
S1133D00882319F00E94E71D83C081E08093E602B6
S1133D1084EA8093BC001092E8027AC00E94E71DF6
S1133D2077C083E08093E80210927B0285EC809355
S1133D30BC006EC080917B02803280F4E0917B02F3
S1133D4081E08E0F80937B028091BB00F0E0E45809
S1133D50FD4F808385EC8093BC005AC085E8809336
S1133D60BC0056C00E94F21D80917B02803230F468
S1133D70E0917B02F0E0E458FD4F108260917B02F9
S1133D8070E0E091E002F091E1028CE792E00995A5
S1133D9010927B023DC085E88093BC0039C084E06A
S1133DA08093E80210929D0210929C02E091E2023C
S1133DB0F091E302099580919C02811105C081E094
S1133DC080939C0210929E02E0919D0281E08E0FEE
S1133DD080939D02F0E0E256FD4F80818093BB000A
S1133DE090919D0280919C02981720F485EC809319
S1133DF0BC000EC085E88093BC000AC085EC8093AB
S1133E00BC001092E80204C01092E4020E94E71D74
S1133E10FF91EF91BF91AF919F918F917F916F919E
S1133E205F914F913F912F910F900FBE0F901F9074
S1133E3018951F920F920FB60F9211242F938F9300
S1133E409F93EF93FF938091C0002091C6008871E7
S1133E50E091EB02EF5FEF719091EA02E91739F01C
S1133E60E093EB02F0E0E251FD4F208301C082E0D9
S1133E708093E902FF91EF919F918F912F910F9081
S1133E800FBE0F901F9018951F920F920FB60F92AE
S1133E9011248F939F93EF93FF939091ED02809160
S1133EA0EC02981769F0E091EC02EF5FEF71E09398
S1133EB0EC02F0E0E25FFC4F80818093C60005C015
S1133EC0E1ECF0E080818F7D8083FF91EF919F9101
S1133ED08F910F900FBE0F901F9018951092ED02C6
S1133EE01092EC021092EB021092EA02992324F44D
S1133EF022E02093C0009F779093C5008093C40074
S1133F0088E98093C10086E08093C20008952091DF
S1133F10ED022F5F2F719091EC022917E1F3E22F4C
S1133F20F0E0E25FFC4F80832093ED02E1ECF0E0EF
S1133F308081806280830895CF93DF93EC01888130
S1133F40882331F021960E94871F89918111FBCF2C
S1133F50DF91CF910895A0E1B0E0E1EBFFE10C9493
S1133F606F237C011B016A01FC0117821682838185
S1133F7081FF44C39E012F5F3F4F3901F7019381B5
S1133F80F10193FD859193FF81911F01882309F429
S1133F9031C3853239F493FD859193FF81911F01DB
S1133FA0853239F4B70190E00E94942456016501EA
S1133FB0E5CF10E0512C912CFFE1F915D8F08B32AC
S1133FC079F038F4803279F08332A1F4F92DF0617C
S1133FD02EC08D3261F0803369F4292D21602DC00B
S1133FE0392D3260932E892D8460982E2AC0E92DB4
S1133FF0E86015C097FC2DC020ED280F2A3088F406
S113400096FE06C03AE0139F200D1124122F19C00A
S11340108AE0589E200D1124522EE92DE0629E2E36
S113402010C08E3231F496FCE5C2F92DF0649F2E57
S113403008C08C3621F4292D2068922E02C08836BF
S113404041F4F10193FD859193FF81911F01811149
S1134050B3CF9BEB980F933020F4992D9061805E41
S113406007C09BE9980F933008F066C1992D9F7E95
S113407096FF16E09F73992E853619F49064992E55
S113408008C0863621F4392F3068932E02C01111EE
S1134090115097FE07C01C3350F444244394410E3E
S11340A027E00BC0183038F027E017E005C027E000
S11340B09CE3492E02C0212F412C560184E0A80E16
S11340C0B11CF6016081718182819381042DA30169
S11340D00E94A6236C01F981FC87F0FF02C0F3FF64
S11340E006C091FC06C092FE06C000E205C00DE2C7
S11340F003C00BE201C000E08C858C7019F0011143
S11341005AC29BC297FE10C04C0CFC85F4FF04C03D
S11341108A81813309F44A94141474F528E024152F
S113412078F588E0482E2CC096FC2AC0812F90E0B8
S11341308C159D059CF03CEFC3163FEFD30674F03D
S1134140892D8068982E0AC0E2E0F0E0EC0FFD1F94
S1134150E10FF11D8081803319F411501111F4CF56
S113416097FE0EC044244394410E812F90E0C8165C
S1134170D9062CF41C1904C04424439401C010E053
S113418097FE06C01C141D0434F4C601019605C034
S113419085E090E002C081E090E0011101961123D6
S11341A031F0212F30E02F5F3F4F820F931F252DD9
S11341B030E08217930714F4581A01C0512C892D4A
S11341C0897049F4552039F0B70180E290E00E94EB
S11341D094245A94F7CF002329F0B701802F90E05C
S11341E00E94942493FC09C0552039F0B70180E360
S11341F090E00E9494245A94F7CF97FE4CC0460155
S1134200D7FE02C0812C912CC60188199909F301AB
S1134210E80FF91FFE87ED87960124193109388BC1
S11342202F87012F10E01195019511093FEF831697
S1134230930629F4B7018EE290E00E949424C814F6
S1134240D9044CF08F8598898815990524F4ED8557
S1134250FE85818101C080E3F1E08F1A91082D85EC
S11342603E852F5F3F4F3E872D87801691062CF0A9
S1134270B70190E00E949424D9CFC814D90441F422
S11342809A81963320F4953319F43C8534FF81E305
S1134290B70190E04EC08A81813319F09C859F7EDE
S11342A09C87B70190E00E949424111105C094FCEE
S11342B018C085E690E017C0B7018EE290E00E9436
S11342C094241E5F82E001E0080FF301E80FF11D62
S11342D08081B70190E00E949424802F0113F3CFD2
S11342E0E6CF85E490E0B7010E949424D7FC06C091
S11342F0C114D10441F4EC85E4FF05C0D194C19408
S1134300D1088DE201C08BE2B70190E00E949424B1
S113431080E32AE0C216D1042CF08F5FFAE0CF1AB2
S1134320D108F7CFB70190E00E949424B701C601E9
S1134330C0960E94942454C1833631F0833779F0B7
S1134340833509F056C020C0560132E0A30EB11CDB
S1134350F6018081898301E010E0630112C05601F7
S1134360F2E0AF0EB11CF601C080D18096FE03C00E
S1134370612F70E002C06FEF7FEFC6010E948924B5
S11343808C01F92DFF7714C0560122E0A20EB11C56
S1134390F601C080D18096FE03C0612F70E002C098
S11343A06FEF7FEFC6010E947E248C01F92DF06827
S11343B09F2EF3FD1AC0852D90E008171907A8F465
S11343C0B70180E290E00E9494245A94F4CFF6015D
S11343D097FC859197FE81916F01B70190E00E944F
S11343E0942451105A94015011090115110579F7BB
S11343F0F7C0843611F0893661F5560197FE09C07D
S113440024E0A20EB11CF601608171818281938146
S11344100AC0F2E0AF0EB11CF60160817181072E73
S1134420000C880B990BF92DFF769F2E97FF09C07E
S113443090958095709561957F4F8F4F9F4FF06851
S11344409F2E2AE030E0A3010E94F224C82EC61851
S11344503FC0092D853721F40F7E2AE030E01DC0CE
S1134460097F8F3691F018F4883559F0C3C080372E
S113447019F0883711F0BEC0006104FF09C0046060
S113448007C094FE08C0066006C028E030E005C0FE
S113449020E130E002C020E132E0560107FF09C00C
S11344A084E0A80EB11CF601608171818281938140
S11344B008C0F2E0AF0EB11CF6016081718180E0AA
S11344C090E0A3010E94F224C82EC6180F77902E04
S11344D096FE0BC0092D0E7FC11650F494FE0AC03F
S11344E092FC08C0092D0E7E05C0DC2C092D03C0EA
S11344F0DC2C01C0D12E04FF0DC0FE01EC0DF11D1A
S11345008081803311F4097E09C002FF06C0D39470
S1134510D39404C0802F867809F0D39403FD11C08E
S113452000FF06C01C2DD51480F4150D1D190DC0F7
S1134530D51458F4B70180E290E00E949424D394F7
S1134540F7CFD51410F45D1801C0512C04FF10C02E
S1134550B70180E390E00E94942402FF17C001FD9C
S113456003C088E790E002C088E590E0B7010CC082
S1134570802F867859F001FF02C08BE201C080E2EF
S113458007FD8DE2B70190E00E949424C11638F42F
S1134590B70180E390E00E9494241150F7CFCA94AD
S11345A0F301EC0DF11D8081B70190E00E94942489
S11345B0C110F5CF15C0F4E0F51560F584E0581A84
S11345C093FE1FC0011127C02C8523FF2AC004E6D7
S11345D012E0392D3071932EF8018491811124C099
S11345E0552009F4E4CCB70180E290E00E949424C1
S11345F05A94F6CFF7018681978126C08FEF9FEFFB
S113460023C0B70180E290E00E9494245A94511090
S1134610F8CFD8CF512CB701802F90E00E9494247A
S1134620D3CF08E612E0D5CF91108052B70190E0C5
S11346300E9494240F5F1F4FCFCF23E0251510F461
S113464083E0BDCF512CC0CF6096E2E10C948B2364
S1134650A1E21A2EAA1BBB1BFD010DC0AA1FBB1F82
S1134660EE1FFF1FA217B307E407F50720F0A21BF4
S1134670B30BE40BF50B661F771F881F991F1A9461
S113468069F760957095809590959B01AC01BD018B
S1134690CF010895052E97FB1EF400940E94612318
S11346A057FD07D00E94282307FC03D04EF40C9436
S11346B0612350954095309521953F4F4F4F5F4F63
S11346C0089590958095709561957F4F8F4F9F4F7A
S11346D00895EE0FFF1F0590F491E02D09942F9299
S11346E03F924F925F926F927F928F929F92AF927E
S11346F0BF92CF92DF92EF92FF920F931F93CF93CB
S1134700DF93CDB7DEB7CA1BDB0B0FB6F894DEBF61
S11347100FBECDBF09942A88398848885F846E8487
S11347207D848C849B84AA84B984C884DF80EE80D1
S1134730FD800C811B81AA81B981CE0FD11D0FB6DA
S1134740F894DEBF0FBECDBFED010895283008F008
S113475027E03327DA01990F311D87FD9160009618
S11347606105710539F432602E5F3D9330E32A957B
S1134770E1F708959F3F30F080387105610509F035
S11347803C5F3C5F3D93913008F08068911DDF935E
S1134790CF931F930F93FF92EF92192F987F9695C3
S11347A0E92F96959695E90FFF27EA53FD4F992730
S11347B03327EE24FF24A701E7010590089407940A
S11347C028F4360FE71EF81E491F511D660F771F88
S11347D0881F991F0694A1F70590079428F4E70E03
S11347E0F81E491F561FC11D770F881F991F661F8A
S11347F00694A1F70590079428F4F80E491F561F54
S1134800C71FD11D880F991F661F771F0694A1F734
S11348100590079420F4490F561FC71FD81F990FFE
S1134820661F771F881F0694A9F784911095177047
S113483041F0D695C79557954795F794E7941A95FF
S1134840C1F7ECE6F2E06894159015913591659105
S1134850959105907FE27395E118F10A430B560B8D
S1134860C90BD009C0F7E10CF11E431F561FC91F25
S1134870D01D7EF4703311F48A95E6CFE89401508C
S113488030F0080F0AF40027021708F4202F2395AC
S1134890022F7A3328F079E37D932A95E9F710C043
S11348A07D932A9589F6069497956795379517957C
S11348B01794E118F10A430B560BC90BD00998F071
S11348C023957E9173957A3308F070E37C932013DB
S11348D0B8F77E9170617D9330F0839571E37D9399
S11348E070E32A95E1F71124EF90FF900F911F9147
S11348F0CF91DF91992787FD90950895FC0105904C
S1134900615070400110D8F7809590958E0F9F1FCD
S11349100895FC016150704001900110D8F7809512
S113492090958E0F9F1F08950F931F93CF93DF933E
S1134930FB01238121FD03C08FEF9FEF2CC022FFD9
S113494016C046815781248135814217530744F4A8
S1134950A081B1819D012F5F3F4F318320838C93D0
S1134960268137812F5F3F4F3783268314C08B0105
S1134970EC01FB010084F185E02D0995892BE1F61A
S1134980D80116968D919C911797019617969C9332
S11349908E931697CE01DF91CF911F910F910895B9
S11349A0AEE0B0E0E6EDF4E20C947D230D891E89BF
S11349B086E08C831A8309838FEF9FE79E838D8320
S11349C0AE01475E5F4F6F89788DCE0101960E94DC
S11349D0AB1FEF81F885E00FF11F10822E96E4E003
S11349E00C949923FA01AA27283051F1203181F13E
S11349F0E8946F936E7F6E5F7F4F8F4F9F4FAF4FE3
S1134A00B1E03ED0B4E03CD0670F781F891F9A1FF5
S1134A10A11D680F791F8A1F911DA11D6A0F711DA9
S1134A20811D911DA11D20D009F468943F912AE0B5
S1134A30269F11243019305D3193DEF6CF0108959D
S1134A40462F4770405D4193B3E00FD0C9F7F6CFCE
S1134A50462F4F70405D4A3318F0495D31FD405296
S1134A60419302D0A9F7EACFB4E0A695979587952C
S1134A7077956795BA95C9F700976105710508950B
S1134A809B01AC010A2E06945795479537952795B7
S1134A90BA95C9F7620F731F841F951FA01D08954F
S1134AA0A8E1B0E042E050E00C945D250E946B2543
S1134AB0272F0C946C25DC01CB01FC01F999FECF66
S1134AC006C0F2BDE1BDF89A319600B40D92415092
S1134AD05040B8F70895262FF999FECF1FBA92BD1A
S1134AE081BD20BD0FB6F894FA9AF99A0FBE0196CB
S1094AF00895F894FFCFC5
S1134AF66D7075363035302072756E6E696E67204E
S1134B0663616C6962726174696F6E0A006D7075B7
S1134B16363035302063616C6962726174696F6E18
S1134B2620646F6E650A006D70753630353020630B
S1134B36616C6962726174696F6E2076616C756509
S1134B46732025642025642025642025642025649B
S1134B562025640A00736574757020646F6E650A97
S1134B660063757272656E74206D696C6C6973206E
S1134B76256C640A00726561647920746F2073740D
S1094B866172740A0000D4
S9030000FC
